{
  "_format": "hh-sol-artifact-1",
  "contractName": "King",
  "sourceName": "contracts/King.sol",
  "abi": [
    {
      "inputs": [
        {
          "internalType": "address",
          "name": "_wheat",
          "type": "address"
        },
        {
          "internalType": "address",
          "name": "_traits",
          "type": "address"
        },
        {
          "internalType": "uint256",
          "name": "_maxTokens",
          "type": "uint256"
        }
      ],
      "stateMutability": "nonpayable",
      "type": "constructor"
    },
    {
      "anonymous": false,
      "inputs": [
        {
          "indexed": true,
          "internalType": "address",
          "name": "owner",
          "type": "address"
        },
        {
          "indexed": true,
          "internalType": "address",
          "name": "approved",
          "type": "address"
        },
        {
          "indexed": true,
          "internalType": "uint256",
          "name": "tokenId",
          "type": "uint256"
        }
      ],
      "name": "Approval",
      "type": "event"
    },
    {
      "anonymous": false,
      "inputs": [
        {
          "indexed": true,
          "internalType": "address",
          "name": "owner",
          "type": "address"
        },
        {
          "indexed": true,
          "internalType": "address",
          "name": "operator",
          "type": "address"
        },
        {
          "indexed": false,
          "internalType": "bool",
          "name": "approved",
          "type": "bool"
        }
      ],
      "name": "ApprovalForAll",
      "type": "event"
    },
    {
      "anonymous": false,
      "inputs": [
        {
          "indexed": true,
          "internalType": "address",
          "name": "previousOwner",
          "type": "address"
        },
        {
          "indexed": true,
          "internalType": "address",
          "name": "newOwner",
          "type": "address"
        }
      ],
      "name": "OwnershipTransferred",
      "type": "event"
    },
    {
      "anonymous": false,
      "inputs": [
        {
          "indexed": false,
          "internalType": "address",
          "name": "account",
          "type": "address"
        }
      ],
      "name": "Paused",
      "type": "event"
    },
    {
      "anonymous": false,
      "inputs": [
        {
          "indexed": true,
          "internalType": "address",
          "name": "from",
          "type": "address"
        },
        {
          "indexed": true,
          "internalType": "address",
          "name": "to",
          "type": "address"
        },
        {
          "indexed": true,
          "internalType": "uint256",
          "name": "tokenId",
          "type": "uint256"
        }
      ],
      "name": "Transfer",
      "type": "event"
    },
    {
      "anonymous": false,
      "inputs": [
        {
          "indexed": false,
          "internalType": "address",
          "name": "account",
          "type": "address"
        }
      ],
      "name": "Unpaused",
      "type": "event"
    },
    {
      "inputs": [],
      "name": "MAX_TOKENS",
      "outputs": [
        {
          "internalType": "uint256",
          "name": "",
          "type": "uint256"
        }
      ],
      "stateMutability": "view",
      "type": "function"
    },
    {
      "inputs": [],
      "name": "MINT_PRICE",
      "outputs": [
        {
          "internalType": "uint256",
          "name": "",
          "type": "uint256"
        }
      ],
      "stateMutability": "view",
      "type": "function"
    },
    {
      "inputs": [],
      "name": "PAID_TOKENS",
      "outputs": [
        {
          "internalType": "uint256",
          "name": "",
          "type": "uint256"
        }
      ],
      "stateMutability": "view",
      "type": "function"
    },
    {
      "inputs": [
        {
          "internalType": "uint256",
          "name": "",
          "type": "uint256"
        },
        {
          "internalType": "uint256",
          "name": "",
          "type": "uint256"
        }
      ],
      "name": "aliases",
      "outputs": [
        {
          "internalType": "uint8",
          "name": "",
          "type": "uint8"
        }
      ],
      "stateMutability": "view",
      "type": "function"
    },
    {
      "inputs": [
        {
          "internalType": "address",
          "name": "to",
          "type": "address"
        },
        {
          "internalType": "uint256",
          "name": "tokenId",
          "type": "uint256"
        }
      ],
      "name": "approve",
      "outputs": [],
      "stateMutability": "nonpayable",
      "type": "function"
    },
    {
      "inputs": [
        {
          "internalType": "address",
          "name": "owner",
          "type": "address"
        }
      ],
      "name": "balanceOf",
      "outputs": [
        {
          "internalType": "uint256",
          "name": "",
          "type": "uint256"
        }
      ],
      "stateMutability": "view",
      "type": "function"
    },
    {
      "inputs": [],
      "name": "barn",
      "outputs": [
        {
          "internalType": "contract IHorse",
          "name": "",
          "type": "address"
        }
      ],
      "stateMutability": "view",
      "type": "function"
    },
    {
      "inputs": [
        {
          "internalType": "bytes",
          "name": "data",
          "type": "bytes"
        }
      ],
      "name": "bytesToBytes32Array",
      "outputs": [
        {
          "internalType": "bytes32[]",
          "name": "",
          "type": "bytes32[]"
        }
      ],
      "stateMutability": "pure",
      "type": "function"
    },
    {
      "inputs": [
        {
          "internalType": "bytes",
          "name": "",
          "type": "bytes"
        }
      ],
      "name": "existingCombinations",
      "outputs": [
        {
          "internalType": "uint256",
          "name": "",
          "type": "uint256"
        }
      ],
      "stateMutability": "view",
      "type": "function"
    },
    {
      "inputs": [
        {
          "internalType": "uint256",
          "name": "tokenId",
          "type": "uint256"
        }
      ],
      "name": "getApproved",
      "outputs": [
        {
          "internalType": "address",
          "name": "",
          "type": "address"
        }
      ],
      "stateMutability": "view",
      "type": "function"
    },
    {
      "inputs": [],
      "name": "getPaidTokens",
      "outputs": [
        {
          "internalType": "uint256",
          "name": "",
          "type": "uint256"
        }
      ],
      "stateMutability": "view",
      "type": "function"
    },
    {
      "inputs": [
        {
          "internalType": "uint256",
          "name": "tokenId",
          "type": "uint256"
        }
      ],
      "name": "getTokenTraits",
      "outputs": [
        {
          "components": [
            {
              "internalType": "bool",
              "name": "isPeasant",
              "type": "bool"
            },
            {
              "internalType": "uint8",
              "name": "cap",
              "type": "uint8"
            },
            {
              "internalType": "uint8",
              "name": "head",
              "type": "uint8"
            },
            {
              "internalType": "uint8",
              "name": "ears",
              "type": "uint8"
            },
            {
              "internalType": "uint8",
              "name": "eyes",
              "type": "uint8"
            },
            {
              "internalType": "uint8",
              "name": "nose",
              "type": "uint8"
            },
            {
              "internalType": "uint8",
              "name": "mouth",
              "type": "uint8"
            },
            {
              "internalType": "uint8",
              "name": "cloth",
              "type": "uint8"
            },
            {
              "internalType": "uint8",
              "name": "trous",
              "type": "uint8"
            },
            {
              "internalType": "uint8",
              "name": "levelIndex",
              "type": "uint8"
            }
          ],
          "internalType": "struct IKing.PeasantKing",
          "name": "",
          "type": "tuple"
        }
      ],
      "stateMutability": "view",
      "type": "function"
    },
    {
      "inputs": [
        {
          "internalType": "address",
          "name": "owner",
          "type": "address"
        },
        {
          "internalType": "address",
          "name": "operator",
          "type": "address"
        }
      ],
      "name": "isApprovedForAll",
      "outputs": [
        {
          "internalType": "bool",
          "name": "",
          "type": "bool"
        }
      ],
      "stateMutability": "view",
      "type": "function"
    },
    {
      "inputs": [
        {
          "internalType": "uint256",
          "name": "amount",
          "type": "uint256"
        },
        {
          "internalType": "bool",
          "name": "stake",
          "type": "bool"
        }
      ],
      "name": "mint",
      "outputs": [],
      "stateMutability": "payable",
      "type": "function"
    },
    {
      "inputs": [
        {
          "internalType": "uint256",
          "name": "tokenId",
          "type": "uint256"
        }
      ],
      "name": "mintCost",
      "outputs": [
        {
          "internalType": "uint256",
          "name": "",
          "type": "uint256"
        }
      ],
      "stateMutability": "view",
      "type": "function"
    },
    {
      "inputs": [],
      "name": "minted",
      "outputs": [
        {
          "internalType": "uint16",
          "name": "",
          "type": "uint16"
        }
      ],
      "stateMutability": "view",
      "type": "function"
    },
    {
      "inputs": [],
      "name": "name",
      "outputs": [
        {
          "internalType": "string",
          "name": "",
          "type": "string"
        }
      ],
      "stateMutability": "view",
      "type": "function"
    },
    {
      "inputs": [],
      "name": "owner",
      "outputs": [
        {
          "internalType": "address",
          "name": "",
          "type": "address"
        }
      ],
      "stateMutability": "view",
      "type": "function"
    },
    {
      "inputs": [
        {
          "internalType": "uint256",
          "name": "tokenId",
          "type": "uint256"
        }
      ],
      "name": "ownerOf",
      "outputs": [
        {
          "internalType": "address",
          "name": "",
          "type": "address"
        }
      ],
      "stateMutability": "view",
      "type": "function"
    },
    {
      "inputs": [],
      "name": "paused",
      "outputs": [
        {
          "internalType": "bool",
          "name": "",
          "type": "bool"
        }
      ],
      "stateMutability": "view",
      "type": "function"
    },
    {
      "inputs": [
        {
          "internalType": "uint256",
          "name": "",
          "type": "uint256"
        },
        {
          "internalType": "uint256",
          "name": "",
          "type": "uint256"
        }
      ],
      "name": "rarities",
      "outputs": [
        {
          "internalType": "uint8",
          "name": "",
          "type": "uint8"
        }
      ],
      "stateMutability": "view",
      "type": "function"
    },
    {
      "inputs": [],
      "name": "renounceOwnership",
      "outputs": [],
      "stateMutability": "nonpayable",
      "type": "function"
    },
    {
      "inputs": [
        {
          "internalType": "address",
          "name": "from",
          "type": "address"
        },
        {
          "internalType": "address",
          "name": "to",
          "type": "address"
        },
        {
          "internalType": "uint256",
          "name": "tokenId",
          "type": "uint256"
        }
      ],
      "name": "safeTransferFrom",
      "outputs": [],
      "stateMutability": "nonpayable",
      "type": "function"
    },
    {
      "inputs": [
        {
          "internalType": "address",
          "name": "from",
          "type": "address"
        },
        {
          "internalType": "address",
          "name": "to",
          "type": "address"
        },
        {
          "internalType": "uint256",
          "name": "tokenId",
          "type": "uint256"
        },
        {
          "internalType": "bytes",
          "name": "_data",
          "type": "bytes"
        }
      ],
      "name": "safeTransferFrom",
      "outputs": [],
      "stateMutability": "nonpayable",
      "type": "function"
    },
    {
      "inputs": [
        {
          "internalType": "address",
          "name": "operator",
          "type": "address"
        },
        {
          "internalType": "bool",
          "name": "approved",
          "type": "bool"
        }
      ],
      "name": "setApprovalForAll",
      "outputs": [],
      "stateMutability": "nonpayable",
      "type": "function"
    },
    {
      "inputs": [
        {
          "internalType": "address",
          "name": "_horse",
          "type": "address"
        }
      ],
      "name": "setHorse",
      "outputs": [],
      "stateMutability": "nonpayable",
      "type": "function"
    },
    {
      "inputs": [
        {
          "internalType": "uint256",
          "name": "_paidTokens",
          "type": "uint256"
        }
      ],
      "name": "setPaidTokens",
      "outputs": [],
      "stateMutability": "nonpayable",
      "type": "function"
    },
    {
      "inputs": [
        {
          "internalType": "bool",
          "name": "_paused",
          "type": "bool"
        }
      ],
      "name": "setPaused",
      "outputs": [],
      "stateMutability": "nonpayable",
      "type": "function"
    },
    {
      "inputs": [
        {
          "internalType": "bytes4",
          "name": "interfaceId",
          "type": "bytes4"
        }
      ],
      "name": "supportsInterface",
      "outputs": [
        {
          "internalType": "bool",
          "name": "",
          "type": "bool"
        }
      ],
      "stateMutability": "view",
      "type": "function"
    },
    {
      "inputs": [],
      "name": "symbol",
      "outputs": [
        {
          "internalType": "string",
          "name": "",
          "type": "string"
        }
      ],
      "stateMutability": "view",
      "type": "function"
    },
    {
      "inputs": [
        {
          "internalType": "uint256",
          "name": "index",
          "type": "uint256"
        }
      ],
      "name": "tokenByIndex",
      "outputs": [
        {
          "internalType": "uint256",
          "name": "",
          "type": "uint256"
        }
      ],
      "stateMutability": "view",
      "type": "function"
    },
    {
      "inputs": [
        {
          "internalType": "address",
          "name": "owner",
          "type": "address"
        },
        {
          "internalType": "uint256",
          "name": "index",
          "type": "uint256"
        }
      ],
      "name": "tokenOfOwnerByIndex",
      "outputs": [
        {
          "internalType": "uint256",
          "name": "",
          "type": "uint256"
        }
      ],
      "stateMutability": "view",
      "type": "function"
    },
    {
      "inputs": [
        {
          "internalType": "uint256",
          "name": "",
          "type": "uint256"
        }
      ],
      "name": "tokenTraits",
      "outputs": [
        {
          "internalType": "bool",
          "name": "isPeasant",
          "type": "bool"
        },
        {
          "internalType": "uint8",
          "name": "cap",
          "type": "uint8"
        },
        {
          "internalType": "uint8",
          "name": "head",
          "type": "uint8"
        },
        {
          "internalType": "uint8",
          "name": "ears",
          "type": "uint8"
        },
        {
          "internalType": "uint8",
          "name": "eyes",
          "type": "uint8"
        },
        {
          "internalType": "uint8",
          "name": "nose",
          "type": "uint8"
        },
        {
          "internalType": "uint8",
          "name": "mouth",
          "type": "uint8"
        },
        {
          "internalType": "uint8",
          "name": "cloth",
          "type": "uint8"
        },
        {
          "internalType": "uint8",
          "name": "trous",
          "type": "uint8"
        },
        {
          "internalType": "uint8",
          "name": "levelIndex",
          "type": "uint8"
        }
      ],
      "stateMutability": "view",
      "type": "function"
    },
    {
      "inputs": [
        {
          "internalType": "uint256",
          "name": "tokenId",
          "type": "uint256"
        }
      ],
      "name": "tokenURI",
      "outputs": [
        {
          "internalType": "string",
          "name": "",
          "type": "string"
        }
      ],
      "stateMutability": "view",
      "type": "function"
    },
    {
      "inputs": [],
      "name": "totalSupply",
      "outputs": [
        {
          "internalType": "uint256",
          "name": "",
          "type": "uint256"
        }
      ],
      "stateMutability": "view",
      "type": "function"
    },
    {
      "inputs": [],
      "name": "traits",
      "outputs": [
        {
          "internalType": "contract ITraits",
          "name": "",
          "type": "address"
        }
      ],
      "stateMutability": "view",
      "type": "function"
    },
    {
      "inputs": [
        {
          "internalType": "address",
          "name": "from",
          "type": "address"
        },
        {
          "internalType": "address",
          "name": "to",
          "type": "address"
        },
        {
          "internalType": "uint256",
          "name": "tokenId",
          "type": "uint256"
        }
      ],
      "name": "transferFrom",
      "outputs": [],
      "stateMutability": "nonpayable",
      "type": "function"
    },
    {
      "inputs": [
        {
          "internalType": "address",
          "name": "newOwner",
          "type": "address"
        }
      ],
      "name": "transferOwnership",
      "outputs": [],
      "stateMutability": "nonpayable",
      "type": "function"
    },
    {
      "inputs": [],
      "name": "wheat",
      "outputs": [
        {
          "internalType": "contract WHEAT",
          "name": "",
          "type": "address"
        }
      ],
      "stateMutability": "view",
      "type": "function"
    },
    {
      "inputs": [],
      "name": "withdraw",
      "outputs": [],
      "stateMutability": "nonpayable",
      "type": "function"
    }
  ],
  "bytecode": "0x60a06040523480156200001157600080fd5b50604051620082c6380380620082c6833981810160405281019062000037919062002655565b6040518060400160405280600981526020017f4b696e672047616d6500000000000000000000000000000000000000000000008152506040518060400160405280600581526020017f4b47414d450000000000000000000000000000000000000000000000000000008152508160009080519060200190620000bb92919062001ca1565b508060019080519060200190620000d492919062001ca1565b505050620000f7620000eb62001bd360201b60201c565b62001bdb60201b60201c565b6000600a60146101000a81548160ff02191690831515021790555082603460006101000a81548173ffffffffffffffffffffffffffffffffffffffff021916908373ffffffffffffffffffffffffffffffffffffffff16021790555081603560006101000a81548173ffffffffffffffffffffffffffffffffffffffff021916908373ffffffffffffffffffffffffffffffffffffffff16021790555080608081815250506005905080600b819055506040518060a00160405280600f60ff168152602001603260ff16815260200160c860ff16815260200160fa60ff16815260200160ff8016815250600f6000601281106200021d577f4e487b7100000000000000000000000000000000000000000000000000000000600052603260045260246000fd5b019060056200022e92919062001d32565b506040518060a00160405280600460ff168152602001600460ff168152602001600460ff168152602001600460ff168152602001600460ff168152506021600060128110620002a6577f4e487b7100000000000000000000000000000000000000000000000000000000600052603260045260246000fd5b01906005620002b792919062001d32565b5060405180610280016040528060be60ff16815260200160d760ff16815260200160f060ff168152602001606460ff168152602001606e60ff168152602001608760ff16815260200160a060ff16815260200160b960ff168152602001605060ff16815260200160d260ff16815260200160eb60ff16815260200160f060ff168152602001605060ff168152602001605060ff168152602001606460ff168152602001606460ff168152602001606460ff16815260200160f560ff16815260200160fa60ff16815260200160ff8016815250600f600160128110620003c5577f4e487b7100000000000000000000000000000000000000000000000000000000600052603260045260246000fd5b01906014620003d692919062001de0565b50604051806102800160405280600160ff168152602001600260ff168152602001600460ff168152602001600060ff168152602001600560ff168152602001600660ff168152602001600760ff168152602001600960ff168152602001600060ff168152602001600a60ff168152602001600b60ff168152602001601160ff168152602001600060ff168152602001600060ff168152602001600060ff168152602001600060ff168152602001600460ff168152602001601260ff168152602001601360ff168152602001601360ff168152506021600160128110620004e5577f4e487b7100000000000000000000000000000000000000000000000000000000600052603260045260246000fd5b01906014620004f692919062001de0565b506040518060c0016040528060ff80168152602001601e60ff168152602001603c60ff168152602001603c60ff168152602001609660ff168152602001609c60ff16815250600f60026012811062000577577f4e487b7100000000000000000000000000000000000000000000000000000000600052603260045260246000fd5b019060066200058892919062001e8e565b506040518060c00160405280600060ff168152602001600060ff168152602001600060ff168152602001600060ff168152602001600060ff168152602001600060ff1681525060216002601281106200060a577f4e487b7100000000000000000000000000000000000000000000000000000000600052603260045260246000fd5b019060066200061b92919062001e8e565b5060405180610380016040528060dd60ff168152602001606460ff16815260200160b560ff168152602001608c60ff16815260200160e060ff168152602001609360ff168152602001605460ff16815260200160e460ff168152602001608c60ff16815260200160e060ff16815260200160fa60ff16815260200160a060ff16815260200160f160ff16815260200160cf60ff16815260200160ad60ff168152602001605460ff16815260200160fe60ff16815260200160dc60ff16815260200160c460ff168152602001608c60ff16815260200160a860ff16815260200160fc60ff168152602001608c60ff16815260200160b760ff16815260200160ec60ff16815260200160fc60ff16815260200160e060ff16815260200160ff8016815250600f60036012811062000779577f4e487b7100000000000000000000000000000000000000000000000000000000600052603260045260246000fd5b0190601c6200078a92919062001f3c565b50604051806103800160405280600160ff168152602001600260ff168152602001600560ff168152602001600060ff168152602001600160ff168152602001600760ff168152602001600160ff168152602001600a60ff168152602001600560ff168152602001600a60ff168152602001600b60ff168152602001600c60ff168152602001600d60ff168152602001600e60ff168152602001601060ff168152602001600b60ff168152602001601160ff168152602001601760ff168152602001600d60ff168152602001600e60ff168152602001601160ff168152602001601760ff168152602001601760ff168152602001601860ff168152602001601b60ff168152602001601b60ff168152602001601b60ff168152602001601b60ff168152506021600360128110620008e9577f4e487b7100000000000000000000000000000000000000000000000000000000600052603260045260246000fd5b0190601c620008fa92919062001f3c565b5060405180610140016040528060af60ff168152602001606460ff168152602001602860ff16815260200160fa60ff168152602001607360ff168152602001606460ff16815260200160b960ff16815260200160af60ff16815260200160b460ff16815260200160ff8016815250600f600460128110620009a4577f4e487b7100000000000000000000000000000000000000000000000000000000600052603260045260246000fd5b0190600a620009b592919062001fea565b50604051806101400160405280600360ff168152602001600060ff168152602001600460ff168152602001600660ff168152602001600660ff168152602001600760ff168152602001600860ff168152602001600860ff168152602001600960ff168152602001600960ff16815250602160046012811062000a60577f4e487b7100000000000000000000000000000000000000000000000000000000600052603260045260246000fd5b0190600a62000a7192919062001fea565b50604051806102000160405280605060ff16815260200160e160ff16815260200160e360ff16815260200160e460ff168152602001607060ff16815260200160f060ff168152602001604060ff16815260200160a060ff16815260200160a760ff16815260200160d960ff16815260200160ab60ff168152602001604060ff16815260200160f060ff168152602001607e60ff168152602001605060ff16815260200160ff8016815250600f60056012811062000b57577f4e487b7100000000000000000000000000000000000000000000000000000000600052603260045260246000fd5b0190601062000b6892919062002098565b50604051806102000160405280600160ff168152602001600260ff168152602001600360ff168152602001600860ff168152602001600260ff168152602001600860ff168152602001600860ff168152602001600960ff168152602001600960ff168152602001600a60ff168152602001600d60ff168152602001600a60ff168152602001600d60ff168152602001600f60ff168152602001600d60ff168152602001600f60ff16815250602160056012811062000c4f577f4e487b7100000000000000000000000000000000000000000000000000000000600052603260045260246000fd5b0190601062000c6092919062002098565b50604051806020016040528060ff8016815250600f60066012811062000caf577f4e487b7100000000000000000000000000000000000000000000000000000000600052603260045260246000fd5b0190600162000cc092919062002146565b506040518060200160405280600060ff16815250602160066012811062000d10577f4e487b7100000000000000000000000000000000000000000000000000000000600052603260045260246000fd5b0190600162000d2192919062002146565b5060405180610260016040528060f360ff16815260200160bd60ff168152602001608560ff168152602001608560ff168152602001603960ff168152602001605f60ff168152602001609860ff168152602001608760ff168152602001608560ff168152602001603960ff16815260200160de60ff16815260200160a860ff168152602001603960ff168152602001603960ff168152602001602660ff168152602001607260ff168152602001607260ff168152602001607260ff16815260200160ff8016815250600f60076012811062000e25577f4e487b7100000000000000000000000000000000000000000000000000000000600052603260045260246000fd5b0190601362000e36929190620021f4565b50604051806102600160405280600160ff168152602001600760ff168152602001600060ff168152602001600060ff168152602001600060ff168152602001600060ff168152602001600060ff168152602001600a60ff168152602001600060ff168152602001600060ff168152602001600b60ff168152602001601260ff168152602001600060ff168152602001600060ff168152602001600060ff168152602001600160ff168152602001600760ff168152602001600b60ff168152602001601260ff16815250602160076012811062000f3b577f4e487b7100000000000000000000000000000000000000000000000000000000600052603260045260246000fd5b0190601362000f4c929190620021f4565b50604051806020016040528060ff8016815250600f60086012811062000f9b577f4e487b7100000000000000000000000000000000000000000000000000000000600052603260045260246000fd5b0190600162000fac92919062002146565b506040518060200160405280600060ff16815250602160086012811062000ffc577f4e487b7100000000000000000000000000000000000000000000000000000000600052603260045260246000fd5b019060016200100d92919062002146565b5060405180610120016040528060d260ff168152602001605a60ff168152602001600960ff168152602001600960ff168152602001600960ff168152602001609660ff168152602001600960ff16815260200160ff80168152602001600960ff16815250600f600960128110620010ad577f4e487b7100000000000000000000000000000000000000000000000000000000600052603260045260246000fd5b01906009620010be929190620022a2565b50604051806101200160405280600560ff168152602001600060ff168152602001600060ff168152602001600560ff168152602001600560ff168152602001600760ff168152602001600560ff168152602001600760ff168152602001600560ff1681525060216009601281106200115f577f4e487b7100000000000000000000000000000000000000000000000000000000600052603260045260246000fd5b0190600962001170929190620022a2565b50604051806020016040528060ff8016815250600f600a60128110620011bf577f4e487b7100000000000000000000000000000000000000000000000000000000600052603260045260246000fd5b01906001620011d092919062002146565b506040518060200160405280600060ff168152506021600a6012811062001220577f4e487b7100000000000000000000000000000000000000000000000000000000600052603260045260246000fd5b019060016200123192919062002146565b50604051806020016040528060ff8016815250600f600b6012811062001280577f4e487b7100000000000000000000000000000000000000000000000000000000600052603260045260246000fd5b019060016200129192919062002146565b506040518060200160405280600060ff168152506021600b60128110620012e1577f4e487b7100000000000000000000000000000000000000000000000000000000600052603260045260246000fd5b01906001620012f292919062002146565b50604051806103600160405280608760ff16815260200160b160ff16815260200160db60ff168152602001608d60ff16815260200160b760ff16815260200160e160ff168152602001609360ff16815260200160bd60ff16815260200160e760ff168152602001608760ff168152602001608760ff168152602001608760ff168152602001608760ff16815260200160f660ff168152602001609660ff168152602001609660ff168152602001609c60ff16815260200160a560ff16815260200160ab60ff16815260200160b460ff16815260200160ba60ff16815260200160c360ff16815260200160c960ff16815260200160d260ff16815260200160f360ff16815260200160fc60ff16815260200160ff8016815250600f600c6012811062001446577f4e487b7100000000000000000000000000000000000000000000000000000000600052603260045260246000fd5b0190601b6200145792919062002350565b50604051806103600160405280600160ff168152602001600260ff168152602001600360ff168152602001600460ff168152602001600560ff168152602001600660ff168152602001600760ff168152602001600860ff168152602001600d60ff168152602001600360ff168152602001600660ff168152602001600e60ff168152602001600f60ff168152602001601060ff168152602001601060ff168152602001601160ff168152602001601260ff168152602001601360ff168152602001601460ff168152602001601560ff168152602001601660ff168152602001601760ff168152602001601860ff168152602001601960ff168152602001601a60ff168152602001601a60ff168152602001601a60ff168152506021600c60128110620015ac577f4e487b7100000000000000000000000000000000000000000000000000000000600052603260045260246000fd5b0190601b620015bd92919062002350565b50604051806020016040528060ff8016815250600f600d601281106200160c577f4e487b7100000000000000000000000000000000000000000000000000000000600052603260045260246000fd5b019060016200161d92919062002146565b506040518060200160405280600060ff168152506021600d601281106200166d577f4e487b7100000000000000000000000000000000000000000000000000000000600052603260045260246000fd5b019060016200167e92919062002146565b50604051806101a0016040528060ef60ff16815260200160f460ff16815260200160f960ff16815260200160ea60ff16815260200160ea60ff16815260200160ea60ff16815260200160ea60ff16815260200160ea60ff16815260200160ea60ff16815260200160ea60ff168152602001608260ff16815260200160ff8016815260200160f760ff16815250600f600e6012811062001746577f4e487b7100000000000000000000000000000000000000000000000000000000600052603260045260246000fd5b0190600d62001757929190620023fe565b50604051806101a00160405280600160ff168152602001600260ff168152602001600b60ff168152602001600060ff168152602001600b60ff168152602001600b60ff168152602001600b60ff168152602001600b60ff168152602001600b60ff168152602001600b60ff168152602001600b60ff168152602001600b60ff168152602001600b60ff168152506021600e6012811062001820577f4e487b7100000000000000000000000000000000000000000000000000000000600052603260045260246000fd5b0190600d62001831929190620023fe565b50604051806101e00160405280604b60ff16815260200160b460ff16815260200160a560ff168152602001607860ff168152602001603c60ff168152602001609660ff168152602001606960ff16815260200160c360ff168152602001602d60ff16815260200160e160ff168152602001604b60ff168152602001602d60ff16815260200160c360ff168152602001607860ff16815260200160ff8016815250600f80601281106200190c577f4e487b7100000000000000000000000000000000000000000000000000000000600052603260045260246000fd5b0190600f6200191d929190620024ac565b50604051806101e00160405280600160ff168152602001600960ff168152602001600060ff168152602001600060ff168152602001600060ff168152602001600060ff168152602001600060ff168152602001600060ff168152602001600060ff168152602001600c60ff168152602001600060ff168152602001600060ff168152602001600e60ff168152602001600c60ff168152602001600e60ff168152506021600f60128110620019fa577f4e487b7100000000000000000000000000000000000000000000000000000000600052603260045260246000fd5b0190600f62001a0b929190620024ac565b50604051806020016040528060ff8016815250600f60106012811062001a5a577f4e487b7100000000000000000000000000000000000000000000000000000000600052603260045260246000fd5b0190600162001a6b92919062002146565b506040518060200160405280600060ff16815250602160106012811062001abb577f4e487b7100000000000000000000000000000000000000000000000000000000600052603260045260246000fd5b0190600162001acc92919062002146565b506040518060800160405280600860ff16815260200160a060ff168152602001604960ff16815260200160ff8016815250600f60116012811062001b39577f4e487b7100000000000000000000000000000000000000000000000000000000600052603260045260246000fd5b0190600462001b4a9291906200255a565b506040518060800160405280600260ff168152602001600360ff168152602001600360ff168152602001600360ff16815250602160116012811062001bb8577f4e487b7100000000000000000000000000000000000000000000000000000000600052603260045260246000fd5b0190600462001bc99291906200255a565b5050505062002782565b600033905090565b6000600a60009054906101000a900473ffffffffffffffffffffffffffffffffffffffff16905081600a60006101000a81548173ffffffffffffffffffffffffffffffffffffffff021916908373ffffffffffffffffffffffffffffffffffffffff1602179055508173ffffffffffffffffffffffffffffffffffffffff168173ffffffffffffffffffffffffffffffffffffffff167f8be0079c531659141344cd1fd0a4f28419497f9722a3daafe3b4186f6b6457e060405160405180910390a35050565b82805462001caf90620026e9565b90600052602060002090601f01602090048101928262001cd3576000855562001d1f565b82601f1062001cee57805160ff191683800117855562001d1f565b8280016001018555821562001d1f579182015b8281111562001d1e57825182559160200191906001019062001d01565b5b50905062001d2e919062002608565b5090565b82805482825590600052602060002090601f0160209004810192821562001dcd5791602002820160005b8382111562001d9c57835183826101000a81548160ff021916908360ff160217905550926020019260010160208160000104928301926001030262001d5c565b801562001dcb5782816101000a81549060ff021916905560010160208160000104928301926001030262001d9c565b505b50905062001ddc919062002608565b5090565b82805482825590600052602060002090601f0160209004810192821562001e7b5791602002820160005b8382111562001e4a57835183826101000a81548160ff021916908360ff160217905550926020019260010160208160000104928301926001030262001e0a565b801562001e795782816101000a81549060ff021916905560010160208160000104928301926001030262001e4a565b505b50905062001e8a919062002608565b5090565b82805482825590600052602060002090601f0160209004810192821562001f295791602002820160005b8382111562001ef857835183826101000a81548160ff021916908360ff160217905550926020019260010160208160000104928301926001030262001eb8565b801562001f275782816101000a81549060ff021916905560010160208160000104928301926001030262001ef8565b505b50905062001f38919062002608565b5090565b82805482825590600052602060002090601f0160209004810192821562001fd75791602002820160005b8382111562001fa657835183826101000a81548160ff021916908360ff160217905550926020019260010160208160000104928301926001030262001f66565b801562001fd55782816101000a81549060ff021916905560010160208160000104928301926001030262001fa6565b505b50905062001fe6919062002608565b5090565b82805482825590600052602060002090601f01602090048101928215620020855791602002820160005b838211156200205457835183826101000a81548160ff021916908360ff160217905550926020019260010160208160000104928301926001030262002014565b8015620020835782816101000a81549060ff021916905560010160208160000104928301926001030262002054565b505b50905062002094919062002608565b5090565b82805482825590600052602060002090601f01602090048101928215620021335791602002820160005b838211156200210257835183826101000a81548160ff021916908360ff1602179055509260200192600101602081600001049283019260010302620020c2565b8015620021315782816101000a81549060ff021916905560010160208160000104928301926001030262002102565b505b50905062002142919062002608565b5090565b82805482825590600052602060002090601f01602090048101928215620021e15791602002820160005b83821115620021b057835183826101000a81548160ff021916908360ff160217905550926020019260010160208160000104928301926001030262002170565b8015620021df5782816101000a81549060ff0219169055600101602081600001049283019260010302620021b0565b505b509050620021f0919062002608565b5090565b82805482825590600052602060002090601f016020900481019282156200228f5791602002820160005b838211156200225e57835183826101000a81548160ff021916908360ff16021790555092602001926001016020816000010492830192600103026200221e565b80156200228d5782816101000a81549060ff02191690556001016020816000010492830192600103026200225e565b505b5090506200229e919062002608565b5090565b82805482825590600052602060002090601f016020900481019282156200233d5791602002820160005b838211156200230c57835183826101000a81548160ff021916908360ff1602179055509260200192600101602081600001049283019260010302620022cc565b80156200233b5782816101000a81549060ff02191690556001016020816000010492830192600103026200230c565b505b5090506200234c919062002608565b5090565b82805482825590600052602060002090601f01602090048101928215620023eb5791602002820160005b83821115620023ba57835183826101000a81548160ff021916908360ff16021790555092602001926001016020816000010492830192600103026200237a565b8015620023e95782816101000a81549060ff0219169055600101602081600001049283019260010302620023ba565b505b509050620023fa919062002608565b5090565b82805482825590600052602060002090601f01602090048101928215620024995791602002820160005b838211156200246857835183826101000a81548160ff021916908360ff160217905550926020019260010160208160000104928301926001030262002428565b8015620024975782816101000a81549060ff021916905560010160208160000104928301926001030262002468565b505b509050620024a8919062002608565b5090565b82805482825590600052602060002090601f01602090048101928215620025475791602002820160005b838211156200251657835183826101000a81548160ff021916908360ff1602179055509260200192600101602081600001049283019260010302620024d6565b8015620025455782816101000a81549060ff021916905560010160208160000104928301926001030262002516565b505b50905062002556919062002608565b5090565b82805482825590600052602060002090601f01602090048101928215620025f55791602002820160005b83821115620025c457835183826101000a81548160ff021916908360ff160217905550926020019260010160208160000104928301926001030262002584565b8015620025f35782816101000a81549060ff0219169055600101602081600001049283019260010302620025c4565b505b50905062002604919062002608565b5090565b5b808211156200262357600081600090555060010162002609565b5090565b60008151905062002638816200274e565b92915050565b6000815190506200264f8162002768565b92915050565b6000806000606084860312156200266b57600080fd5b60006200267b8682870162002627565b93505060206200268e8682870162002627565b9250506040620026a1868287016200263e565b9150509250925092565b6000620026b882620026bf565b9050919050565b600073ffffffffffffffffffffffffffffffffffffffff82169050919050565b6000819050919050565b600060028204905060018216806200270257607f821691505b602082108114156200271957620027186200271f565b5b50919050565b7f4e487b7100000000000000000000000000000000000000000000000000000000600052602260045260246000fd5b6200275981620026ab565b81146200276557600080fd5b50565b6200277381620026df565b81146200277f57600080fd5b50565b608051615b13620027b360003960008181610e3a01528181610e8b015281816114dd01526122f30152615b136000f3fe60806040526004361061023b5760003560e01c80635c975abb1161012e578063a22cb465116100ab578063e05c57bf1161006f578063e05c57bf146108c4578063e1fc334f1461090a578063e985e9c514610935578063f2fde38b14610972578063f47c84c51461099b5761023b565b8063a22cb465146107df578063b88d4fde14610808578063c002d23d14610831578063c084f5401461085c578063c87b56dd146108875761023b565b806372b94bbb116100f257806372b94bbb146106e6578063839e230d1461070f5780638da5cb5b1461074c57806394e568471461077757806395d89b41146107b45761023b565b80635c975abb1461060e5780636352211e1461063957806367f68fac1461067657806370a0823114610692578063715018a6146106cf5761023b565b80632f745c59116101bc5780634018b1f8116101805780634018b1f81461051557806342842e0e146105405780634debc578146105695780634f02c420146105a65780634f6ccce7146105d15761023b565b80632f745c591461041e57806333df4b2c1461045b5780633431a7531461049857806336838391146104c15780633ccfd60b146104fe5761023b565b806316c38b3c1161020357806316c38b3c1461033957806318160ddd14610362578063194f480e1461038d57806323b872dd146103b857806327de8f27146103e15761023b565b806301ffc9a71461024057806306fdde031461027d578063081812fc146102a8578063095ea7b3146102e55780630e3577381461030e575b600080fd5b34801561024c57600080fd5b5061026760048036038101906102629190614071565b6109c6565b6040516102749190614fa6565b60405180910390f35b34801561028957600080fd5b50610292610a40565b60405161029f91906150ae565b60405180910390f35b3480156102b457600080fd5b506102cf60048036038101906102ca9190614145565b610ad2565b6040516102dc9190614ec4565b60405180910390f35b3480156102f157600080fd5b5061030c6004803603810190610307919061400c565b610b57565b005b34801561031a57600080fd5b50610323610c6f565b6040516103309190615093565b60405180910390f35b34801561034557600080fd5b50610360600480360381019061035b9190614048565b610c95565b005b34801561036e57600080fd5b50610377610d30565b6040516103849190615427565b60405180910390f35b34801561039957600080fd5b506103a2610d3d565b6040516103af919061505d565b60405180910390f35b3480156103c457600080fd5b506103df60048036038101906103da9190613f06565b610d63565b005b3480156103ed57600080fd5b5061040860048036038101906104039190614145565b610e20565b6040516104159190615427565b60405180910390f35b34801561042a57600080fd5b506104456004803603810190610440919061400c565b610ee9565b6040516104529190615427565b60405180910390f35b34801561046757600080fd5b50610482600480360381019061047d91906141aa565b610f8e565b60405161048f9190615442565b60405180910390f35b3480156104a457600080fd5b506104bf60048036038101906104ba9190614145565b610fd4565b005b3480156104cd57600080fd5b506104e860048036038101906104e391906141aa565b61105a565b6040516104f59190615442565b60405180910390f35b34801561050a57600080fd5b506105136110a0565b005b34801561052157600080fd5b5061052a61116c565b6040516105379190615427565b60405180910390f35b34801561054c57600080fd5b5061056760048036038101906105629190613f06565b611176565b005b34801561057557600080fd5b50610590600480360381019061058b91906140c3565b611196565b60405161059d9190614f84565b60405180910390f35b3480156105b257600080fd5b506105bb6112aa565b6040516105c8919061540c565b60405180910390f35b3480156105dd57600080fd5b506105f860048036038101906105f39190614145565b6112be565b6040516106059190615427565b60405180910390f35b34801561061a57600080fd5b50610623611355565b6040516106309190614fa6565b60405180910390f35b34801561064557600080fd5b50610660600480360381019061065b9190614145565b61136c565b60405161066d9190614ec4565b60405180910390f35b610690600480360381019061068b919061416e565b61141e565b005b34801561069e57600080fd5b506106b960048036038101906106b49190613e78565b611aa7565b6040516106c69190615427565b60405180910390f35b3480156106db57600080fd5b506106e4611b5f565b005b3480156106f257600080fd5b5061070d60048036038101906107089190613e78565b611be7565b005b34801561071b57600080fd5b50610736600480360381019061073191906140c3565b611ca7565b6040516107439190615427565b60405180910390f35b34801561075857600080fd5b50610761611cd5565b60405161076e9190614ec4565b60405180910390f35b34801561078357600080fd5b5061079e60048036038101906107999190614145565b611cff565b6040516107ab91906153f0565b60405180910390f35b3480156107c057600080fd5b506107c9611e4d565b6040516107d691906150ae565b60405180910390f35b3480156107eb57600080fd5b5061080660048036038101906108019190613fd0565b611edf565b005b34801561081457600080fd5b5061082f600480360381019061082a9190613f55565b611ef5565b005b34801561083d57600080fd5b50610846611f57565b6040516108539190615427565b60405180910390f35b34801561086857600080fd5b50610871611f62565b60405161087e9190615427565b60405180910390f35b34801561089357600080fd5b506108ae60048036038101906108a99190614145565b611f68565b6040516108bb91906150ae565b60405180910390f35b3480156108d057600080fd5b506108eb60048036038101906108e69190614145565b612069565b6040516109019a99989796959493929190614fc1565b60405180910390f35b34801561091657600080fd5b5061091f61213f565b60405161092c9190615078565b60405180910390f35b34801561094157600080fd5b5061095c60048036038101906109579190613eca565b612165565b6040516109699190614fa6565b60405180910390f35b34801561097e57600080fd5b5061099960048036038101906109949190613e78565b6121f9565b005b3480156109a757600080fd5b506109b06122f1565b6040516109bd9190615427565b60405180910390f35b60007f780e9d63000000000000000000000000000000000000000000000000000000007bffffffffffffffffffffffffffffffffffffffffffffffffffffffff1916827bffffffffffffffffffffffffffffffffffffffffffffffffffffffff19161480610a395750610a3882612315565b5b9050919050565b606060008054610a4f90615836565b80601f0160208091040260200160405190810160405280929190818152602001828054610a7b90615836565b8015610ac85780601f10610a9d57610100808354040283529160200191610ac8565b820191906000526020600020905b815481529060010190602001808311610aab57829003601f168201915b5050505050905090565b6000610add826123f7565b610b1c576040517f08c379a0000000000000000000000000000000000000000000000000000000008152600401610b13906152f0565b60405180910390fd5b6004600083815260200190815260200160002060009054906101000a900473ffffffffffffffffffffffffffffffffffffffff169050919050565b6000610b628261136c565b90508073ffffffffffffffffffffffffffffffffffffffff168373ffffffffffffffffffffffffffffffffffffffff161415610bd3576040517f08c379a0000000000000000000000000000000000000000000000000000000008152600401610bca90615370565b60405180910390fd5b8073ffffffffffffffffffffffffffffffffffffffff16610bf2612463565b73ffffffffffffffffffffffffffffffffffffffff161480610c215750610c2081610c1b612463565b612165565b5b610c60576040517f08c379a0000000000000000000000000000000000000000000000000000000008152600401610c5790615270565b60405180910390fd5b610c6a838361246b565b505050565b603460009054906101000a900473ffffffffffffffffffffffffffffffffffffffff1681565b610c9d612463565b73ffffffffffffffffffffffffffffffffffffffff16610cbb611cd5565b73ffffffffffffffffffffffffffffffffffffffff1614610d11576040517f08c379a0000000000000000000000000000000000000000000000000000000008152600401610d0890615310565b60405180910390fd5b8015610d2457610d1f612524565b610d2d565b610d2c6125c7565b5b50565b6000600880549050905090565b603360009054906101000a900473ffffffffffffffffffffffffffffffffffffffff1681565b603360009054906101000a900473ffffffffffffffffffffffffffffffffffffffff1673ffffffffffffffffffffffffffffffffffffffff16610da4612463565b73ffffffffffffffffffffffffffffffffffffffff1614610e1057610dd0610dca612463565b82612669565b610e0f576040517f08c379a0000000000000000000000000000000000000000000000000000000008152600401610e0690615390565b60405180910390fd5b5b610e1b838383612747565b505050565b6000600b548211610e345760009050610ee4565b600560027f0000000000000000000000000000000000000000000000000000000000000000610e639190615661565b610e6d9190615630565b8211610e855769043c33c19375648000009050610ee4565b600560047f0000000000000000000000000000000000000000000000000000000000000000610eb49190615661565b610ebe9190615630565b8211610ed657690878678326eac90000009050610ee4565b6910f0cf064dd59200000090505b919050565b6000610ef483611aa7565b8210610f35576040517f08c379a0000000000000000000000000000000000000000000000000000000008152600401610f2c906150f0565b60405180910390fd5b600660008473ffffffffffffffffffffffffffffffffffffffff1673ffffffffffffffffffffffffffffffffffffffff168152602001908152602001600020600083815260200190815260200160002054905092915050565b600f8260128110610f9e57600080fd5b018181548110610fad57600080fd5b9060005260206000209060209182820401919006915091509054906101000a900460ff1681565b610fdc612463565b73ffffffffffffffffffffffffffffffffffffffff16610ffa611cd5565b73ffffffffffffffffffffffffffffffffffffffff1614611050576040517f08c379a000000000000000000000000000000000000000000000000000000000815260040161104790615310565b60405180910390fd5b80600b8190555050565b6021826012811061106a57600080fd5b01818154811061107957600080fd5b9060005260206000209060209182820401919006915091509054906101000a900460ff1681565b6110a8612463565b73ffffffffffffffffffffffffffffffffffffffff166110c6611cd5565b73ffffffffffffffffffffffffffffffffffffffff161461111c576040517f08c379a000000000000000000000000000000000000000000000000000000000815260040161111390615310565b60405180910390fd5b611124611cd5565b73ffffffffffffffffffffffffffffffffffffffff166108fc479081150290604051600060405180830381858888f19350505050158015611169573d6000803e3d6000fd5b50565b6000600b54905090565b61119183838360405180602001604052806000815250611ef5565b505050565b60606000602083516111a89190615630565b905060008167ffffffffffffffff8111156111ec577f4e487b7100000000000000000000000000000000000000000000000000000000600052604160045260246000fd5b60405190808252806020026020018201604052801561121a5781602001602082028036833780820191505090505b509050600080602090505b8551811161129e5760008187015190508084848151811061126f577f4e487b7100000000000000000000000000000000000000000000000000000000600052603260045260246000fd5b602002602001018181525050828061128690615893565b9350505060208161129791906155a3565b9050611225565b50819350505050919050565b600c60009054906101000a900461ffff1681565b60006112c8610d30565b8210611309576040517f08c379a0000000000000000000000000000000000000000000000000000000008152600401611300906153d0565b60405180910390fd5b60088281548110611343577f4e487b7100000000000000000000000000000000000000000000000000000000600052603260045260246000fd5b90600052602060002001549050919050565b6000600a60149054906101000a900460ff16905090565b6000806002600084815260200190815260200160002060009054906101000a900473ffffffffffffffffffffffffffffffffffffffff169050600073ffffffffffffffffffffffffffffffffffffffff168173ffffffffffffffffffffffffffffffffffffffff161415611415576040517f08c379a000000000000000000000000000000000000000000000000000000000815260040161140c906152b0565b60405180910390fd5b80915050919050565b611426611355565b15611466576040517f08c379a000000000000000000000000000000000000000000000000000000000815260040161145d90615250565b60405180910390fd5b61146e612463565b73ffffffffffffffffffffffffffffffffffffffff163273ffffffffffffffffffffffffffffffffffffffff16146114db576040517f08c379a00000000000000000000000000000000000000000000000000000000081526004016114d2906151b0565b60405180910390fd5b7f000000000000000000000000000000000000000000000000000000000000000082600c60009054906101000a900461ffff1661ffff1661151c91906155a3565b111561155d576040517f08c379a000000000000000000000000000000000000000000000000000000000815260040161155490615150565b60405180910390fd5b60008211801561156e5750600a8211155b6115ad576040517f08c379a00000000000000000000000000000000000000000000000000000000081526004016115a4906153b0565b60405180910390fd5b600b54600c60009054906101000a900461ffff1661ffff16101561168857600b5482600c60009054906101000a900461ffff1661ffff166115ee91906155a3565b111561162f576040517f08c379a000000000000000000000000000000000000000000000000000000000815260040161162690615230565b60405180910390fd5b3466f8b0a10e470000836116439190615661565b14611683576040517f08c379a000000000000000000000000000000000000000000000000000000000815260040161167a90615190565b60405180910390fd5b611696565b6000341461169557600080fd5b5b6000808261171357600067ffffffffffffffff8111156116df577f4e487b7100000000000000000000000000000000000000000000000000000000600052604160045260246000fd5b60405190808252806020026020018201604052801561170d5781602001602082028036833780820191505090505b50611783565b8367ffffffffffffffff811115611753577f4e487b7100000000000000000000000000000000000000000000000000000000600052604160045260246000fd5b6040519080825280602002602001820160405280156117815781602001602082028036833780820191505090505b505b9050600080600090505b8581101561196257600c600081819054906101000a900461ffff16809291906117b590615868565b91906101000a81548161ffff021916908361ffff160217905550506117ed600c60009054906101000a900461ffff1661ffff166129a3565b915061180d600c60009054906101000a900461ffff1661ffff16836129e9565b50600061181983612bd8565b905085158061185b575061182b612463565b73ffffffffffffffffffffffffffffffffffffffff168173ffffffffffffffffffffffffffffffffffffffff1614155b156118835761187e81600c60009054906101000a900461ffff1661ffff16612d26565b611924565b6118c3603360009054906101000a900473ffffffffffffffffffffffffffffffffffffffff16600c60009054906101000a900461ffff1661ffff16612d26565b600c60009054906101000a900461ffff1684838151811061190d577f4e487b7100000000000000000000000000000000000000000000000000000000600052603260045260246000fd5b602002602001019061ffff16908161ffff16815250505b611941600c60009054906101000a900461ffff1661ffff16610e20565b8561194c91906155a3565b945050808061195a90615893565b91505061178d565b506000831115611a0357603460009054906101000a900473ffffffffffffffffffffffffffffffffffffffff1673ffffffffffffffffffffffffffffffffffffffff16639dc29fac6119b2612463565b856040518363ffffffff1660e01b81526004016119d0929190614f5b565b600060405180830381600087803b1580156119ea57600080fd5b505af11580156119fe573d6000803e3d6000fd5b505050505b8315611aa057603360009054906101000a900473ffffffffffffffffffffffffffffffffffffffff1673ffffffffffffffffffffffffffffffffffffffff166381d449c1611a4f612463565b846040518363ffffffff1660e01b8152600401611a6d929190614f2b565b600060405180830381600087803b158015611a8757600080fd5b505af1158015611a9b573d6000803e3d6000fd5b505050505b5050505050565b60008073ffffffffffffffffffffffffffffffffffffffff168273ffffffffffffffffffffffffffffffffffffffff161415611b18576040517f08c379a0000000000000000000000000000000000000000000000000000000008152600401611b0f90615290565b60405180910390fd5b600360008373ffffffffffffffffffffffffffffffffffffffff1673ffffffffffffffffffffffffffffffffffffffff168152602001908152602001600020549050919050565b611b67612463565b73ffffffffffffffffffffffffffffffffffffffff16611b85611cd5565b73ffffffffffffffffffffffffffffffffffffffff1614611bdb576040517f08c379a0000000000000000000000000000000000000000000000000000000008152600401611bd290615310565b60405180910390fd5b611be56000612d44565b565b611bef612463565b73ffffffffffffffffffffffffffffffffffffffff16611c0d611cd5565b73ffffffffffffffffffffffffffffffffffffffff1614611c63576040517f08c379a0000000000000000000000000000000000000000000000000000000008152600401611c5a90615310565b60405180910390fd5b80603360006101000a81548173ffffffffffffffffffffffffffffffffffffffff021916908373ffffffffffffffffffffffffffffffffffffffff16021790555050565b600e818051602081018201805184825260208301602085012081835280955050505050506000915090505481565b6000600a60009054906101000a900473ffffffffffffffffffffffffffffffffffffffff16905090565b611d07613cba565b600d6000838152602001908152602001600020604051806101400160405290816000820160009054906101000a900460ff161515151581526020016000820160019054906101000a900460ff1660ff1660ff1681526020016000820160029054906101000a900460ff1660ff1660ff1681526020016000820160039054906101000a900460ff1660ff1660ff1681526020016000820160049054906101000a900460ff1660ff1660ff1681526020016000820160059054906101000a900460ff1660ff1660ff1681526020016000820160069054906101000a900460ff1660ff1660ff1681526020016000820160079054906101000a900460ff1660ff1660ff1681526020016000820160089054906101000a900460ff1660ff1660ff1681526020016000820160099054906101000a900460ff1660ff1660ff16815250509050919050565b606060018054611e5c90615836565b80601f0160208091040260200160405190810160405280929190818152602001828054611e8890615836565b8015611ed55780601f10611eaa57610100808354040283529160200191611ed5565b820191906000526020600020905b815481529060010190602001808311611eb857829003601f168201915b5050505050905090565b611ef1611eea612463565b8383612e0a565b5050565b611f06611f00612463565b83612669565b611f45576040517f08c379a0000000000000000000000000000000000000000000000000000000008152600401611f3c90615390565b60405180910390fd5b611f5184848484612f77565b50505050565b66f8b0a10e47000081565b600b5481565b6060611f73826123f7565b611fb2576040517f08c379a0000000000000000000000000000000000000000000000000000000008152600401611fa990615350565b60405180910390fd5b603560009054906101000a900473ffffffffffffffffffffffffffffffffffffffff1673ffffffffffffffffffffffffffffffffffffffff1663c87b56dd836040518263ffffffff1660e01b815260040161200d9190615427565b60006040518083038186803b15801561202557600080fd5b505afa158015612039573d6000803e3d6000fd5b505050506040513d6000823e3d601f19601f820116820180604052508101906120629190614104565b9050919050565b600d6020528060005260406000206000915090508060000160009054906101000a900460ff16908060000160019054906101000a900460ff16908060000160029054906101000a900460ff16908060000160039054906101000a900460ff16908060000160049054906101000a900460ff16908060000160059054906101000a900460ff16908060000160069054906101000a900460ff16908060000160079054906101000a900460ff16908060000160089054906101000a900460ff16908060000160099054906101000a900460ff1690508a565b603560009054906101000a900473ffffffffffffffffffffffffffffffffffffffff1681565b6000600560008473ffffffffffffffffffffffffffffffffffffffff1673ffffffffffffffffffffffffffffffffffffffff16815260200190815260200160002060008373ffffffffffffffffffffffffffffffffffffffff1673ffffffffffffffffffffffffffffffffffffffff16815260200190815260200160002060009054906101000a900460ff16905092915050565b612201612463565b73ffffffffffffffffffffffffffffffffffffffff1661221f611cd5565b73ffffffffffffffffffffffffffffffffffffffff1614612275576040517f08c379a000000000000000000000000000000000000000000000000000000000815260040161226c90615310565b60405180910390fd5b600073ffffffffffffffffffffffffffffffffffffffff168173ffffffffffffffffffffffffffffffffffffffff1614156122e5576040517f08c379a00000000000000000000000000000000000000000000000000000000081526004016122dc90615130565b60405180910390fd5b6122ee81612d44565b50565b7f000000000000000000000000000000000000000000000000000000000000000081565b60007f80ac58cd000000000000000000000000000000000000000000000000000000007bffffffffffffffffffffffffffffffffffffffffffffffffffffffff1916827bffffffffffffffffffffffffffffffffffffffffffffffffffffffff191614806123e057507f5b5e139f000000000000000000000000000000000000000000000000000000007bffffffffffffffffffffffffffffffffffffffffffffffffffffffff1916827bffffffffffffffffffffffffffffffffffffffffffffffffffffffff1916145b806123f057506123ef82612fd3565b5b9050919050565b60008073ffffffffffffffffffffffffffffffffffffffff166002600084815260200190815260200160002060009054906101000a900473ffffffffffffffffffffffffffffffffffffffff1673ffffffffffffffffffffffffffffffffffffffff1614159050919050565b600033905090565b816004600083815260200190815260200160002060006101000a81548173ffffffffffffffffffffffffffffffffffffffff021916908373ffffffffffffffffffffffffffffffffffffffff160217905550808273ffffffffffffffffffffffffffffffffffffffff166124de8361136c565b73ffffffffffffffffffffffffffffffffffffffff167f8c5be1e5ebec7d5bd14f71427d1e84f3dd0314c0f7b2291e5b200ac8c7c3b92560405160405180910390a45050565b61252c611355565b1561256c576040517f08c379a000000000000000000000000000000000000000000000000000000000815260040161256390615250565b60405180910390fd5b6001600a60146101000a81548160ff0219169083151502179055507f62e78cea01bee320cd4e420270b5ea74000d11b0c9f74754ebdbfc544b05a2586125b0612463565b6040516125bd9190614ec4565b60405180910390a1565b6125cf611355565b61260e576040517f08c379a0000000000000000000000000000000000000000000000000000000008152600401612605906150d0565b60405180910390fd5b6000600a60146101000a81548160ff0219169083151502179055507f5db9ee0a495bf2e6ff9c91a7834c1ba4fdd244a5e8aa4e537bd38aeae4b073aa612652612463565b60405161265f9190614ec4565b60405180910390a1565b6000612674826123f7565b6126b3576040517f08c379a00000000000000000000000000000000000000000000000000000000081526004016126aa90615210565b60405180910390fd5b60006126be8361136c565b90508073ffffffffffffffffffffffffffffffffffffffff168473ffffffffffffffffffffffffffffffffffffffff16148061272d57508373ffffffffffffffffffffffffffffffffffffffff1661271584610ad2565b73ffffffffffffffffffffffffffffffffffffffff16145b8061273e575061273d8185612165565b5b91505092915050565b8273ffffffffffffffffffffffffffffffffffffffff166127678261136c565b73ffffffffffffffffffffffffffffffffffffffff16146127bd576040517f08c379a00000000000000000000000000000000000000000000000000000000081526004016127b490615330565b60405180910390fd5b600073ffffffffffffffffffffffffffffffffffffffff168273ffffffffffffffffffffffffffffffffffffffff16141561282d576040517f08c379a0000000000000000000000000000000000000000000000000000000008152600401612824906151d0565b60405180910390fd5b61283883838361303d565b61284360008261246b565b6001600360008573ffffffffffffffffffffffffffffffffffffffff1673ffffffffffffffffffffffffffffffffffffffff168152602001908152602001600020600082825461289391906156bb565b925050819055506001600360008473ffffffffffffffffffffffffffffffffffffffff1673ffffffffffffffffffffffffffffffffffffffff16815260200190815260200160002060008282546128ea91906155a3565b92505081905550816002600083815260200190815260200160002060006101000a81548173ffffffffffffffffffffffffffffffffffffffff021916908373ffffffffffffffffffffffffffffffffffffffff160217905550808273ffffffffffffffffffffffffffffffffffffffff168473ffffffffffffffffffffffffffffffffffffffff167fddf252ad1be2c89b69c2b068fc378daa952ba7f163c4a11628f55a4df523b3ef60405160405180910390a4505050565b6000326001436129b391906156bb565b4042846040516020016129c99493929190614dbc565b6040516020818303038152906040528051906020012060001c9050919050565b6129f1613cba565b6129fa82613151565b90506000600e612a098361335e565b604051612a169190614ead565b9081526020016040518091039020541415612bbd5780600d600085815260200190815260200160002060008201518160000160006101000a81548160ff02191690831515021790555060208201518160000160016101000a81548160ff021916908360ff16021790555060408201518160000160026101000a81548160ff021916908360ff16021790555060608201518160000160036101000a81548160ff021916908360ff16021790555060808201518160000160046101000a81548160ff021916908360ff16021790555060a08201518160000160056101000a81548160ff021916908360ff16021790555060c08201518160000160066101000a81548160ff021916908360ff16021790555060e08201518160000160076101000a81548160ff021916908360ff1602179055506101008201518160000160086101000a81548160ff021916908360ff1602179055506101208201518160000160096101000a81548160ff021916908360ff16021790555090505082600e612b998361335e565b604051612ba69190614ead565b908152602001604051809103902081905550612bd2565b612bcf83612bca846129a3565b6129e9565b90505b92915050565b6000600b54600c60009054906101000a900461ffff1661ffff16111580612c1057506000600a60f584901c612c0d9190615938565b14155b15612c2457612c1d612463565b9050612d21565b6000603360009054906101000a900473ffffffffffffffffffffffffffffffffffffffff1673ffffffffffffffffffffffffffffffffffffffff16633c989e6a609085901c6040518263ffffffff1660e01b8152600401612c859190615427565b60206040518083038186803b158015612c9d57600080fd5b505afa158015612cb1573d6000803e3d6000fd5b505050506040513d601f19601f82011682018060405250810190612cd59190613ea1565b9050600073ffffffffffffffffffffffffffffffffffffffff168173ffffffffffffffffffffffffffffffffffffffff161415612d1c57612d14612463565b915050612d21565b809150505b919050565b612d408282604051806020016040528060008152506133bd565b5050565b6000600a60009054906101000a900473ffffffffffffffffffffffffffffffffffffffff16905081600a60006101000a81548173ffffffffffffffffffffffffffffffffffffffff021916908373ffffffffffffffffffffffffffffffffffffffff1602179055508173ffffffffffffffffffffffffffffffffffffffff168173ffffffffffffffffffffffffffffffffffffffff167f8be0079c531659141344cd1fd0a4f28419497f9722a3daafe3b4186f6b6457e060405160405180910390a35050565b8173ffffffffffffffffffffffffffffffffffffffff168373ffffffffffffffffffffffffffffffffffffffff161415612e79576040517f08c379a0000000000000000000000000000000000000000000000000000000008152600401612e70906151f0565b60405180910390fd5b80600560008573ffffffffffffffffffffffffffffffffffffffff1673ffffffffffffffffffffffffffffffffffffffff16815260200190815260200160002060008473ffffffffffffffffffffffffffffffffffffffff1673ffffffffffffffffffffffffffffffffffffffff16815260200190815260200160002060006101000a81548160ff0219169083151502179055508173ffffffffffffffffffffffffffffffffffffffff168373ffffffffffffffffffffffffffffffffffffffff167f17307eab39ab6107e8899845ad3d59bd9653f200f220920489ca2b5937696c3183604051612f6a9190614fa6565b60405180910390a3505050565b612f82848484612747565b612f8e84848484613418565b612fcd576040517f08c379a0000000000000000000000000000000000000000000000000000000008152600401612fc490615110565b60405180910390fd5b50505050565b60007f01ffc9a7000000000000000000000000000000000000000000000000000000007bffffffffffffffffffffffffffffffffffffffffffffffffffffffff1916827bffffffffffffffffffffffffffffffffffffffffffffffffffffffff1916149050919050565b6130488383836135af565b600073ffffffffffffffffffffffffffffffffffffffff168373ffffffffffffffffffffffffffffffffffffffff16141561308b57613086816135b4565b6130ca565b8173ffffffffffffffffffffffffffffffffffffffff168373ffffffffffffffffffffffffffffffffffffffff16146130c9576130c883826135fd565b5b5b600073ffffffffffffffffffffffffffffffffffffffff168273ffffffffffffffffffffffffffffffffffffffff16141561310d576131088161376a565b61314c565b8273ffffffffffffffffffffffffffffffffffffffff168273ffffffffffffffffffffffffffffffffffffffff161461314b5761314a82826138ad565b5b5b505050565b613159613cba565b6000600a61ffff841661316c9190615938565b14158160000190151590811515815250506000816000015161318f576009613192565b60005b9050601083901c92506131b561ffff84168260006131b091906155f9565b61392c565b826020019060ff16908160ff1681525050601083901c92506131e761ffff84168260016131e291906155f9565b61392c565b826040019060ff16908160ff1681525050601083901c925061321961ffff841682600261321491906155f9565b61392c565b826060019060ff16908160ff1681525050601083901c925061324b61ffff841682600361324691906155f9565b61392c565b826080019060ff16908160ff1681525050601083901c925061327d61ffff841682600461327891906155f9565b61392c565b8260a0019060ff16908160ff1681525050601083901c92506132af61ffff84168260056132aa91906155f9565b61392c565b8260c0019060ff16908160ff1681525050601083901c92506132e161ffff84168260066132dc91906155f9565b61392c565b82610100019060ff16908160ff1681525050601083901c925061331461ffff841682600761330f91906155f9565b61392c565b8260e0019060ff16908160ff1681525050601083901c925061334661ffff841682600861334191906155f9565b61392c565b82610120019060ff16908160ff168152505050919050565b606081600001518260200151836040015184608001518560c0015186610100015187606001518860e001518961012001516040516020016133a799989796959493929190614e0a565b6040516020818303038152906040529050919050565b6133c78383613ad9565b6133d46000848484613418565b613413576040517f08c379a000000000000000000000000000000000000000000000000000000000815260040161340a90615110565b60405180910390fd5b505050565b60006134398473ffffffffffffffffffffffffffffffffffffffff16613ca7565b156135a2578373ffffffffffffffffffffffffffffffffffffffff1663150b7a02613462612463565b8786866040518563ffffffff1660e01b81526004016134849493929190614edf565b602060405180830381600087803b15801561349e57600080fd5b505af19250505080156134cf57506040513d601f19601f820116820180604052508101906134cc919061409a565b60015b613552573d80600081146134ff576040519150601f19603f3d011682016040523d82523d6000602084013e613504565b606091505b5060008151141561354a576040517f08c379a000000000000000000000000000000000000000000000000000000000815260040161354190615110565b60405180910390fd5b805181602001fd5b63150b7a0260e01b7bffffffffffffffffffffffffffffffffffffffffffffffffffffffff1916817bffffffffffffffffffffffffffffffffffffffffffffffffffffffff1916149150506135a7565b600190505b949350505050565b505050565b6008805490506009600083815260200190815260200160002081905550600881908060018154018082558091505060019003906000526020600020016000909190919091505550565b6000600161360a84611aa7565b61361491906156bb565b90506000600760008481526020019081526020016000205490508181146136f9576000600660008673ffffffffffffffffffffffffffffffffffffffff1673ffffffffffffffffffffffffffffffffffffffff168152602001908152602001600020600084815260200190815260200160002054905080600660008773ffffffffffffffffffffffffffffffffffffffff1673ffffffffffffffffffffffffffffffffffffffff168152602001908152602001600020600084815260200190815260200160002081905550816007600083815260200190815260200160002081905550505b6007600084815260200190815260200160002060009055600660008573ffffffffffffffffffffffffffffffffffffffff1673ffffffffffffffffffffffffffffffffffffffff16815260200190815260200160002060008381526020019081526020016000206000905550505050565b6000600160088054905061377e91906156bb565b90506000600960008481526020019081526020016000205490506000600883815481106137d4577f4e487b7100000000000000000000000000000000000000000000000000000000600052603260045260246000fd5b90600052602060002001549050806008838154811061381c577f4e487b7100000000000000000000000000000000000000000000000000000000600052603260045260246000fd5b906000526020600020018190555081600960008381526020019081526020016000208190555060096000858152602001908152602001600020600090556008805480613891577f4e487b7100000000000000000000000000000000000000000000000000000000600052603160045260246000fd5b6001900381819060005260206000200160009055905550505050565b60006138b883611aa7565b905081600660008573ffffffffffffffffffffffffffffffffffffffff1673ffffffffffffffffffffffffffffffffffffffff168152602001908152602001600020600083815260200190815260200160002081905550806007600084815260200190815260200160002081905550505050565b600080600f8360ff166012811061396c577f4e487b7100000000000000000000000000000000000000000000000000000000600052603260045260246000fd5b01805490508461397c9190615969565b9050600f8360ff16601281106139bb577f4e487b7100000000000000000000000000000000000000000000000000000000600052603260045260246000fd5b018160ff16815481106139f7577f4e487b7100000000000000000000000000000000000000000000000000000000600052603260045260246000fd5b90600052602060002090602091828204019190069054906101000a900460ff1660ff1660088561ffff16901c61ffff161015613a365780915050613ad3565b60218360ff1660128110613a73577f4e487b7100000000000000000000000000000000000000000000000000000000600052603260045260246000fd5b018160ff1681548110613aaf577f4e487b7100000000000000000000000000000000000000000000000000000000600052603260045260246000fd5b90600052602060002090602091828204019190069054906101000a900460ff169150505b92915050565b600073ffffffffffffffffffffffffffffffffffffffff168273ffffffffffffffffffffffffffffffffffffffff161415613b49576040517f08c379a0000000000000000000000000000000000000000000000000000000008152600401613b40906152d0565b60405180910390fd5b613b52816123f7565b15613b92576040517f08c379a0000000000000000000000000000000000000000000000000000000008152600401613b8990615170565b60405180910390fd5b613b9e6000838361303d565b6001600360008473ffffffffffffffffffffffffffffffffffffffff1673ffffffffffffffffffffffffffffffffffffffff1681526020019081526020016000206000828254613bee91906155a3565b92505081905550816002600083815260200190815260200160002060006101000a81548173ffffffffffffffffffffffffffffffffffffffff021916908373ffffffffffffffffffffffffffffffffffffffff160217905550808273ffffffffffffffffffffffffffffffffffffffff16600073ffffffffffffffffffffffffffffffffffffffff167fddf252ad1be2c89b69c2b068fc378daa952ba7f163c4a11628f55a4df523b3ef60405160405180910390a45050565b600080823b905060008111915050919050565b604051806101400160405280600015158152602001600060ff168152602001600060ff168152602001600060ff168152602001600060ff168152602001600060ff168152602001600060ff168152602001600060ff168152602001600060ff168152602001600060ff1681525090565b6000613d3d613d388461548e565b61545d565b905082815260208101848484011115613d5557600080fd5b613d608482856157f4565b509392505050565b6000613d7b613d76846154be565b61545d565b905082815260208101848484011115613d9357600080fd5b613d9e848285615803565b509392505050565b600081359050613db581615a81565b92915050565b600081519050613dca81615a81565b92915050565b600081359050613ddf81615a98565b92915050565b600081359050613df481615aaf565b92915050565b600081519050613e0981615aaf565b92915050565b600082601f830112613e2057600080fd5b8135613e30848260208601613d2a565b91505092915050565b600082601f830112613e4a57600080fd5b8151613e5a848260208601613d68565b91505092915050565b600081359050613e7281615ac6565b92915050565b600060208284031215613e8a57600080fd5b6000613e9884828501613da6565b91505092915050565b600060208284031215613eb357600080fd5b6000613ec184828501613dbb565b91505092915050565b60008060408385031215613edd57600080fd5b6000613eeb85828601613da6565b9250506020613efc85828601613da6565b9150509250929050565b600080600060608486031215613f1b57600080fd5b6000613f2986828701613da6565b9350506020613f3a86828701613da6565b9250506040613f4b86828701613e63565b9150509250925092565b60008060008060808587031215613f6b57600080fd5b6000613f7987828801613da6565b9450506020613f8a87828801613da6565b9350506040613f9b87828801613e63565b925050606085013567ffffffffffffffff811115613fb857600080fd5b613fc487828801613e0f565b91505092959194509250565b60008060408385031215613fe357600080fd5b6000613ff185828601613da6565b925050602061400285828601613dd0565b9150509250929050565b6000806040838503121561401f57600080fd5b600061402d85828601613da6565b925050602061403e85828601613e63565b9150509250929050565b60006020828403121561405a57600080fd5b600061406884828501613dd0565b91505092915050565b60006020828403121561408357600080fd5b600061409184828501613de5565b91505092915050565b6000602082840312156140ac57600080fd5b60006140ba84828501613dfa565b91505092915050565b6000602082840312156140d557600080fd5b600082013567ffffffffffffffff8111156140ef57600080fd5b6140fb84828501613e0f565b91505092915050565b60006020828403121561411657600080fd5b600082015167ffffffffffffffff81111561413057600080fd5b61413c84828501613e39565b91505092915050565b60006020828403121561415757600080fd5b600061416584828501613e63565b91505092915050565b6000806040838503121561418157600080fd5b600061418f85828601613e63565b92505060206141a085828601613dd0565b9150509250929050565b600080604083850312156141bd57600080fd5b60006141cb85828601613e63565b92505060206141dc85828601613e63565b9150509250929050565b60006141f2838361432d565b60208301905092915050565b600061420a8383614d43565b60208301905092915050565b61421f816156ef565b82525050565b614236614231826156ef565b6158dc565b82525050565b60006142478261550e565b6142518185615554565b935061425c836154ee565b8060005b8381101561428d57815161427488826141e6565b975061427f8361553a565b925050600181019050614260565b5085935050505092915050565b60006142a582615519565b6142af8185615565565b93506142ba836154fe565b8060005b838110156142eb5781516142d288826141fe565b97506142dd83615547565b9250506001810190506142be565b5085935050505092915050565b61430181615701565b82525050565b61431081615701565b82525050565b61432761432282615701565b6158ee565b82525050565b6143368161570d565b82525050565b61434d6143488261570d565b615900565b82525050565b600061435e82615524565b6143688185615576565b9350614378818560208601615803565b61438181615a56565b840191505092915050565b600061439782615524565b6143a18185615587565b93506143b1818560208601615803565b80840191505092915050565b6143c681615788565b82525050565b6143d5816157ac565b82525050565b6143e4816157d0565b82525050565b60006143f58261552f565b6143ff8185615592565b935061440f818560208601615803565b61441881615a56565b840191505092915050565b6000614430601483615592565b91507f5061757361626c653a206e6f74207061757365640000000000000000000000006000830152602082019050919050565b6000614470602b83615592565b91507f455243373231456e756d657261626c653a206f776e657220696e646578206f7560008301527f74206f6620626f756e64730000000000000000000000000000000000000000006020830152604082019050919050565b60006144d6603283615592565b91507f4552433732313a207472616e7366657220746f206e6f6e20455243373231526560008301527f63656976657220696d706c656d656e74657200000000000000000000000000006020830152604082019050919050565b600061453c602683615592565b91507f4f776e61626c653a206e6577206f776e657220697320746865207a65726f206160008301527f64647265737300000000000000000000000000000000000000000000000000006020830152604082019050919050565b60006145a2601183615592565b91507f416c6c20746f6b656e73206d696e7465640000000000000000000000000000006000830152602082019050919050565b60006145e2601c83615592565b91507f4552433732313a20746f6b656e20616c7265616479206d696e746564000000006000830152602082019050919050565b6000614622601683615592565b91507f496e76616c6964207061796d656e7420616d6f756e74000000000000000000006000830152602082019050919050565b6000614662600883615592565b91507f4f6e6c7920454f410000000000000000000000000000000000000000000000006000830152602082019050919050565b60006146a2602483615592565b91507f4552433732313a207472616e7366657220746f20746865207a65726f2061646460008301527f72657373000000000000000000000000000000000000000000000000000000006020830152604082019050919050565b6000614708601983615592565b91507f4552433732313a20617070726f766520746f2063616c6c6572000000000000006000830152602082019050919050565b6000614748602c83615592565b91507f4552433732313a206f70657261746f7220717565727920666f72206e6f6e657860008301527f697374656e7420746f6b656e00000000000000000000000000000000000000006020830152604082019050919050565b60006147ae601f83615592565b91507f416c6c20746f6b656e73206f6e2d73616c6520616c726561647920736f6c64006000830152602082019050919050565b60006147ee601083615592565b91507f5061757361626c653a20706175736564000000000000000000000000000000006000830152602082019050919050565b600061482e603883615592565b91507f4552433732313a20617070726f76652063616c6c6572206973206e6f74206f7760008301527f6e6572206e6f7220617070726f76656420666f7220616c6c00000000000000006020830152604082019050919050565b6000614894602a83615592565b91507f4552433732313a2062616c616e636520717565727920666f7220746865207a6560008301527f726f2061646472657373000000000000000000000000000000000000000000006020830152604082019050919050565b60006148fa602983615592565b91507f4552433732313a206f776e657220717565727920666f72206e6f6e657869737460008301527f656e7420746f6b656e00000000000000000000000000000000000000000000006020830152604082019050919050565b6000614960602083615592565b91507f4552433732313a206d696e7420746f20746865207a65726f20616464726573736000830152602082019050919050565b60006149a0602c83615592565b91507f4552433732313a20617070726f76656420717565727920666f72206e6f6e657860008301527f697374656e7420746f6b656e00000000000000000000000000000000000000006020830152604082019050919050565b6000614a06602083615592565b91507f4f776e61626c653a2063616c6c6572206973206e6f7420746865206f776e65726000830152602082019050919050565b6000614a46602983615592565b91507f4552433732313a207472616e73666572206f6620746f6b656e2074686174206960008301527f73206e6f74206f776e00000000000000000000000000000000000000000000006020830152604082019050919050565b6000614aac602f83615592565b91507f4552433732314d657461646174613a2055524920717565727920666f72206e6f60008301527f6e6578697374656e7420746f6b656e00000000000000000000000000000000006020830152604082019050919050565b6000614b12602183615592565b91507f4552433732313a20617070726f76616c20746f2063757272656e74206f776e6560008301527f72000000000000000000000000000000000000000000000000000000000000006020830152604082019050919050565b6000614b78603183615592565b91507f4552433732313a207472616e736665722063616c6c6572206973206e6f74206f60008301527f776e6572206e6f7220617070726f7665640000000000000000000000000000006020830152604082019050919050565b6000614bde601383615592565b91507f496e76616c6964206d696e7420616d6f756e74000000000000000000000000006000830152602082019050919050565b6000614c1e602c83615592565b91507f455243373231456e756d657261626c653a20676c6f62616c20696e646578206f60008301527f7574206f6620626f756e647300000000000000000000000000000000000000006020830152604082019050919050565b61014082016000820151614c8e60008501826142f8565b506020820151614ca16020850182614d87565b506040820151614cb46040850182614d87565b506060820151614cc76060850182614d87565b506080820151614cda6080850182614d87565b5060a0820151614ced60a0850182614d87565b5060c0820151614d0060c0850182614d87565b5060e0820151614d1360e0850182614d87565b50610100820151614d28610100850182614d87565b50610120820151614d3d610120850182614d87565b50505050565b614d4c81615743565b82525050565b614d5b81615743565b82525050565b614d6a81615771565b82525050565b614d81614d7c82615771565b61591c565b82525050565b614d908161577b565b82525050565b614d9f8161577b565b82525050565b614db6614db18261577b565b615926565b82525050565b6000614dc88287614225565b601482019150614dd8828661433c565b602082019150614de88285614d70565b602082019150614df88284614d70565b60208201915081905095945050505050565b6000614e16828c614316565b600182019150614e26828b614da5565b600182019150614e36828a614da5565b600182019150614e468289614da5565b600182019150614e568288614da5565b600182019150614e668287614da5565b600182019150614e768286614da5565b600182019150614e868285614da5565b600182019150614e968284614da5565b6001820191508190509a9950505050505050505050565b6000614eb9828461438c565b915081905092915050565b6000602082019050614ed96000830184614216565b92915050565b6000608082019050614ef46000830187614216565b614f016020830186614216565b614f0e6040830185614d61565b8181036060830152614f208184614353565b905095945050505050565b6000604082019050614f406000830185614216565b8181036020830152614f52818461429a565b90509392505050565b6000604082019050614f706000830185614216565b614f7d6020830184614d61565b9392505050565b60006020820190508181036000830152614f9e818461423c565b905092915050565b6000602082019050614fbb6000830184614307565b92915050565b600061014082019050614fd7600083018d614307565b614fe4602083018c614d96565b614ff1604083018b614d96565b614ffe606083018a614d96565b61500b6080830189614d96565b61501860a0830188614d96565b61502560c0830187614d96565b61503260e0830186614d96565b615040610100830185614d96565b61504e610120830184614d96565b9b9a5050505050505050505050565b600060208201905061507260008301846143bd565b92915050565b600060208201905061508d60008301846143cc565b92915050565b60006020820190506150a860008301846143db565b92915050565b600060208201905081810360008301526150c881846143ea565b905092915050565b600060208201905081810360008301526150e981614423565b9050919050565b6000602082019050818103600083015261510981614463565b9050919050565b60006020820190508181036000830152615129816144c9565b9050919050565b600060208201905081810360008301526151498161452f565b9050919050565b6000602082019050818103600083015261516981614595565b9050919050565b60006020820190508181036000830152615189816145d5565b9050919050565b600060208201905081810360008301526151a981614615565b9050919050565b600060208201905081810360008301526151c981614655565b9050919050565b600060208201905081810360008301526151e981614695565b9050919050565b60006020820190508181036000830152615209816146fb565b9050919050565b600060208201905081810360008301526152298161473b565b9050919050565b60006020820190508181036000830152615249816147a1565b9050919050565b60006020820190508181036000830152615269816147e1565b9050919050565b6000602082019050818103600083015261528981614821565b9050919050565b600060208201905081810360008301526152a981614887565b9050919050565b600060208201905081810360008301526152c9816148ed565b9050919050565b600060208201905081810360008301526152e981614953565b9050919050565b6000602082019050818103600083015261530981614993565b9050919050565b60006020820190508181036000830152615329816149f9565b9050919050565b6000602082019050818103600083015261534981614a39565b9050919050565b6000602082019050818103600083015261536981614a9f565b9050919050565b6000602082019050818103600083015261538981614b05565b9050919050565b600060208201905081810360008301526153a981614b6b565b9050919050565b600060208201905081810360008301526153c981614bd1565b9050919050565b600060208201905081810360008301526153e981614c11565b9050919050565b6000610140820190506154066000830184614c77565b92915050565b60006020820190506154216000830184614d52565b92915050565b600060208201905061543c6000830184614d61565b92915050565b60006020820190506154576000830184614d96565b92915050565b6000604051905081810181811067ffffffffffffffff8211171561548457615483615a27565b5b8060405250919050565b600067ffffffffffffffff8211156154a9576154a8615a27565b5b601f19601f8301169050602081019050919050565b600067ffffffffffffffff8211156154d9576154d8615a27565b5b601f19601f8301169050602081019050919050565b6000819050602082019050919050565b6000819050602082019050919050565b600081519050919050565b600081519050919050565b600081519050919050565b600081519050919050565b6000602082019050919050565b6000602082019050919050565b600082825260208201905092915050565b600082825260208201905092915050565b600082825260208201905092915050565b600081905092915050565b600082825260208201905092915050565b60006155ae82615771565b91506155b983615771565b9250827fffffffffffffffffffffffffffffffffffffffffffffffffffffffffffffffff038211156155ee576155ed61599a565b5b828201905092915050565b60006156048261577b565b915061560f8361577b565b92508260ff038211156156255761562461599a565b5b828201905092915050565b600061563b82615771565b915061564683615771565b925082615656576156556159c9565b5b828204905092915050565b600061566c82615771565b915061567783615771565b9250817fffffffffffffffffffffffffffffffffffffffffffffffffffffffffffffffff04831182151516156156b0576156af61599a565b5b828202905092915050565b60006156c682615771565b91506156d183615771565b9250828210156156e4576156e361599a565b5b828203905092915050565b60006156fa82615751565b9050919050565b60008115159050919050565b6000819050919050565b60007fffffffff0000000000000000000000000000000000000000000000000000000082169050919050565b600061ffff82169050919050565b600073ffffffffffffffffffffffffffffffffffffffff82169050919050565b6000819050919050565b600060ff82169050919050565b60006157938261579a565b9050919050565b60006157a582615751565b9050919050565b60006157b7826157be565b9050919050565b60006157c982615751565b9050919050565b60006157db826157e2565b9050919050565b60006157ed82615751565b9050919050565b82818337600083830152505050565b60005b83811015615821578082015181840152602081019050615806565b83811115615830576000848401525b50505050565b6000600282049050600182168061584e57607f821691505b60208210811415615862576158616159f8565b5b50919050565b600061587382615743565b915061ffff8214156158885761588761599a565b5b600182019050919050565b600061589e82615771565b91507fffffffffffffffffffffffffffffffffffffffffffffffffffffffffffffffff8214156158d1576158d061599a565b5b600182019050919050565b60006158e78261590a565b9050919050565b60006158f982615926565b9050919050565b6000819050919050565b600061591582615a74565b9050919050565b6000819050919050565b600061593182615a67565b9050919050565b600061594382615771565b915061594e83615771565b92508261595e5761595d6159c9565b5b828206905092915050565b60006159748261577b565b915061597f8361577b565b92508261598f5761598e6159c9565b5b828206905092915050565b7f4e487b7100000000000000000000000000000000000000000000000000000000600052601160045260246000fd5b7f4e487b7100000000000000000000000000000000000000000000000000000000600052601260045260246000fd5b7f4e487b7100000000000000000000000000000000000000000000000000000000600052602260045260246000fd5b7f4e487b7100000000000000000000000000000000000000000000000000000000600052604160045260246000fd5b6000601f19601f8301169050919050565b60008160f81b9050919050565b60008160601b9050919050565b615a8a816156ef565b8114615a9557600080fd5b50565b615aa181615701565b8114615aac57600080fd5b50565b615ab881615717565b8114615ac357600080fd5b50565b615acf81615771565b8114615ada57600080fd5b5056fea26469706673582212203f69da28222810d344bd69828460338886043b67ccedacb1f5e16d283a017c1264736f6c63430008000033",
  "linkReferences": {},
  "deployedLinkReferences": {}
}