{
  "_format": "hh-sol-artifact-1",
  "contractName": "King",
  "sourceName": "contracts/King.sol",
  "abi": [
    {
      "inputs": [
        {
          "internalType": "address",
          "name": "_wheat",
          "type": "address"
        },
        {
          "internalType": "address",
          "name": "_traits",
          "type": "address"
        },
        {
          "internalType": "uint256",
          "name": "_maxTokens",
          "type": "uint256"
        }
      ],
      "stateMutability": "nonpayable",
      "type": "constructor"
    },
    {
      "anonymous": false,
      "inputs": [
        {
          "indexed": true,
          "internalType": "address",
          "name": "owner",
          "type": "address"
        },
        {
          "indexed": true,
          "internalType": "address",
          "name": "approved",
          "type": "address"
        },
        {
          "indexed": true,
          "internalType": "uint256",
          "name": "tokenId",
          "type": "uint256"
        }
      ],
      "name": "Approval",
      "type": "event"
    },
    {
      "anonymous": false,
      "inputs": [
        {
          "indexed": true,
          "internalType": "address",
          "name": "owner",
          "type": "address"
        },
        {
          "indexed": true,
          "internalType": "address",
          "name": "operator",
          "type": "address"
        },
        {
          "indexed": false,
          "internalType": "bool",
          "name": "approved",
          "type": "bool"
        }
      ],
      "name": "ApprovalForAll",
      "type": "event"
    },
    {
      "anonymous": false,
      "inputs": [
        {
          "indexed": true,
          "internalType": "address",
          "name": "previousOwner",
          "type": "address"
        },
        {
          "indexed": true,
          "internalType": "address",
          "name": "newOwner",
          "type": "address"
        }
      ],
      "name": "OwnershipTransferred",
      "type": "event"
    },
    {
      "anonymous": false,
      "inputs": [
        {
          "indexed": false,
          "internalType": "address",
          "name": "account",
          "type": "address"
        }
      ],
      "name": "Paused",
      "type": "event"
    },
    {
      "anonymous": false,
      "inputs": [
        {
          "indexed": true,
          "internalType": "address",
          "name": "from",
          "type": "address"
        },
        {
          "indexed": true,
          "internalType": "address",
          "name": "to",
          "type": "address"
        },
        {
          "indexed": true,
          "internalType": "uint256",
          "name": "tokenId",
          "type": "uint256"
        }
      ],
      "name": "Transfer",
      "type": "event"
    },
    {
      "anonymous": false,
      "inputs": [
        {
          "indexed": false,
          "internalType": "address",
          "name": "account",
          "type": "address"
        }
      ],
      "name": "Unpaused",
      "type": "event"
    },
    {
      "inputs": [],
      "name": "MAX_TOKENS",
      "outputs": [
        {
          "internalType": "uint256",
          "name": "",
          "type": "uint256"
        }
      ],
      "stateMutability": "view",
      "type": "function"
    },
    {
      "inputs": [],
      "name": "MINT_PRICE",
      "outputs": [
        {
          "internalType": "uint256",
          "name": "",
          "type": "uint256"
        }
      ],
      "stateMutability": "view",
      "type": "function"
    },
    {
      "inputs": [],
      "name": "PAID_TOKENS",
      "outputs": [
        {
          "internalType": "uint256",
          "name": "",
          "type": "uint256"
        }
      ],
      "stateMutability": "view",
      "type": "function"
    },
    {
      "inputs": [
        {
          "internalType": "uint256",
          "name": "",
          "type": "uint256"
        },
        {
          "internalType": "uint256",
          "name": "",
          "type": "uint256"
        }
      ],
      "name": "aliases",
      "outputs": [
        {
          "internalType": "uint8",
          "name": "",
          "type": "uint8"
        }
      ],
      "stateMutability": "view",
      "type": "function"
    },
    {
      "inputs": [
        {
          "internalType": "address",
          "name": "to",
          "type": "address"
        },
        {
          "internalType": "uint256",
          "name": "tokenId",
          "type": "uint256"
        }
      ],
      "name": "approve",
      "outputs": [],
      "stateMutability": "nonpayable",
      "type": "function"
    },
    {
      "inputs": [
        {
          "internalType": "address",
          "name": "owner",
          "type": "address"
        }
      ],
      "name": "balanceOf",
      "outputs": [
        {
          "internalType": "uint256",
          "name": "",
          "type": "uint256"
        }
      ],
      "stateMutability": "view",
      "type": "function"
    },
    {
      "inputs": [],
      "name": "barn",
      "outputs": [
        {
          "internalType": "contract IHorse",
          "name": "",
          "type": "address"
        }
      ],
      "stateMutability": "view",
      "type": "function"
    },
    {
      "inputs": [
        {
          "internalType": "bytes",
          "name": "data",
          "type": "bytes"
        }
      ],
      "name": "bytesToBytes32Array",
      "outputs": [
        {
          "internalType": "bytes32[]",
          "name": "",
          "type": "bytes32[]"
        }
      ],
      "stateMutability": "pure",
      "type": "function"
    },
    {
      "inputs": [
        {
          "internalType": "bytes",
          "name": "",
          "type": "bytes"
        }
      ],
      "name": "existingCombinations",
      "outputs": [
        {
          "internalType": "uint256",
          "name": "",
          "type": "uint256"
        }
      ],
      "stateMutability": "view",
      "type": "function"
    },
    {
      "inputs": [
        {
          "internalType": "uint256",
          "name": "tokenId",
          "type": "uint256"
        }
      ],
      "name": "getApproved",
      "outputs": [
        {
          "internalType": "address",
          "name": "",
          "type": "address"
        }
      ],
      "stateMutability": "view",
      "type": "function"
    },
    {
      "inputs": [],
      "name": "getPaidTokens",
      "outputs": [
        {
          "internalType": "uint256",
          "name": "",
          "type": "uint256"
        }
      ],
      "stateMutability": "view",
      "type": "function"
    },
    {
      "inputs": [
        {
          "internalType": "uint256",
          "name": "tokenId",
          "type": "uint256"
        }
      ],
      "name": "getTokenTraits",
      "outputs": [
        {
          "components": [
            {
              "internalType": "bool",
              "name": "isPeasant",
              "type": "bool"
            },
            {
              "internalType": "uint8",
              "name": "cap",
              "type": "uint8"
            },
            {
              "internalType": "uint8",
              "name": "head",
              "type": "uint8"
            },
            {
              "internalType": "uint8",
              "name": "ears",
              "type": "uint8"
            },
            {
              "internalType": "uint8",
              "name": "eyes",
              "type": "uint8"
            },
            {
              "internalType": "uint8",
              "name": "nose",
              "type": "uint8"
            },
            {
              "internalType": "uint8",
              "name": "mouth",
              "type": "uint8"
            },
            {
              "internalType": "uint8",
              "name": "cloth",
              "type": "uint8"
            },
            {
              "internalType": "uint8",
              "name": "trous",
              "type": "uint8"
            },
            {
              "internalType": "uint8",
              "name": "levelIndex",
              "type": "uint8"
            }
          ],
          "internalType": "struct IKing.PeasantKing",
          "name": "",
          "type": "tuple"
        }
      ],
      "stateMutability": "view",
      "type": "function"
    },
    {
      "inputs": [
        {
          "internalType": "address",
          "name": "owner",
          "type": "address"
        },
        {
          "internalType": "address",
          "name": "operator",
          "type": "address"
        }
      ],
      "name": "isApprovedForAll",
      "outputs": [
        {
          "internalType": "bool",
          "name": "",
          "type": "bool"
        }
      ],
      "stateMutability": "view",
      "type": "function"
    },
    {
      "inputs": [
        {
          "internalType": "uint256",
          "name": "amount",
          "type": "uint256"
        },
        {
          "internalType": "bool",
          "name": "stake",
          "type": "bool"
        }
      ],
      "name": "mint",
      "outputs": [],
      "stateMutability": "payable",
      "type": "function"
    },
    {
      "inputs": [
        {
          "internalType": "uint256",
          "name": "tokenId",
          "type": "uint256"
        }
      ],
      "name": "mintCost",
      "outputs": [
        {
          "internalType": "uint256",
          "name": "",
          "type": "uint256"
        }
      ],
      "stateMutability": "view",
      "type": "function"
    },
    {
      "inputs": [
        {
          "internalType": "uint256",
          "name": "amount",
          "type": "uint256"
        }
      ],
      "name": "mint_reverse",
      "outputs": [],
      "stateMutability": "payable",
      "type": "function"
    },
    {
      "inputs": [],
      "name": "minted",
      "outputs": [
        {
          "internalType": "uint16",
          "name": "",
          "type": "uint16"
        }
      ],
      "stateMutability": "view",
      "type": "function"
    },
    {
      "inputs": [],
      "name": "name",
      "outputs": [
        {
          "internalType": "string",
          "name": "",
          "type": "string"
        }
      ],
      "stateMutability": "view",
      "type": "function"
    },
    {
      "inputs": [],
      "name": "owner",
      "outputs": [
        {
          "internalType": "address",
          "name": "",
          "type": "address"
        }
      ],
      "stateMutability": "view",
      "type": "function"
    },
    {
      "inputs": [
        {
          "internalType": "uint256",
          "name": "tokenId",
          "type": "uint256"
        }
      ],
      "name": "ownerOf",
      "outputs": [
        {
          "internalType": "address",
          "name": "",
          "type": "address"
        }
      ],
      "stateMutability": "view",
      "type": "function"
    },
    {
      "inputs": [],
      "name": "paused",
      "outputs": [
        {
          "internalType": "bool",
          "name": "",
          "type": "bool"
        }
      ],
      "stateMutability": "view",
      "type": "function"
    },
    {
      "inputs": [
        {
          "internalType": "uint256",
          "name": "",
          "type": "uint256"
        },
        {
          "internalType": "uint256",
          "name": "",
          "type": "uint256"
        }
      ],
      "name": "rarities",
      "outputs": [
        {
          "internalType": "uint8",
          "name": "",
          "type": "uint8"
        }
      ],
      "stateMutability": "view",
      "type": "function"
    },
    {
      "inputs": [],
      "name": "renounceOwnership",
      "outputs": [],
      "stateMutability": "nonpayable",
      "type": "function"
    },
    {
      "inputs": [
        {
          "internalType": "address",
          "name": "from",
          "type": "address"
        },
        {
          "internalType": "address",
          "name": "to",
          "type": "address"
        },
        {
          "internalType": "uint256",
          "name": "tokenId",
          "type": "uint256"
        }
      ],
      "name": "safeTransferFrom",
      "outputs": [],
      "stateMutability": "nonpayable",
      "type": "function"
    },
    {
      "inputs": [
        {
          "internalType": "address",
          "name": "from",
          "type": "address"
        },
        {
          "internalType": "address",
          "name": "to",
          "type": "address"
        },
        {
          "internalType": "uint256",
          "name": "tokenId",
          "type": "uint256"
        },
        {
          "internalType": "bytes",
          "name": "_data",
          "type": "bytes"
        }
      ],
      "name": "safeTransferFrom",
      "outputs": [],
      "stateMutability": "nonpayable",
      "type": "function"
    },
    {
      "inputs": [
        {
          "internalType": "address",
          "name": "operator",
          "type": "address"
        },
        {
          "internalType": "bool",
          "name": "approved",
          "type": "bool"
        }
      ],
      "name": "setApprovalForAll",
      "outputs": [],
      "stateMutability": "nonpayable",
      "type": "function"
    },
    {
      "inputs": [
        {
          "internalType": "address",
          "name": "_horse",
          "type": "address"
        }
      ],
      "name": "setHorse",
      "outputs": [],
      "stateMutability": "nonpayable",
      "type": "function"
    },
    {
      "inputs": [
        {
          "internalType": "uint256",
          "name": "_paidTokens",
          "type": "uint256"
        }
      ],
      "name": "setPaidTokens",
      "outputs": [],
      "stateMutability": "nonpayable",
      "type": "function"
    },
    {
      "inputs": [
        {
          "internalType": "bool",
          "name": "_paused",
          "type": "bool"
        }
      ],
      "name": "setPaused",
      "outputs": [],
      "stateMutability": "nonpayable",
      "type": "function"
    },
    {
      "inputs": [
        {
          "internalType": "bytes4",
          "name": "interfaceId",
          "type": "bytes4"
        }
      ],
      "name": "supportsInterface",
      "outputs": [
        {
          "internalType": "bool",
          "name": "",
          "type": "bool"
        }
      ],
      "stateMutability": "view",
      "type": "function"
    },
    {
      "inputs": [],
      "name": "symbol",
      "outputs": [
        {
          "internalType": "string",
          "name": "",
          "type": "string"
        }
      ],
      "stateMutability": "view",
      "type": "function"
    },
    {
      "inputs": [
        {
          "internalType": "uint256",
          "name": "index",
          "type": "uint256"
        }
      ],
      "name": "tokenByIndex",
      "outputs": [
        {
          "internalType": "uint256",
          "name": "",
          "type": "uint256"
        }
      ],
      "stateMutability": "view",
      "type": "function"
    },
    {
      "inputs": [
        {
          "internalType": "address",
          "name": "owner",
          "type": "address"
        },
        {
          "internalType": "uint256",
          "name": "index",
          "type": "uint256"
        }
      ],
      "name": "tokenOfOwnerByIndex",
      "outputs": [
        {
          "internalType": "uint256",
          "name": "",
          "type": "uint256"
        }
      ],
      "stateMutability": "view",
      "type": "function"
    },
    {
      "inputs": [
        {
          "internalType": "uint256",
          "name": "",
          "type": "uint256"
        }
      ],
      "name": "tokenTraits",
      "outputs": [
        {
          "internalType": "bool",
          "name": "isPeasant",
          "type": "bool"
        },
        {
          "internalType": "uint8",
          "name": "cap",
          "type": "uint8"
        },
        {
          "internalType": "uint8",
          "name": "head",
          "type": "uint8"
        },
        {
          "internalType": "uint8",
          "name": "ears",
          "type": "uint8"
        },
        {
          "internalType": "uint8",
          "name": "eyes",
          "type": "uint8"
        },
        {
          "internalType": "uint8",
          "name": "nose",
          "type": "uint8"
        },
        {
          "internalType": "uint8",
          "name": "mouth",
          "type": "uint8"
        },
        {
          "internalType": "uint8",
          "name": "cloth",
          "type": "uint8"
        },
        {
          "internalType": "uint8",
          "name": "trous",
          "type": "uint8"
        },
        {
          "internalType": "uint8",
          "name": "levelIndex",
          "type": "uint8"
        }
      ],
      "stateMutability": "view",
      "type": "function"
    },
    {
      "inputs": [
        {
          "internalType": "uint256",
          "name": "tokenId",
          "type": "uint256"
        }
      ],
      "name": "tokenURI",
      "outputs": [
        {
          "internalType": "string",
          "name": "",
          "type": "string"
        }
      ],
      "stateMutability": "view",
      "type": "function"
    },
    {
      "inputs": [],
      "name": "totalSupply",
      "outputs": [
        {
          "internalType": "uint256",
          "name": "",
          "type": "uint256"
        }
      ],
      "stateMutability": "view",
      "type": "function"
    },
    {
      "inputs": [],
      "name": "traits",
      "outputs": [
        {
          "internalType": "contract ITraits",
          "name": "",
          "type": "address"
        }
      ],
      "stateMutability": "view",
      "type": "function"
    },
    {
      "inputs": [
        {
          "internalType": "address",
          "name": "from",
          "type": "address"
        },
        {
          "internalType": "address",
          "name": "to",
          "type": "address"
        },
        {
          "internalType": "uint256",
          "name": "tokenId",
          "type": "uint256"
        }
      ],
      "name": "transferFrom",
      "outputs": [],
      "stateMutability": "nonpayable",
      "type": "function"
    },
    {
      "inputs": [
        {
          "internalType": "address",
          "name": "newOwner",
          "type": "address"
        }
      ],
      "name": "transferOwnership",
      "outputs": [],
      "stateMutability": "nonpayable",
      "type": "function"
    },
    {
      "inputs": [],
      "name": "wheat",
      "outputs": [
        {
          "internalType": "contract WHEAT",
          "name": "",
          "type": "address"
        }
      ],
      "stateMutability": "view",
      "type": "function"
    },
    {
      "inputs": [],
      "name": "withdraw",
      "outputs": [],
      "stateMutability": "nonpayable",
      "type": "function"
    }
  ],
  "bytecode": "0x60a06040523480156200001157600080fd5b506040516200848b3803806200848b833981810160405281019062000037919062002652565b6040518060400160405280600981526020017f4b696e672047616d6500000000000000000000000000000000000000000000008152506040518060400160405280600581526020017f4b47414d450000000000000000000000000000000000000000000000000000008152508160009080519060200190620000bb92919062001c9e565b508060019080519060200190620000d492919062001c9e565b505050620000f7620000eb62001bd060201b60201c565b62001bd860201b60201c565b6000600a60146101000a81548160ff02191690831515021790555082603460006101000a81548173ffffffffffffffffffffffffffffffffffffffff021916908373ffffffffffffffffffffffffffffffffffffffff16021790555081603560006101000a81548173ffffffffffffffffffffffffffffffffffffffff021916908373ffffffffffffffffffffffffffffffffffffffff16021790555080608081815250506001600b819055506040518060a00160405280600f60ff168152602001603260ff16815260200160c860ff16815260200160fa60ff16815260200160ff8016815250600f6000601281106200021a577f4e487b7100000000000000000000000000000000000000000000000000000000600052603260045260246000fd5b019060056200022b92919062001d2f565b506040518060a00160405280600460ff168152602001600460ff168152602001600460ff168152602001600460ff168152602001600460ff168152506021600060128110620002a3577f4e487b7100000000000000000000000000000000000000000000000000000000600052603260045260246000fd5b01906005620002b492919062001d2f565b5060405180610280016040528060be60ff16815260200160d760ff16815260200160f060ff168152602001606460ff168152602001606e60ff168152602001608760ff16815260200160a060ff16815260200160b960ff168152602001605060ff16815260200160d260ff16815260200160eb60ff16815260200160f060ff168152602001605060ff168152602001605060ff168152602001606460ff168152602001606460ff168152602001606460ff16815260200160f560ff16815260200160fa60ff16815260200160ff8016815250600f600160128110620003c2577f4e487b7100000000000000000000000000000000000000000000000000000000600052603260045260246000fd5b01906014620003d392919062001ddd565b50604051806102800160405280600160ff168152602001600260ff168152602001600460ff168152602001600060ff168152602001600560ff168152602001600660ff168152602001600760ff168152602001600960ff168152602001600060ff168152602001600a60ff168152602001600b60ff168152602001601160ff168152602001600060ff168152602001600060ff168152602001600060ff168152602001600060ff168152602001600460ff168152602001601260ff168152602001601360ff168152602001601360ff168152506021600160128110620004e2577f4e487b7100000000000000000000000000000000000000000000000000000000600052603260045260246000fd5b01906014620004f392919062001ddd565b506040518060c0016040528060ff80168152602001601e60ff168152602001603c60ff168152602001603c60ff168152602001609660ff168152602001609c60ff16815250600f60026012811062000574577f4e487b7100000000000000000000000000000000000000000000000000000000600052603260045260246000fd5b019060066200058592919062001e8b565b506040518060c00160405280600060ff168152602001600060ff168152602001600060ff168152602001600060ff168152602001600060ff168152602001600060ff16815250602160026012811062000607577f4e487b7100000000000000000000000000000000000000000000000000000000600052603260045260246000fd5b019060066200061892919062001e8b565b5060405180610380016040528060dd60ff168152602001606460ff16815260200160b560ff168152602001608c60ff16815260200160e060ff168152602001609360ff168152602001605460ff16815260200160e460ff168152602001608c60ff16815260200160e060ff16815260200160fa60ff16815260200160a060ff16815260200160f160ff16815260200160cf60ff16815260200160ad60ff168152602001605460ff16815260200160fe60ff16815260200160dc60ff16815260200160c460ff168152602001608c60ff16815260200160a860ff16815260200160fc60ff168152602001608c60ff16815260200160b760ff16815260200160ec60ff16815260200160fc60ff16815260200160e060ff16815260200160ff8016815250600f60036012811062000776577f4e487b7100000000000000000000000000000000000000000000000000000000600052603260045260246000fd5b0190601c6200078792919062001f39565b50604051806103800160405280600160ff168152602001600260ff168152602001600560ff168152602001600060ff168152602001600160ff168152602001600760ff168152602001600160ff168152602001600a60ff168152602001600560ff168152602001600a60ff168152602001600b60ff168152602001600c60ff168152602001600d60ff168152602001600e60ff168152602001601060ff168152602001600b60ff168152602001601160ff168152602001601760ff168152602001600d60ff168152602001600e60ff168152602001601160ff168152602001601760ff168152602001601760ff168152602001601860ff168152602001601b60ff168152602001601b60ff168152602001601b60ff168152602001601b60ff168152506021600360128110620008e6577f4e487b7100000000000000000000000000000000000000000000000000000000600052603260045260246000fd5b0190601c620008f792919062001f39565b5060405180610140016040528060af60ff168152602001606460ff168152602001602860ff16815260200160fa60ff168152602001607360ff168152602001606460ff16815260200160b960ff16815260200160af60ff16815260200160b460ff16815260200160ff8016815250600f600460128110620009a1577f4e487b7100000000000000000000000000000000000000000000000000000000600052603260045260246000fd5b0190600a620009b292919062001fe7565b50604051806101400160405280600360ff168152602001600060ff168152602001600460ff168152602001600660ff168152602001600660ff168152602001600760ff168152602001600860ff168152602001600860ff168152602001600960ff168152602001600960ff16815250602160046012811062000a5d577f4e487b7100000000000000000000000000000000000000000000000000000000600052603260045260246000fd5b0190600a62000a6e92919062001fe7565b50604051806102000160405280605060ff16815260200160e160ff16815260200160e360ff16815260200160e460ff168152602001607060ff16815260200160f060ff168152602001604060ff16815260200160a060ff16815260200160a760ff16815260200160d960ff16815260200160ab60ff168152602001604060ff16815260200160f060ff168152602001607e60ff168152602001605060ff16815260200160ff8016815250600f60056012811062000b54577f4e487b7100000000000000000000000000000000000000000000000000000000600052603260045260246000fd5b0190601062000b6592919062002095565b50604051806102000160405280600160ff168152602001600260ff168152602001600360ff168152602001600860ff168152602001600260ff168152602001600860ff168152602001600860ff168152602001600960ff168152602001600960ff168152602001600a60ff168152602001600d60ff168152602001600a60ff168152602001600d60ff168152602001600f60ff168152602001600d60ff168152602001600f60ff16815250602160056012811062000c4c577f4e487b7100000000000000000000000000000000000000000000000000000000600052603260045260246000fd5b0190601062000c5d92919062002095565b50604051806020016040528060ff8016815250600f60066012811062000cac577f4e487b7100000000000000000000000000000000000000000000000000000000600052603260045260246000fd5b0190600162000cbd92919062002143565b506040518060200160405280600060ff16815250602160066012811062000d0d577f4e487b7100000000000000000000000000000000000000000000000000000000600052603260045260246000fd5b0190600162000d1e92919062002143565b5060405180610260016040528060f360ff16815260200160bd60ff168152602001608560ff168152602001608560ff168152602001603960ff168152602001605f60ff168152602001609860ff168152602001608760ff168152602001608560ff168152602001603960ff16815260200160de60ff16815260200160a860ff168152602001603960ff168152602001603960ff168152602001602660ff168152602001607260ff168152602001607260ff168152602001607260ff16815260200160ff8016815250600f60076012811062000e22577f4e487b7100000000000000000000000000000000000000000000000000000000600052603260045260246000fd5b0190601362000e33929190620021f1565b50604051806102600160405280600160ff168152602001600760ff168152602001600060ff168152602001600060ff168152602001600060ff168152602001600060ff168152602001600060ff168152602001600a60ff168152602001600060ff168152602001600060ff168152602001600b60ff168152602001601260ff168152602001600060ff168152602001600060ff168152602001600060ff168152602001600160ff168152602001600760ff168152602001600b60ff168152602001601260ff16815250602160076012811062000f38577f4e487b7100000000000000000000000000000000000000000000000000000000600052603260045260246000fd5b0190601362000f49929190620021f1565b50604051806020016040528060ff8016815250600f60086012811062000f98577f4e487b7100000000000000000000000000000000000000000000000000000000600052603260045260246000fd5b0190600162000fa992919062002143565b506040518060200160405280600060ff16815250602160086012811062000ff9577f4e487b7100000000000000000000000000000000000000000000000000000000600052603260045260246000fd5b019060016200100a92919062002143565b5060405180610120016040528060d260ff168152602001605a60ff168152602001600960ff168152602001600960ff168152602001600960ff168152602001609660ff168152602001600960ff16815260200160ff80168152602001600960ff16815250600f600960128110620010aa577f4e487b7100000000000000000000000000000000000000000000000000000000600052603260045260246000fd5b01906009620010bb9291906200229f565b50604051806101200160405280600560ff168152602001600060ff168152602001600060ff168152602001600560ff168152602001600560ff168152602001600760ff168152602001600560ff168152602001600760ff168152602001600560ff1681525060216009601281106200115c577f4e487b7100000000000000000000000000000000000000000000000000000000600052603260045260246000fd5b019060096200116d9291906200229f565b50604051806020016040528060ff8016815250600f600a60128110620011bc577f4e487b7100000000000000000000000000000000000000000000000000000000600052603260045260246000fd5b01906001620011cd92919062002143565b506040518060200160405280600060ff168152506021600a601281106200121d577f4e487b7100000000000000000000000000000000000000000000000000000000600052603260045260246000fd5b019060016200122e92919062002143565b50604051806020016040528060ff8016815250600f600b601281106200127d577f4e487b7100000000000000000000000000000000000000000000000000000000600052603260045260246000fd5b019060016200128e92919062002143565b506040518060200160405280600060ff168152506021600b60128110620012de577f4e487b7100000000000000000000000000000000000000000000000000000000600052603260045260246000fd5b01906001620012ef92919062002143565b50604051806103600160405280608760ff16815260200160b160ff16815260200160db60ff168152602001608d60ff16815260200160b760ff16815260200160e160ff168152602001609360ff16815260200160bd60ff16815260200160e760ff168152602001608760ff168152602001608760ff168152602001608760ff168152602001608760ff16815260200160f660ff168152602001609660ff168152602001609660ff168152602001609c60ff16815260200160a560ff16815260200160ab60ff16815260200160b460ff16815260200160ba60ff16815260200160c360ff16815260200160c960ff16815260200160d260ff16815260200160f360ff16815260200160fc60ff16815260200160ff8016815250600f600c6012811062001443577f4e487b7100000000000000000000000000000000000000000000000000000000600052603260045260246000fd5b0190601b620014549291906200234d565b50604051806103600160405280600160ff168152602001600260ff168152602001600360ff168152602001600460ff168152602001600560ff168152602001600660ff168152602001600760ff168152602001600860ff168152602001600d60ff168152602001600360ff168152602001600660ff168152602001600e60ff168152602001600f60ff168152602001601060ff168152602001601060ff168152602001601160ff168152602001601260ff168152602001601360ff168152602001601460ff168152602001601560ff168152602001601660ff168152602001601760ff168152602001601860ff168152602001601960ff168152602001601a60ff168152602001601a60ff168152602001601a60ff168152506021600c60128110620015a9577f4e487b7100000000000000000000000000000000000000000000000000000000600052603260045260246000fd5b0190601b620015ba9291906200234d565b50604051806020016040528060ff8016815250600f600d6012811062001609577f4e487b7100000000000000000000000000000000000000000000000000000000600052603260045260246000fd5b019060016200161a92919062002143565b506040518060200160405280600060ff168152506021600d601281106200166a577f4e487b7100000000000000000000000000000000000000000000000000000000600052603260045260246000fd5b019060016200167b92919062002143565b50604051806101a0016040528060ef60ff16815260200160f460ff16815260200160f960ff16815260200160ea60ff16815260200160ea60ff16815260200160ea60ff16815260200160ea60ff16815260200160ea60ff16815260200160ea60ff16815260200160ea60ff168152602001608260ff16815260200160ff8016815260200160f760ff16815250600f600e6012811062001743577f4e487b7100000000000000000000000000000000000000000000000000000000600052603260045260246000fd5b0190600d62001754929190620023fb565b50604051806101a00160405280600160ff168152602001600260ff168152602001600b60ff168152602001600060ff168152602001600b60ff168152602001600b60ff168152602001600b60ff168152602001600b60ff168152602001600b60ff168152602001600b60ff168152602001600b60ff168152602001600b60ff168152602001600b60ff168152506021600e601281106200181d577f4e487b7100000000000000000000000000000000000000000000000000000000600052603260045260246000fd5b0190600d6200182e929190620023fb565b50604051806101e00160405280604b60ff16815260200160b460ff16815260200160a560ff168152602001607860ff168152602001603c60ff168152602001609660ff168152602001606960ff16815260200160c360ff168152602001602d60ff16815260200160e160ff168152602001604b60ff168152602001602d60ff16815260200160c360ff168152602001607860ff16815260200160ff8016815250600f806012811062001909577f4e487b7100000000000000000000000000000000000000000000000000000000600052603260045260246000fd5b0190600f6200191a929190620024a9565b50604051806101e00160405280600160ff168152602001600960ff168152602001600060ff168152602001600060ff168152602001600060ff168152602001600060ff168152602001600060ff168152602001600060ff168152602001600060ff168152602001600c60ff168152602001600060ff168152602001600060ff168152602001600e60ff168152602001600c60ff168152602001600e60ff168152506021600f60128110620019f7577f4e487b7100000000000000000000000000000000000000000000000000000000600052603260045260246000fd5b0190600f62001a08929190620024a9565b50604051806020016040528060ff8016815250600f60106012811062001a57577f4e487b7100000000000000000000000000000000000000000000000000000000600052603260045260246000fd5b0190600162001a6892919062002143565b506040518060200160405280600060ff16815250602160106012811062001ab8577f4e487b7100000000000000000000000000000000000000000000000000000000600052603260045260246000fd5b0190600162001ac992919062002143565b506040518060800160405280600860ff16815260200160a060ff168152602001604960ff16815260200160ff8016815250600f60116012811062001b36577f4e487b7100000000000000000000000000000000000000000000000000000000600052603260045260246000fd5b0190600462001b4792919062002557565b506040518060800160405280600260ff168152602001600360ff168152602001600360ff168152602001600360ff16815250602160116012811062001bb5577f4e487b7100000000000000000000000000000000000000000000000000000000600052603260045260246000fd5b0190600462001bc692919062002557565b505050506200277f565b600033905090565b6000600a60009054906101000a900473ffffffffffffffffffffffffffffffffffffffff16905081600a60006101000a81548173ffffffffffffffffffffffffffffffffffffffff021916908373ffffffffffffffffffffffffffffffffffffffff1602179055508173ffffffffffffffffffffffffffffffffffffffff168173ffffffffffffffffffffffffffffffffffffffff167f8be0079c531659141344cd1fd0a4f28419497f9722a3daafe3b4186f6b6457e060405160405180910390a35050565b82805462001cac90620026e6565b90600052602060002090601f01602090048101928262001cd0576000855562001d1c565b82601f1062001ceb57805160ff191683800117855562001d1c565b8280016001018555821562001d1c579182015b8281111562001d1b57825182559160200191906001019062001cfe565b5b50905062001d2b919062002605565b5090565b82805482825590600052602060002090601f0160209004810192821562001dca5791602002820160005b8382111562001d9957835183826101000a81548160ff021916908360ff160217905550926020019260010160208160000104928301926001030262001d59565b801562001dc85782816101000a81549060ff021916905560010160208160000104928301926001030262001d99565b505b50905062001dd9919062002605565b5090565b82805482825590600052602060002090601f0160209004810192821562001e785791602002820160005b8382111562001e4757835183826101000a81548160ff021916908360ff160217905550926020019260010160208160000104928301926001030262001e07565b801562001e765782816101000a81549060ff021916905560010160208160000104928301926001030262001e47565b505b50905062001e87919062002605565b5090565b82805482825590600052602060002090601f0160209004810192821562001f265791602002820160005b8382111562001ef557835183826101000a81548160ff021916908360ff160217905550926020019260010160208160000104928301926001030262001eb5565b801562001f245782816101000a81549060ff021916905560010160208160000104928301926001030262001ef5565b505b50905062001f35919062002605565b5090565b82805482825590600052602060002090601f0160209004810192821562001fd45791602002820160005b8382111562001fa357835183826101000a81548160ff021916908360ff160217905550926020019260010160208160000104928301926001030262001f63565b801562001fd25782816101000a81549060ff021916905560010160208160000104928301926001030262001fa3565b505b50905062001fe3919062002605565b5090565b82805482825590600052602060002090601f01602090048101928215620020825791602002820160005b838211156200205157835183826101000a81548160ff021916908360ff160217905550926020019260010160208160000104928301926001030262002011565b8015620020805782816101000a81549060ff021916905560010160208160000104928301926001030262002051565b505b50905062002091919062002605565b5090565b82805482825590600052602060002090601f01602090048101928215620021305791602002820160005b83821115620020ff57835183826101000a81548160ff021916908360ff1602179055509260200192600101602081600001049283019260010302620020bf565b80156200212e5782816101000a81549060ff0219169055600101602081600001049283019260010302620020ff565b505b5090506200213f919062002605565b5090565b82805482825590600052602060002090601f01602090048101928215620021de5791602002820160005b83821115620021ad57835183826101000a81548160ff021916908360ff16021790555092602001926001016020816000010492830192600103026200216d565b8015620021dc5782816101000a81549060ff0219169055600101602081600001049283019260010302620021ad565b505b509050620021ed919062002605565b5090565b82805482825590600052602060002090601f016020900481019282156200228c5791602002820160005b838211156200225b57835183826101000a81548160ff021916908360ff16021790555092602001926001016020816000010492830192600103026200221b565b80156200228a5782816101000a81549060ff02191690556001016020816000010492830192600103026200225b565b505b5090506200229b919062002605565b5090565b82805482825590600052602060002090601f016020900481019282156200233a5791602002820160005b838211156200230957835183826101000a81548160ff021916908360ff1602179055509260200192600101602081600001049283019260010302620022c9565b8015620023385782816101000a81549060ff021916905560010160208160000104928301926001030262002309565b505b50905062002349919062002605565b5090565b82805482825590600052602060002090601f01602090048101928215620023e85791602002820160005b83821115620023b757835183826101000a81548160ff021916908360ff160217905550926020019260010160208160000104928301926001030262002377565b8015620023e65782816101000a81549060ff0219169055600101602081600001049283019260010302620023b7565b505b509050620023f7919062002605565b5090565b82805482825590600052602060002090601f01602090048101928215620024965791602002820160005b838211156200246557835183826101000a81548160ff021916908360ff160217905550926020019260010160208160000104928301926001030262002425565b8015620024945782816101000a81549060ff021916905560010160208160000104928301926001030262002465565b505b509050620024a5919062002605565b5090565b82805482825590600052602060002090601f01602090048101928215620025445791602002820160005b838211156200251357835183826101000a81548160ff021916908360ff1602179055509260200192600101602081600001049283019260010302620024d3565b8015620025425782816101000a81549060ff021916905560010160208160000104928301926001030262002513565b505b50905062002553919062002605565b5090565b82805482825590600052602060002090601f01602090048101928215620025f25791602002820160005b83821115620025c157835183826101000a81548160ff021916908360ff160217905550926020019260010160208160000104928301926001030262002581565b8015620025f05782816101000a81549060ff0219169055600101602081600001049283019260010302620025c1565b505b50905062002601919062002605565b5090565b5b808211156200262057600081600090555060010162002606565b5090565b60008151905062002635816200274b565b92915050565b6000815190506200264c8162002765565b92915050565b6000806000606084860312156200266857600080fd5b6000620026788682870162002624565b93505060206200268b8682870162002624565b92505060406200269e868287016200263b565b9150509250925092565b6000620026b582620026bc565b9050919050565b600073ffffffffffffffffffffffffffffffffffffffff82169050919050565b6000819050919050565b60006002820490506001821680620026ff57607f821691505b602082108114156200271657620027156200271c565b5b50919050565b7f4e487b7100000000000000000000000000000000000000000000000000000000600052602260045260246000fd5b6200275681620026a8565b81146200276257600080fd5b50565b6200277081620026dc565b81146200277c57600080fd5b50565b608051615cdb620027b06000396000818161100201528181611053015281816116a501526124bb0152615cdb6000f3fe6080604052600436106102465760003560e01c80634f6ccce71161013957806395d89b41116100b6578063c87b56dd1161007a578063c87b56dd146108ae578063e05c57bf146108eb578063e1fc334f14610931578063e985e9c51461095c578063f2fde38b14610999578063f47c84c5146109c257610246565b806395d89b41146107db578063a22cb46514610806578063b88d4fde1461082f578063c002d23d14610858578063c084f5401461088357610246565b8063715018a6116100fd578063715018a6146106f657806372b94bbb1461070d578063839e230d146107365780638da5cb5b1461077357806394e568471461079e57610246565b80634f6ccce7146105f85780635c975abb146106355780636352211e1461066057806367f68fac1461069d57806370a08231146106b957610246565b806327de8f27116101c75780633ccfd60b1161018b5780633ccfd60b146105255780634018b1f81461053c57806342842e0e146105675780634debc578146105905780634f02c420146105cd57610246565b806327de8f27146104085780632f745c591461044557806333df4b2c146104825780633431a753146104bf57806336838391146104e857610246565b806310b7731c1161020e57806310b7731c1461034457806316c38b3c1461036057806318160ddd14610389578063194f480e146103b457806323b872dd146103df57610246565b806301ffc9a71461024b57806306fdde0314610288578063081812fc146102b3578063095ea7b3146102f05780630e35773814610319575b600080fd5b34801561025757600080fd5b50610272600480360381019061026d9190614239565b6109ed565b60405161027f919061516e565b60405180910390f35b34801561029457600080fd5b5061029d610a67565b6040516102aa9190615276565b60405180910390f35b3480156102bf57600080fd5b506102da60048036038101906102d5919061430d565b610af9565b6040516102e7919061508c565b60405180910390f35b3480156102fc57600080fd5b50610317600480360381019061031291906141d4565b610b7e565b005b34801561032557600080fd5b5061032e610c96565b60405161033b919061525b565b60405180910390f35b61035e6004803603810190610359919061430d565b610cbc565b005b34801561036c57600080fd5b5061038760048036038101906103829190614210565b610e5d565b005b34801561039557600080fd5b5061039e610ef8565b6040516103ab91906155ef565b60405180910390f35b3480156103c057600080fd5b506103c9610f05565b6040516103d69190615225565b60405180910390f35b3480156103eb57600080fd5b50610406600480360381019061040191906140ce565b610f2b565b005b34801561041457600080fd5b5061042f600480360381019061042a919061430d565b610fe8565b60405161043c91906155ef565b60405180910390f35b34801561045157600080fd5b5061046c600480360381019061046791906141d4565b6110b1565b60405161047991906155ef565b60405180910390f35b34801561048e57600080fd5b506104a960048036038101906104a49190614372565b611156565b6040516104b6919061560a565b60405180910390f35b3480156104cb57600080fd5b506104e660048036038101906104e1919061430d565b61119c565b005b3480156104f457600080fd5b5061050f600480360381019061050a9190614372565b611222565b60405161051c919061560a565b60405180910390f35b34801561053157600080fd5b5061053a611268565b005b34801561054857600080fd5b50610551611334565b60405161055e91906155ef565b60405180910390f35b34801561057357600080fd5b5061058e600480360381019061058991906140ce565b61133e565b005b34801561059c57600080fd5b506105b760048036038101906105b2919061428b565b61135e565b6040516105c4919061514c565b60405180910390f35b3480156105d957600080fd5b506105e2611472565b6040516105ef91906155d4565b60405180910390f35b34801561060457600080fd5b5061061f600480360381019061061a919061430d565b611486565b60405161062c91906155ef565b60405180910390f35b34801561064157600080fd5b5061064a61151d565b604051610657919061516e565b60405180910390f35b34801561066c57600080fd5b506106876004803603810190610682919061430d565b611534565b604051610694919061508c565b60405180910390f35b6106b760048036038101906106b29190614336565b6115e6565b005b3480156106c557600080fd5b506106e060048036038101906106db9190614040565b611c6f565b6040516106ed91906155ef565b60405180910390f35b34801561070257600080fd5b5061070b611d27565b005b34801561071957600080fd5b50610734600480360381019061072f9190614040565b611daf565b005b34801561074257600080fd5b5061075d6004803603810190610758919061428b565b611e6f565b60405161076a91906155ef565b60405180910390f35b34801561077f57600080fd5b50610788611e9d565b604051610795919061508c565b60405180910390f35b3480156107aa57600080fd5b506107c560048036038101906107c0919061430d565b611ec7565b6040516107d291906155b8565b60405180910390f35b3480156107e757600080fd5b506107f0612015565b6040516107fd9190615276565b60405180910390f35b34801561081257600080fd5b5061082d60048036038101906108289190614198565b6120a7565b005b34801561083b57600080fd5b506108566004803603810190610851919061411d565b6120bd565b005b34801561086457600080fd5b5061086d61211f565b60405161087a91906155ef565b60405180910390f35b34801561088f57600080fd5b5061089861212a565b6040516108a591906155ef565b60405180910390f35b3480156108ba57600080fd5b506108d560048036038101906108d0919061430d565b612130565b6040516108e29190615276565b60405180910390f35b3480156108f757600080fd5b50610912600480360381019061090d919061430d565b612231565b6040516109289a99989796959493929190615189565b60405180910390f35b34801561093d57600080fd5b50610946612307565b6040516109539190615240565b60405180910390f35b34801561096857600080fd5b50610983600480360381019061097e9190614092565b61232d565b604051610990919061516e565b60405180910390f35b3480156109a557600080fd5b506109c060048036038101906109bb9190614040565b6123c1565b005b3480156109ce57600080fd5b506109d76124b9565b6040516109e491906155ef565b60405180910390f35b60007f780e9d63000000000000000000000000000000000000000000000000000000007bffffffffffffffffffffffffffffffffffffffffffffffffffffffff1916827bffffffffffffffffffffffffffffffffffffffffffffffffffffffff19161480610a605750610a5f826124dd565b5b9050919050565b606060008054610a76906159fe565b80601f0160208091040260200160405190810160405280929190818152602001828054610aa2906159fe565b8015610aef5780601f10610ac457610100808354040283529160200191610aef565b820191906000526020600020905b815481529060010190602001808311610ad257829003601f168201915b5050505050905090565b6000610b04826125bf565b610b43576040517f08c379a0000000000000000000000000000000000000000000000000000000008152600401610b3a906154b8565b60405180910390fd5b6004600083815260200190815260200160002060009054906101000a900473ffffffffffffffffffffffffffffffffffffffff169050919050565b6000610b8982611534565b90508073ffffffffffffffffffffffffffffffffffffffff168373ffffffffffffffffffffffffffffffffffffffff161415610bfa576040517f08c379a0000000000000000000000000000000000000000000000000000000008152600401610bf190615538565b60405180910390fd5b8073ffffffffffffffffffffffffffffffffffffffff16610c1961262b565b73ffffffffffffffffffffffffffffffffffffffff161480610c485750610c4781610c4261262b565b61232d565b5b610c87576040517f08c379a0000000000000000000000000000000000000000000000000000000008152600401610c7e90615438565b60405180910390fd5b610c918383612633565b505050565b603460009054906101000a900473ffffffffffffffffffffffffffffffffffffffff1681565b610cc461262b565b73ffffffffffffffffffffffffffffffffffffffff16610ce2611e9d565b73ffffffffffffffffffffffffffffffffffffffff1614610d38576040517f08c379a0000000000000000000000000000000000000000000000000000000008152600401610d2f906154d8565b60405180910390fd5b610d4061262b565b73ffffffffffffffffffffffffffffffffffffffff163273ffffffffffffffffffffffffffffffffffffffff1614610dad576040517f08c379a0000000000000000000000000000000000000000000000000000000008152600401610da490615378565b60405180910390fd5b3466f8b0a10e47000082610dc19190615829565b14610e01576040517f08c379a0000000000000000000000000000000000000000000000000000000008152600401610df890615358565b60405180910390fd5b610e1f33600c60009054906101000a900461ffff1661ffff166126ec565b600c600081819054906101000a900461ffff1680929190610e3f90615a30565b91906101000a81548161ffff021916908361ffff1602179055505050565b610e6561262b565b73ffffffffffffffffffffffffffffffffffffffff16610e83611e9d565b73ffffffffffffffffffffffffffffffffffffffff1614610ed9576040517f08c379a0000000000000000000000000000000000000000000000000000000008152600401610ed0906154d8565b60405180910390fd5b8015610eec57610ee761270a565b610ef5565b610ef46127ad565b5b50565b6000600880549050905090565b603360009054906101000a900473ffffffffffffffffffffffffffffffffffffffff1681565b603360009054906101000a900473ffffffffffffffffffffffffffffffffffffffff1673ffffffffffffffffffffffffffffffffffffffff16610f6c61262b565b73ffffffffffffffffffffffffffffffffffffffff1614610fd857610f98610f9261262b565b8261284f565b610fd7576040517f08c379a0000000000000000000000000000000000000000000000000000000008152600401610fce90615558565b60405180910390fd5b5b610fe383838361292d565b505050565b6000600b548211610ffc57600090506110ac565b600560027f000000000000000000000000000000000000000000000000000000000000000061102b9190615829565b61103591906157f8565b821161104d5769043c33c193756480000090506110ac565b600560047f000000000000000000000000000000000000000000000000000000000000000061107c9190615829565b61108691906157f8565b821161109e57690878678326eac900000090506110ac565b6910f0cf064dd59200000090505b919050565b60006110bc83611c6f565b82106110fd576040517f08c379a00000000000000000000000000000000000000000000000000000000081526004016110f4906152b8565b60405180910390fd5b600660008473ffffffffffffffffffffffffffffffffffffffff1673ffffffffffffffffffffffffffffffffffffffff168152602001908152602001600020600083815260200190815260200160002054905092915050565b600f826012811061116657600080fd5b01818154811061117557600080fd5b9060005260206000209060209182820401919006915091509054906101000a900460ff1681565b6111a461262b565b73ffffffffffffffffffffffffffffffffffffffff166111c2611e9d565b73ffffffffffffffffffffffffffffffffffffffff1614611218576040517f08c379a000000000000000000000000000000000000000000000000000000000815260040161120f906154d8565b60405180910390fd5b80600b8190555050565b6021826012811061123257600080fd5b01818154811061124157600080fd5b9060005260206000209060209182820401919006915091509054906101000a900460ff1681565b61127061262b565b73ffffffffffffffffffffffffffffffffffffffff1661128e611e9d565b73ffffffffffffffffffffffffffffffffffffffff16146112e4576040517f08c379a00000000000000000000000000000000000000000000000000000000081526004016112db906154d8565b60405180910390fd5b6112ec611e9d565b73ffffffffffffffffffffffffffffffffffffffff166108fc479081150290604051600060405180830381858888f19350505050158015611331573d6000803e3d6000fd5b50565b6000600b54905090565b611359838383604051806020016040528060008152506120bd565b505050565b606060006020835161137091906157f8565b905060008167ffffffffffffffff8111156113b4577f4e487b7100000000000000000000000000000000000000000000000000000000600052604160045260246000fd5b6040519080825280602002602001820160405280156113e25781602001602082028036833780820191505090505b509050600080602090505b8551811161146657600081870151905080848481518110611437577f4e487b7100000000000000000000000000000000000000000000000000000000600052603260045260246000fd5b602002602001018181525050828061144e90615a5b565b9350505060208161145f919061576b565b90506113ed565b50819350505050919050565b600c60009054906101000a900461ffff1681565b6000611490610ef8565b82106114d1576040517f08c379a00000000000000000000000000000000000000000000000000000000081526004016114c890615598565b60405180910390fd5b6008828154811061150b577f4e487b7100000000000000000000000000000000000000000000000000000000600052603260045260246000fd5b90600052602060002001549050919050565b6000600a60149054906101000a900460ff16905090565b6000806002600084815260200190815260200160002060009054906101000a900473ffffffffffffffffffffffffffffffffffffffff169050600073ffffffffffffffffffffffffffffffffffffffff168173ffffffffffffffffffffffffffffffffffffffff1614156115dd576040517f08c379a00000000000000000000000000000000000000000000000000000000081526004016115d490615478565b60405180910390fd5b80915050919050565b6115ee61151d565b1561162e576040517f08c379a000000000000000000000000000000000000000000000000000000000815260040161162590615418565b60405180910390fd5b61163661262b565b73ffffffffffffffffffffffffffffffffffffffff163273ffffffffffffffffffffffffffffffffffffffff16146116a3576040517f08c379a000000000000000000000000000000000000000000000000000000000815260040161169a90615378565b60405180910390fd5b7f000000000000000000000000000000000000000000000000000000000000000082600c60009054906101000a900461ffff1661ffff166116e4919061576b565b1115611725576040517f08c379a000000000000000000000000000000000000000000000000000000000815260040161171c90615318565b60405180910390fd5b6000821180156117365750600a8211155b611775576040517f08c379a000000000000000000000000000000000000000000000000000000000815260040161176c90615578565b60405180910390fd5b600b54600c60009054906101000a900461ffff1661ffff16101561185057600b5482600c60009054906101000a900461ffff1661ffff166117b6919061576b565b11156117f7576040517f08c379a00000000000000000000000000000000000000000000000000000000081526004016117ee906153f8565b60405180910390fd5b3466f8b0a10e4700008361180b9190615829565b1461184b576040517f08c379a000000000000000000000000000000000000000000000000000000000815260040161184290615358565b60405180910390fd5b61185e565b6000341461185d57600080fd5b5b600080826118db57600067ffffffffffffffff8111156118a7577f4e487b7100000000000000000000000000000000000000000000000000000000600052604160045260246000fd5b6040519080825280602002602001820160405280156118d55781602001602082028036833780820191505090505b5061194b565b8367ffffffffffffffff81111561191b577f4e487b7100000000000000000000000000000000000000000000000000000000600052604160045260246000fd5b6040519080825280602002602001820160405280156119495781602001602082028036833780820191505090505b505b9050600080600090505b85811015611b2a57600c600081819054906101000a900461ffff168092919061197d90615a30565b91906101000a81548161ffff021916908361ffff160217905550506119b5600c60009054906101000a900461ffff1661ffff16612b89565b91506119d5600c60009054906101000a900461ffff1661ffff1683612bcf565b5060006119e183612dbe565b9050851580611a2357506119f361262b565b73ffffffffffffffffffffffffffffffffffffffff168173ffffffffffffffffffffffffffffffffffffffff1614155b15611a4b57611a4681600c60009054906101000a900461ffff1661ffff166126ec565b611aec565b611a8b603360009054906101000a900473ffffffffffffffffffffffffffffffffffffffff16600c60009054906101000a900461ffff1661ffff166126ec565b600c60009054906101000a900461ffff16848381518110611ad5577f4e487b7100000000000000000000000000000000000000000000000000000000600052603260045260246000fd5b602002602001019061ffff16908161ffff16815250505b611b09600c60009054906101000a900461ffff1661ffff16610fe8565b85611b14919061576b565b9450508080611b2290615a5b565b915050611955565b506000831115611bcb57603460009054906101000a900473ffffffffffffffffffffffffffffffffffffffff1673ffffffffffffffffffffffffffffffffffffffff16639dc29fac611b7a61262b565b856040518363ffffffff1660e01b8152600401611b98929190615123565b600060405180830381600087803b158015611bb257600080fd5b505af1158015611bc6573d6000803e3d6000fd5b505050505b8315611c6857603360009054906101000a900473ffffffffffffffffffffffffffffffffffffffff1673ffffffffffffffffffffffffffffffffffffffff166381d449c1611c1761262b565b846040518363ffffffff1660e01b8152600401611c359291906150f3565b600060405180830381600087803b158015611c4f57600080fd5b505af1158015611c63573d6000803e3d6000fd5b505050505b5050505050565b60008073ffffffffffffffffffffffffffffffffffffffff168273ffffffffffffffffffffffffffffffffffffffff161415611ce0576040517f08c379a0000000000000000000000000000000000000000000000000000000008152600401611cd790615458565b60405180910390fd5b600360008373ffffffffffffffffffffffffffffffffffffffff1673ffffffffffffffffffffffffffffffffffffffff168152602001908152602001600020549050919050565b611d2f61262b565b73ffffffffffffffffffffffffffffffffffffffff16611d4d611e9d565b73ffffffffffffffffffffffffffffffffffffffff1614611da3576040517f08c379a0000000000000000000000000000000000000000000000000000000008152600401611d9a906154d8565b60405180910390fd5b611dad6000612f0c565b565b611db761262b565b73ffffffffffffffffffffffffffffffffffffffff16611dd5611e9d565b73ffffffffffffffffffffffffffffffffffffffff1614611e2b576040517f08c379a0000000000000000000000000000000000000000000000000000000008152600401611e22906154d8565b60405180910390fd5b80603360006101000a81548173ffffffffffffffffffffffffffffffffffffffff021916908373ffffffffffffffffffffffffffffffffffffffff16021790555050565b600e818051602081018201805184825260208301602085012081835280955050505050506000915090505481565b6000600a60009054906101000a900473ffffffffffffffffffffffffffffffffffffffff16905090565b611ecf613e82565b600d6000838152602001908152602001600020604051806101400160405290816000820160009054906101000a900460ff161515151581526020016000820160019054906101000a900460ff1660ff1660ff1681526020016000820160029054906101000a900460ff1660ff1660ff1681526020016000820160039054906101000a900460ff1660ff1660ff1681526020016000820160049054906101000a900460ff1660ff1660ff1681526020016000820160059054906101000a900460ff1660ff1660ff1681526020016000820160069054906101000a900460ff1660ff1660ff1681526020016000820160079054906101000a900460ff1660ff1660ff1681526020016000820160089054906101000a900460ff1660ff1660ff1681526020016000820160099054906101000a900460ff1660ff1660ff16815250509050919050565b606060018054612024906159fe565b80601f0160208091040260200160405190810160405280929190818152602001828054612050906159fe565b801561209d5780601f106120725761010080835404028352916020019161209d565b820191906000526020600020905b81548152906001019060200180831161208057829003601f168201915b5050505050905090565b6120b96120b261262b565b8383612fd2565b5050565b6120ce6120c861262b565b8361284f565b61210d576040517f08c379a000000000000000000000000000000000000000000000000000000000815260040161210490615558565b60405180910390fd5b6121198484848461313f565b50505050565b66f8b0a10e47000081565b600b5481565b606061213b826125bf565b61217a576040517f08c379a000000000000000000000000000000000000000000000000000000000815260040161217190615518565b60405180910390fd5b603560009054906101000a900473ffffffffffffffffffffffffffffffffffffffff1673ffffffffffffffffffffffffffffffffffffffff1663c87b56dd836040518263ffffffff1660e01b81526004016121d591906155ef565b60006040518083038186803b1580156121ed57600080fd5b505afa158015612201573d6000803e3d6000fd5b505050506040513d6000823e3d601f19601f8201168201806040525081019061222a91906142cc565b9050919050565b600d6020528060005260406000206000915090508060000160009054906101000a900460ff16908060000160019054906101000a900460ff16908060000160029054906101000a900460ff16908060000160039054906101000a900460ff16908060000160049054906101000a900460ff16908060000160059054906101000a900460ff16908060000160069054906101000a900460ff16908060000160079054906101000a900460ff16908060000160089054906101000a900460ff16908060000160099054906101000a900460ff1690508a565b603560009054906101000a900473ffffffffffffffffffffffffffffffffffffffff1681565b6000600560008473ffffffffffffffffffffffffffffffffffffffff1673ffffffffffffffffffffffffffffffffffffffff16815260200190815260200160002060008373ffffffffffffffffffffffffffffffffffffffff1673ffffffffffffffffffffffffffffffffffffffff16815260200190815260200160002060009054906101000a900460ff16905092915050565b6123c961262b565b73ffffffffffffffffffffffffffffffffffffffff166123e7611e9d565b73ffffffffffffffffffffffffffffffffffffffff161461243d576040517f08c379a0000000000000000000000000000000000000000000000000000000008152600401612434906154d8565b60405180910390fd5b600073ffffffffffffffffffffffffffffffffffffffff168173ffffffffffffffffffffffffffffffffffffffff1614156124ad576040517f08c379a00000000000000000000000000000000000000000000000000000000081526004016124a4906152f8565b60405180910390fd5b6124b681612f0c565b50565b7f000000000000000000000000000000000000000000000000000000000000000081565b60007f80ac58cd000000000000000000000000000000000000000000000000000000007bffffffffffffffffffffffffffffffffffffffffffffffffffffffff1916827bffffffffffffffffffffffffffffffffffffffffffffffffffffffff191614806125a857507f5b5e139f000000000000000000000000000000000000000000000000000000007bffffffffffffffffffffffffffffffffffffffffffffffffffffffff1916827bffffffffffffffffffffffffffffffffffffffffffffffffffffffff1916145b806125b857506125b78261319b565b5b9050919050565b60008073ffffffffffffffffffffffffffffffffffffffff166002600084815260200190815260200160002060009054906101000a900473ffffffffffffffffffffffffffffffffffffffff1673ffffffffffffffffffffffffffffffffffffffff1614159050919050565b600033905090565b816004600083815260200190815260200160002060006101000a81548173ffffffffffffffffffffffffffffffffffffffff021916908373ffffffffffffffffffffffffffffffffffffffff160217905550808273ffffffffffffffffffffffffffffffffffffffff166126a683611534565b73ffffffffffffffffffffffffffffffffffffffff167f8c5be1e5ebec7d5bd14f71427d1e84f3dd0314c0f7b2291e5b200ac8c7c3b92560405160405180910390a45050565b612706828260405180602001604052806000815250613205565b5050565b61271261151d565b15612752576040517f08c379a000000000000000000000000000000000000000000000000000000000815260040161274990615418565b60405180910390fd5b6001600a60146101000a81548160ff0219169083151502179055507f62e78cea01bee320cd4e420270b5ea74000d11b0c9f74754ebdbfc544b05a25861279661262b565b6040516127a3919061508c565b60405180910390a1565b6127b561151d565b6127f4576040517f08c379a00000000000000000000000000000000000000000000000000000000081526004016127eb90615298565b60405180910390fd5b6000600a60146101000a81548160ff0219169083151502179055507f5db9ee0a495bf2e6ff9c91a7834c1ba4fdd244a5e8aa4e537bd38aeae4b073aa61283861262b565b604051612845919061508c565b60405180910390a1565b600061285a826125bf565b612899576040517f08c379a0000000000000000000000000000000000000000000000000000000008152600401612890906153d8565b60405180910390fd5b60006128a483611534565b90508073ffffffffffffffffffffffffffffffffffffffff168473ffffffffffffffffffffffffffffffffffffffff16148061291357508373ffffffffffffffffffffffffffffffffffffffff166128fb84610af9565b73ffffffffffffffffffffffffffffffffffffffff16145b806129245750612923818561232d565b5b91505092915050565b8273ffffffffffffffffffffffffffffffffffffffff1661294d82611534565b73ffffffffffffffffffffffffffffffffffffffff16146129a3576040517f08c379a000000000000000000000000000000000000000000000000000000000815260040161299a906154f8565b60405180910390fd5b600073ffffffffffffffffffffffffffffffffffffffff168273ffffffffffffffffffffffffffffffffffffffff161415612a13576040517f08c379a0000000000000000000000000000000000000000000000000000000008152600401612a0a90615398565b60405180910390fd5b612a1e838383613260565b612a29600082612633565b6001600360008573ffffffffffffffffffffffffffffffffffffffff1673ffffffffffffffffffffffffffffffffffffffff1681526020019081526020016000206000828254612a799190615883565b925050819055506001600360008473ffffffffffffffffffffffffffffffffffffffff1673ffffffffffffffffffffffffffffffffffffffff1681526020019081526020016000206000828254612ad0919061576b565b92505081905550816002600083815260200190815260200160002060006101000a81548173ffffffffffffffffffffffffffffffffffffffff021916908373ffffffffffffffffffffffffffffffffffffffff160217905550808273ffffffffffffffffffffffffffffffffffffffff168473ffffffffffffffffffffffffffffffffffffffff167fddf252ad1be2c89b69c2b068fc378daa952ba7f163c4a11628f55a4df523b3ef60405160405180910390a4505050565b600032600143612b999190615883565b404284604051602001612baf9493929190614f84565b6040516020818303038152906040528051906020012060001c9050919050565b612bd7613e82565b612be082613374565b90506000600e612bef83613581565b604051612bfc9190615075565b9081526020016040518091039020541415612da35780600d600085815260200190815260200160002060008201518160000160006101000a81548160ff02191690831515021790555060208201518160000160016101000a81548160ff021916908360ff16021790555060408201518160000160026101000a81548160ff021916908360ff16021790555060608201518160000160036101000a81548160ff021916908360ff16021790555060808201518160000160046101000a81548160ff021916908360ff16021790555060a08201518160000160056101000a81548160ff021916908360ff16021790555060c08201518160000160066101000a81548160ff021916908360ff16021790555060e08201518160000160076101000a81548160ff021916908360ff1602179055506101008201518160000160086101000a81548160ff021916908360ff1602179055506101208201518160000160096101000a81548160ff021916908360ff16021790555090505082600e612d7f83613581565b604051612d8c9190615075565b908152602001604051809103902081905550612db8565b612db583612db084612b89565b612bcf565b90505b92915050565b6000600b54600c60009054906101000a900461ffff1661ffff16111580612df657506000600a60f584901c612df39190615b00565b14155b15612e0a57612e0361262b565b9050612f07565b6000603360009054906101000a900473ffffffffffffffffffffffffffffffffffffffff1673ffffffffffffffffffffffffffffffffffffffff16633c989e6a609085901c6040518263ffffffff1660e01b8152600401612e6b91906155ef565b60206040518083038186803b158015612e8357600080fd5b505afa158015612e97573d6000803e3d6000fd5b505050506040513d601f19601f82011682018060405250810190612ebb9190614069565b9050600073ffffffffffffffffffffffffffffffffffffffff168173ffffffffffffffffffffffffffffffffffffffff161415612f0257612efa61262b565b915050612f07565b809150505b919050565b6000600a60009054906101000a900473ffffffffffffffffffffffffffffffffffffffff16905081600a60006101000a81548173ffffffffffffffffffffffffffffffffffffffff021916908373ffffffffffffffffffffffffffffffffffffffff1602179055508173ffffffffffffffffffffffffffffffffffffffff168173ffffffffffffffffffffffffffffffffffffffff167f8be0079c531659141344cd1fd0a4f28419497f9722a3daafe3b4186f6b6457e060405160405180910390a35050565b8173ffffffffffffffffffffffffffffffffffffffff168373ffffffffffffffffffffffffffffffffffffffff161415613041576040517f08c379a0000000000000000000000000000000000000000000000000000000008152600401613038906153b8565b60405180910390fd5b80600560008573ffffffffffffffffffffffffffffffffffffffff1673ffffffffffffffffffffffffffffffffffffffff16815260200190815260200160002060008473ffffffffffffffffffffffffffffffffffffffff1673ffffffffffffffffffffffffffffffffffffffff16815260200190815260200160002060006101000a81548160ff0219169083151502179055508173ffffffffffffffffffffffffffffffffffffffff168373ffffffffffffffffffffffffffffffffffffffff167f17307eab39ab6107e8899845ad3d59bd9653f200f220920489ca2b5937696c3183604051613132919061516e565b60405180910390a3505050565b61314a84848461292d565b613156848484846135e0565b613195576040517f08c379a000000000000000000000000000000000000000000000000000000000815260040161318c906152d8565b60405180910390fd5b50505050565b60007f01ffc9a7000000000000000000000000000000000000000000000000000000007bffffffffffffffffffffffffffffffffffffffffffffffffffffffff1916827bffffffffffffffffffffffffffffffffffffffffffffffffffffffff1916149050919050565b61320f8383613777565b61321c60008484846135e0565b61325b576040517f08c379a0000000000000000000000000000000000000000000000000000000008152600401613252906152d8565b60405180910390fd5b505050565b61326b838383613945565b600073ffffffffffffffffffffffffffffffffffffffff168373ffffffffffffffffffffffffffffffffffffffff1614156132ae576132a98161394a565b6132ed565b8173ffffffffffffffffffffffffffffffffffffffff168373ffffffffffffffffffffffffffffffffffffffff16146132ec576132eb8382613993565b5b5b600073ffffffffffffffffffffffffffffffffffffffff168273ffffffffffffffffffffffffffffffffffffffff1614156133305761332b81613b00565b61336f565b8273ffffffffffffffffffffffffffffffffffffffff168273ffffffffffffffffffffffffffffffffffffffff161461336e5761336d8282613c43565b5b5b505050565b61337c613e82565b6000600a61ffff841661338f9190615b00565b1415816000019015159081151581525050600081600001516133b25760096133b5565b60005b9050601083901c92506133d861ffff84168260006133d391906157c1565b613cc2565b826020019060ff16908160ff1681525050601083901c925061340a61ffff841682600161340591906157c1565b613cc2565b826040019060ff16908160ff1681525050601083901c925061343c61ffff841682600261343791906157c1565b613cc2565b826060019060ff16908160ff1681525050601083901c925061346e61ffff841682600361346991906157c1565b613cc2565b826080019060ff16908160ff1681525050601083901c92506134a061ffff841682600461349b91906157c1565b613cc2565b8260a0019060ff16908160ff1681525050601083901c92506134d261ffff84168260056134cd91906157c1565b613cc2565b8260c0019060ff16908160ff1681525050601083901c925061350461ffff84168260066134ff91906157c1565b613cc2565b82610100019060ff16908160ff1681525050601083901c925061353761ffff841682600761353291906157c1565b613cc2565b8260e0019060ff16908160ff1681525050601083901c925061356961ffff841682600861356491906157c1565b613cc2565b82610120019060ff16908160ff168152505050919050565b606081600001518260200151836040015184608001518560c0015186610100015187606001518860e001518961012001516040516020016135ca99989796959493929190614fd2565b6040516020818303038152906040529050919050565b60006136018473ffffffffffffffffffffffffffffffffffffffff16613e6f565b1561376a578373ffffffffffffffffffffffffffffffffffffffff1663150b7a0261362a61262b565b8786866040518563ffffffff1660e01b815260040161364c94939291906150a7565b602060405180830381600087803b15801561366657600080fd5b505af192505050801561369757506040513d601f19601f820116820180604052508101906136949190614262565b60015b61371a573d80600081146136c7576040519150601f19603f3d011682016040523d82523d6000602084013e6136cc565b606091505b50600081511415613712576040517f08c379a0000000000000000000000000000000000000000000000000000000008152600401613709906152d8565b60405180910390fd5b805181602001fd5b63150b7a0260e01b7bffffffffffffffffffffffffffffffffffffffffffffffffffffffff1916817bffffffffffffffffffffffffffffffffffffffffffffffffffffffff19161491505061376f565b600190505b949350505050565b600073ffffffffffffffffffffffffffffffffffffffff168273ffffffffffffffffffffffffffffffffffffffff1614156137e7576040517f08c379a00000000000000000000000000000000000000000000000000000000081526004016137de90615498565b60405180910390fd5b6137f0816125bf565b15613830576040517f08c379a000000000000000000000000000000000000000000000000000000000815260040161382790615338565b60405180910390fd5b61383c60008383613260565b6001600360008473ffffffffffffffffffffffffffffffffffffffff1673ffffffffffffffffffffffffffffffffffffffff168152602001908152602001600020600082825461388c919061576b565b92505081905550816002600083815260200190815260200160002060006101000a81548173ffffffffffffffffffffffffffffffffffffffff021916908373ffffffffffffffffffffffffffffffffffffffff160217905550808273ffffffffffffffffffffffffffffffffffffffff16600073ffffffffffffffffffffffffffffffffffffffff167fddf252ad1be2c89b69c2b068fc378daa952ba7f163c4a11628f55a4df523b3ef60405160405180910390a45050565b505050565b6008805490506009600083815260200190815260200160002081905550600881908060018154018082558091505060019003906000526020600020016000909190919091505550565b600060016139a084611c6f565b6139aa9190615883565b9050600060076000848152602001908152602001600020549050818114613a8f576000600660008673ffffffffffffffffffffffffffffffffffffffff1673ffffffffffffffffffffffffffffffffffffffff168152602001908152602001600020600084815260200190815260200160002054905080600660008773ffffffffffffffffffffffffffffffffffffffff1673ffffffffffffffffffffffffffffffffffffffff168152602001908152602001600020600084815260200190815260200160002081905550816007600083815260200190815260200160002081905550505b6007600084815260200190815260200160002060009055600660008573ffffffffffffffffffffffffffffffffffffffff1673ffffffffffffffffffffffffffffffffffffffff16815260200190815260200160002060008381526020019081526020016000206000905550505050565b60006001600880549050613b149190615883565b9050600060096000848152602001908152602001600020549050600060088381548110613b6a577f4e487b7100000000000000000000000000000000000000000000000000000000600052603260045260246000fd5b906000526020600020015490508060088381548110613bb2577f4e487b7100000000000000000000000000000000000000000000000000000000600052603260045260246000fd5b906000526020600020018190555081600960008381526020019081526020016000208190555060096000858152602001908152602001600020600090556008805480613c27577f4e487b7100000000000000000000000000000000000000000000000000000000600052603160045260246000fd5b6001900381819060005260206000200160009055905550505050565b6000613c4e83611c6f565b905081600660008573ffffffffffffffffffffffffffffffffffffffff1673ffffffffffffffffffffffffffffffffffffffff168152602001908152602001600020600083815260200190815260200160002081905550806007600084815260200190815260200160002081905550505050565b600080600f8360ff1660128110613d02577f4e487b7100000000000000000000000000000000000000000000000000000000600052603260045260246000fd5b018054905084613d129190615b31565b9050600f8360ff1660128110613d51577f4e487b7100000000000000000000000000000000000000000000000000000000600052603260045260246000fd5b018160ff1681548110613d8d577f4e487b7100000000000000000000000000000000000000000000000000000000600052603260045260246000fd5b90600052602060002090602091828204019190069054906101000a900460ff1660ff1660088561ffff16901c61ffff161015613dcc5780915050613e69565b60218360ff1660128110613e09577f4e487b7100000000000000000000000000000000000000000000000000000000600052603260045260246000fd5b018160ff1681548110613e45577f4e487b7100000000000000000000000000000000000000000000000000000000600052603260045260246000fd5b90600052602060002090602091828204019190069054906101000a900460ff169150505b92915050565b600080823b905060008111915050919050565b604051806101400160405280600015158152602001600060ff168152602001600060ff168152602001600060ff168152602001600060ff168152602001600060ff168152602001600060ff168152602001600060ff168152602001600060ff168152602001600060ff1681525090565b6000613f05613f0084615656565b615625565b905082815260208101848484011115613f1d57600080fd5b613f288482856159bc565b509392505050565b6000613f43613f3e84615686565b615625565b905082815260208101848484011115613f5b57600080fd5b613f668482856159cb565b509392505050565b600081359050613f7d81615c49565b92915050565b600081519050613f9281615c49565b92915050565b600081359050613fa781615c60565b92915050565b600081359050613fbc81615c77565b92915050565b600081519050613fd181615c77565b92915050565b600082601f830112613fe857600080fd5b8135613ff8848260208601613ef2565b91505092915050565b600082601f83011261401257600080fd5b8151614022848260208601613f30565b91505092915050565b60008135905061403a81615c8e565b92915050565b60006020828403121561405257600080fd5b600061406084828501613f6e565b91505092915050565b60006020828403121561407b57600080fd5b600061408984828501613f83565b91505092915050565b600080604083850312156140a557600080fd5b60006140b385828601613f6e565b92505060206140c485828601613f6e565b9150509250929050565b6000806000606084860312156140e357600080fd5b60006140f186828701613f6e565b935050602061410286828701613f6e565b92505060406141138682870161402b565b9150509250925092565b6000806000806080858703121561413357600080fd5b600061414187828801613f6e565b945050602061415287828801613f6e565b93505060406141638782880161402b565b925050606085013567ffffffffffffffff81111561418057600080fd5b61418c87828801613fd7565b91505092959194509250565b600080604083850312156141ab57600080fd5b60006141b985828601613f6e565b92505060206141ca85828601613f98565b9150509250929050565b600080604083850312156141e757600080fd5b60006141f585828601613f6e565b92505060206142068582860161402b565b9150509250929050565b60006020828403121561422257600080fd5b600061423084828501613f98565b91505092915050565b60006020828403121561424b57600080fd5b600061425984828501613fad565b91505092915050565b60006020828403121561427457600080fd5b600061428284828501613fc2565b91505092915050565b60006020828403121561429d57600080fd5b600082013567ffffffffffffffff8111156142b757600080fd5b6142c384828501613fd7565b91505092915050565b6000602082840312156142de57600080fd5b600082015167ffffffffffffffff8111156142f857600080fd5b61430484828501614001565b91505092915050565b60006020828403121561431f57600080fd5b600061432d8482850161402b565b91505092915050565b6000806040838503121561434957600080fd5b60006143578582860161402b565b925050602061436885828601613f98565b9150509250929050565b6000806040838503121561438557600080fd5b60006143938582860161402b565b92505060206143a48582860161402b565b9150509250929050565b60006143ba83836144f5565b60208301905092915050565b60006143d28383614f0b565b60208301905092915050565b6143e7816158b7565b82525050565b6143fe6143f9826158b7565b615aa4565b82525050565b600061440f826156d6565b614419818561571c565b9350614424836156b6565b8060005b8381101561445557815161443c88826143ae565b975061444783615702565b925050600181019050614428565b5085935050505092915050565b600061446d826156e1565b614477818561572d565b9350614482836156c6565b8060005b838110156144b357815161449a88826143c6565b97506144a58361570f565b925050600181019050614486565b5085935050505092915050565b6144c9816158c9565b82525050565b6144d8816158c9565b82525050565b6144ef6144ea826158c9565b615ab6565b82525050565b6144fe816158d5565b82525050565b614515614510826158d5565b615ac8565b82525050565b6000614526826156ec565b614530818561573e565b93506145408185602086016159cb565b61454981615c1e565b840191505092915050565b600061455f826156ec565b614569818561574f565b93506145798185602086016159cb565b80840191505092915050565b61458e81615950565b82525050565b61459d81615974565b82525050565b6145ac81615998565b82525050565b60006145bd826156f7565b6145c7818561575a565b93506145d78185602086016159cb565b6145e081615c1e565b840191505092915050565b60006145f860148361575a565b91507f5061757361626c653a206e6f74207061757365640000000000000000000000006000830152602082019050919050565b6000614638602b8361575a565b91507f455243373231456e756d657261626c653a206f776e657220696e646578206f7560008301527f74206f6620626f756e64730000000000000000000000000000000000000000006020830152604082019050919050565b600061469e60328361575a565b91507f4552433732313a207472616e7366657220746f206e6f6e20455243373231526560008301527f63656976657220696d706c656d656e74657200000000000000000000000000006020830152604082019050919050565b600061470460268361575a565b91507f4f776e61626c653a206e6577206f776e657220697320746865207a65726f206160008301527f64647265737300000000000000000000000000000000000000000000000000006020830152604082019050919050565b600061476a60118361575a565b91507f416c6c20746f6b656e73206d696e7465640000000000000000000000000000006000830152602082019050919050565b60006147aa601c8361575a565b91507f4552433732313a20746f6b656e20616c7265616479206d696e746564000000006000830152602082019050919050565b60006147ea60168361575a565b91507f496e76616c6964207061796d656e7420616d6f756e74000000000000000000006000830152602082019050919050565b600061482a60088361575a565b91507f4f6e6c7920454f410000000000000000000000000000000000000000000000006000830152602082019050919050565b600061486a60248361575a565b91507f4552433732313a207472616e7366657220746f20746865207a65726f2061646460008301527f72657373000000000000000000000000000000000000000000000000000000006020830152604082019050919050565b60006148d060198361575a565b91507f4552433732313a20617070726f766520746f2063616c6c6572000000000000006000830152602082019050919050565b6000614910602c8361575a565b91507f4552433732313a206f70657261746f7220717565727920666f72206e6f6e657860008301527f697374656e7420746f6b656e00000000000000000000000000000000000000006020830152604082019050919050565b6000614976601f8361575a565b91507f416c6c20746f6b656e73206f6e2d73616c6520616c726561647920736f6c64006000830152602082019050919050565b60006149b660108361575a565b91507f5061757361626c653a20706175736564000000000000000000000000000000006000830152602082019050919050565b60006149f660388361575a565b91507f4552433732313a20617070726f76652063616c6c6572206973206e6f74206f7760008301527f6e6572206e6f7220617070726f76656420666f7220616c6c00000000000000006020830152604082019050919050565b6000614a5c602a8361575a565b91507f4552433732313a2062616c616e636520717565727920666f7220746865207a6560008301527f726f2061646472657373000000000000000000000000000000000000000000006020830152604082019050919050565b6000614ac260298361575a565b91507f4552433732313a206f776e657220717565727920666f72206e6f6e657869737460008301527f656e7420746f6b656e00000000000000000000000000000000000000000000006020830152604082019050919050565b6000614b2860208361575a565b91507f4552433732313a206d696e7420746f20746865207a65726f20616464726573736000830152602082019050919050565b6000614b68602c8361575a565b91507f4552433732313a20617070726f76656420717565727920666f72206e6f6e657860008301527f697374656e7420746f6b656e00000000000000000000000000000000000000006020830152604082019050919050565b6000614bce60208361575a565b91507f4f776e61626c653a2063616c6c6572206973206e6f7420746865206f776e65726000830152602082019050919050565b6000614c0e60298361575a565b91507f4552433732313a207472616e73666572206f6620746f6b656e2074686174206960008301527f73206e6f74206f776e00000000000000000000000000000000000000000000006020830152604082019050919050565b6000614c74602f8361575a565b91507f4552433732314d657461646174613a2055524920717565727920666f72206e6f60008301527f6e6578697374656e7420746f6b656e00000000000000000000000000000000006020830152604082019050919050565b6000614cda60218361575a565b91507f4552433732313a20617070726f76616c20746f2063757272656e74206f776e6560008301527f72000000000000000000000000000000000000000000000000000000000000006020830152604082019050919050565b6000614d4060318361575a565b91507f4552433732313a207472616e736665722063616c6c6572206973206e6f74206f60008301527f776e6572206e6f7220617070726f7665640000000000000000000000000000006020830152604082019050919050565b6000614da660138361575a565b91507f496e76616c6964206d696e7420616d6f756e74000000000000000000000000006000830152602082019050919050565b6000614de6602c8361575a565b91507f455243373231456e756d657261626c653a20676c6f62616c20696e646578206f60008301527f7574206f6620626f756e647300000000000000000000000000000000000000006020830152604082019050919050565b61014082016000820151614e5660008501826144c0565b506020820151614e696020850182614f4f565b506040820151614e7c6040850182614f4f565b506060820151614e8f6060850182614f4f565b506080820151614ea26080850182614f4f565b5060a0820151614eb560a0850182614f4f565b5060c0820151614ec860c0850182614f4f565b5060e0820151614edb60e0850182614f4f565b50610100820151614ef0610100850182614f4f565b50610120820151614f05610120850182614f4f565b50505050565b614f148161590b565b82525050565b614f238161590b565b82525050565b614f3281615939565b82525050565b614f49614f4482615939565b615ae4565b82525050565b614f5881615943565b82525050565b614f6781615943565b82525050565b614f7e614f7982615943565b615aee565b82525050565b6000614f9082876143ed565b601482019150614fa08286614504565b602082019150614fb08285614f38565b602082019150614fc08284614f38565b60208201915081905095945050505050565b6000614fde828c6144de565b600182019150614fee828b614f6d565b600182019150614ffe828a614f6d565b60018201915061500e8289614f6d565b60018201915061501e8288614f6d565b60018201915061502e8287614f6d565b60018201915061503e8286614f6d565b60018201915061504e8285614f6d565b60018201915061505e8284614f6d565b6001820191508190509a9950505050505050505050565b60006150818284614554565b915081905092915050565b60006020820190506150a160008301846143de565b92915050565b60006080820190506150bc60008301876143de565b6150c960208301866143de565b6150d66040830185614f29565b81810360608301526150e8818461451b565b905095945050505050565b600060408201905061510860008301856143de565b818103602083015261511a8184614462565b90509392505050565b600060408201905061513860008301856143de565b6151456020830184614f29565b9392505050565b600060208201905081810360008301526151668184614404565b905092915050565b600060208201905061518360008301846144cf565b92915050565b60006101408201905061519f600083018d6144cf565b6151ac602083018c614f5e565b6151b9604083018b614f5e565b6151c6606083018a614f5e565b6151d36080830189614f5e565b6151e060a0830188614f5e565b6151ed60c0830187614f5e565b6151fa60e0830186614f5e565b615208610100830185614f5e565b615216610120830184614f5e565b9b9a5050505050505050505050565b600060208201905061523a6000830184614585565b92915050565b60006020820190506152556000830184614594565b92915050565b600060208201905061527060008301846145a3565b92915050565b6000602082019050818103600083015261529081846145b2565b905092915050565b600060208201905081810360008301526152b1816145eb565b9050919050565b600060208201905081810360008301526152d18161462b565b9050919050565b600060208201905081810360008301526152f181614691565b9050919050565b60006020820190508181036000830152615311816146f7565b9050919050565b600060208201905081810360008301526153318161475d565b9050919050565b600060208201905081810360008301526153518161479d565b9050919050565b60006020820190508181036000830152615371816147dd565b9050919050565b600060208201905081810360008301526153918161481d565b9050919050565b600060208201905081810360008301526153b18161485d565b9050919050565b600060208201905081810360008301526153d1816148c3565b9050919050565b600060208201905081810360008301526153f181614903565b9050919050565b6000602082019050818103600083015261541181614969565b9050919050565b60006020820190508181036000830152615431816149a9565b9050919050565b60006020820190508181036000830152615451816149e9565b9050919050565b6000602082019050818103600083015261547181614a4f565b9050919050565b6000602082019050818103600083015261549181614ab5565b9050919050565b600060208201905081810360008301526154b181614b1b565b9050919050565b600060208201905081810360008301526154d181614b5b565b9050919050565b600060208201905081810360008301526154f181614bc1565b9050919050565b6000602082019050818103600083015261551181614c01565b9050919050565b6000602082019050818103600083015261553181614c67565b9050919050565b6000602082019050818103600083015261555181614ccd565b9050919050565b6000602082019050818103600083015261557181614d33565b9050919050565b6000602082019050818103600083015261559181614d99565b9050919050565b600060208201905081810360008301526155b181614dd9565b9050919050565b6000610140820190506155ce6000830184614e3f565b92915050565b60006020820190506155e96000830184614f1a565b92915050565b60006020820190506156046000830184614f29565b92915050565b600060208201905061561f6000830184614f5e565b92915050565b6000604051905081810181811067ffffffffffffffff8211171561564c5761564b615bef565b5b8060405250919050565b600067ffffffffffffffff82111561567157615670615bef565b5b601f19601f8301169050602081019050919050565b600067ffffffffffffffff8211156156a1576156a0615bef565b5b601f19601f8301169050602081019050919050565b6000819050602082019050919050565b6000819050602082019050919050565b600081519050919050565b600081519050919050565b600081519050919050565b600081519050919050565b6000602082019050919050565b6000602082019050919050565b600082825260208201905092915050565b600082825260208201905092915050565b600082825260208201905092915050565b600081905092915050565b600082825260208201905092915050565b600061577682615939565b915061578183615939565b9250827fffffffffffffffffffffffffffffffffffffffffffffffffffffffffffffffff038211156157b6576157b5615b62565b5b828201905092915050565b60006157cc82615943565b91506157d783615943565b92508260ff038211156157ed576157ec615b62565b5b828201905092915050565b600061580382615939565b915061580e83615939565b92508261581e5761581d615b91565b5b828204905092915050565b600061583482615939565b915061583f83615939565b9250817fffffffffffffffffffffffffffffffffffffffffffffffffffffffffffffffff048311821515161561587857615877615b62565b5b828202905092915050565b600061588e82615939565b915061589983615939565b9250828210156158ac576158ab615b62565b5b828203905092915050565b60006158c282615919565b9050919050565b60008115159050919050565b6000819050919050565b60007fffffffff0000000000000000000000000000000000000000000000000000000082169050919050565b600061ffff82169050919050565b600073ffffffffffffffffffffffffffffffffffffffff82169050919050565b6000819050919050565b600060ff82169050919050565b600061595b82615962565b9050919050565b600061596d82615919565b9050919050565b600061597f82615986565b9050919050565b600061599182615919565b9050919050565b60006159a3826159aa565b9050919050565b60006159b582615919565b9050919050565b82818337600083830152505050565b60005b838110156159e95780820151818401526020810190506159ce565b838111156159f8576000848401525b50505050565b60006002820490506001821680615a1657607f821691505b60208210811415615a2a57615a29615bc0565b5b50919050565b6000615a3b8261590b565b915061ffff821415615a5057615a4f615b62565b5b600182019050919050565b6000615a6682615939565b91507fffffffffffffffffffffffffffffffffffffffffffffffffffffffffffffffff821415615a9957615a98615b62565b5b600182019050919050565b6000615aaf82615ad2565b9050919050565b6000615ac182615aee565b9050919050565b6000819050919050565b6000615add82615c3c565b9050919050565b6000819050919050565b6000615af982615c2f565b9050919050565b6000615b0b82615939565b9150615b1683615939565b925082615b2657615b25615b91565b5b828206905092915050565b6000615b3c82615943565b9150615b4783615943565b925082615b5757615b56615b91565b5b828206905092915050565b7f4e487b7100000000000000000000000000000000000000000000000000000000600052601160045260246000fd5b7f4e487b7100000000000000000000000000000000000000000000000000000000600052601260045260246000fd5b7f4e487b7100000000000000000000000000000000000000000000000000000000600052602260045260246000fd5b7f4e487b7100000000000000000000000000000000000000000000000000000000600052604160045260246000fd5b6000601f19601f8301169050919050565b60008160f81b9050919050565b60008160601b9050919050565b615c52816158b7565b8114615c5d57600080fd5b50565b615c69816158c9565b8114615c7457600080fd5b50565b615c80816158df565b8114615c8b57600080fd5b50565b615c9781615939565b8114615ca257600080fd5b5056fea26469706673582212207fd9f43aa0aa63823d930298ceee7924a12ff44281d5208221914cfc5eea0c0b64736f6c63430008000033",
  "linkReferences": {},
  "deployedLinkReferences": {}
}