{
  "_format": "hh-sol-artifact-1",
  "contractName": "King",
  "sourceName": "contracts/King.sol",
  "abi": [
    {
      "anonymous": false,
      "inputs": [
        {
          "indexed": true,
          "internalType": "address",
          "name": "owner",
          "type": "address"
        },
        {
          "indexed": true,
          "internalType": "address",
          "name": "approved",
          "type": "address"
        },
        {
          "indexed": true,
          "internalType": "uint256",
          "name": "tokenId",
          "type": "uint256"
        }
      ],
      "name": "Approval",
      "type": "event"
    },
    {
      "anonymous": false,
      "inputs": [
        {
          "indexed": true,
          "internalType": "address",
          "name": "owner",
          "type": "address"
        },
        {
          "indexed": true,
          "internalType": "address",
          "name": "operator",
          "type": "address"
        },
        {
          "indexed": false,
          "internalType": "bool",
          "name": "approved",
          "type": "bool"
        }
      ],
      "name": "ApprovalForAll",
      "type": "event"
    },
    {
      "anonymous": false,
      "inputs": [
        {
          "indexed": true,
          "internalType": "address",
          "name": "previousOwner",
          "type": "address"
        },
        {
          "indexed": true,
          "internalType": "address",
          "name": "newOwner",
          "type": "address"
        }
      ],
      "name": "OwnershipTransferred",
      "type": "event"
    },
    {
      "anonymous": false,
      "inputs": [
        {
          "indexed": false,
          "internalType": "address",
          "name": "account",
          "type": "address"
        }
      ],
      "name": "Paused",
      "type": "event"
    },
    {
      "anonymous": false,
      "inputs": [
        {
          "indexed": true,
          "internalType": "address",
          "name": "from",
          "type": "address"
        },
        {
          "indexed": true,
          "internalType": "address",
          "name": "to",
          "type": "address"
        },
        {
          "indexed": true,
          "internalType": "uint256",
          "name": "tokenId",
          "type": "uint256"
        }
      ],
      "name": "Transfer",
      "type": "event"
    },
    {
      "anonymous": false,
      "inputs": [
        {
          "indexed": false,
          "internalType": "address",
          "name": "account",
          "type": "address"
        }
      ],
      "name": "Unpaused",
      "type": "event"
    },
    {
      "inputs": [],
      "name": "MAX_TOKENS",
      "outputs": [
        {
          "internalType": "uint256",
          "name": "",
          "type": "uint256"
        }
      ],
      "stateMutability": "view",
      "type": "function"
    },
    {
      "inputs": [],
      "name": "MINT_ADDR_LIMIT",
      "outputs": [
        {
          "internalType": "uint256",
          "name": "",
          "type": "uint256"
        }
      ],
      "stateMutability": "view",
      "type": "function"
    },
    {
      "inputs": [],
      "name": "MINT_PRICE",
      "outputs": [
        {
          "internalType": "uint256",
          "name": "",
          "type": "uint256"
        }
      ],
      "stateMutability": "view",
      "type": "function"
    },
    {
      "inputs": [],
      "name": "MINT_PRICE_INV",
      "outputs": [
        {
          "internalType": "uint256",
          "name": "",
          "type": "uint256"
        }
      ],
      "stateMutability": "view",
      "type": "function"
    },
    {
      "inputs": [],
      "name": "PAID_TOKENS",
      "outputs": [
        {
          "internalType": "uint256",
          "name": "",
          "type": "uint256"
        }
      ],
      "stateMutability": "view",
      "type": "function"
    },
    {
      "inputs": [
        {
          "internalType": "address",
          "name": "white",
          "type": "address"
        }
      ],
      "name": "addAddressToWhitelist",
      "outputs": [],
      "stateMutability": "nonpayable",
      "type": "function"
    },
    {
      "inputs": [
        {
          "internalType": "uint256",
          "name": "",
          "type": "uint256"
        },
        {
          "internalType": "uint256",
          "name": "",
          "type": "uint256"
        }
      ],
      "name": "aliases",
      "outputs": [
        {
          "internalType": "uint8",
          "name": "",
          "type": "uint8"
        }
      ],
      "stateMutability": "view",
      "type": "function"
    },
    {
      "inputs": [
        {
          "internalType": "address",
          "name": "to",
          "type": "address"
        },
        {
          "internalType": "uint256",
          "name": "tokenId",
          "type": "uint256"
        }
      ],
      "name": "approve",
      "outputs": [],
      "stateMutability": "nonpayable",
      "type": "function"
    },
    {
      "inputs": [
        {
          "internalType": "address",
          "name": "owner",
          "type": "address"
        }
      ],
      "name": "balanceOf",
      "outputs": [
        {
          "internalType": "uint256",
          "name": "",
          "type": "uint256"
        }
      ],
      "stateMutability": "view",
      "type": "function"
    },
    {
      "inputs": [],
      "name": "baseURI",
      "outputs": [
        {
          "internalType": "string",
          "name": "",
          "type": "string"
        }
      ],
      "stateMutability": "view",
      "type": "function"
    },
    {
      "inputs": [
        {
          "internalType": "address",
          "name": "_newaddress",
          "type": "address"
        }
      ],
      "name": "changeLinkAddress",
      "outputs": [],
      "stateMutability": "nonpayable",
      "type": "function"
    },
    {
      "inputs": [
        {
          "internalType": "uint256",
          "name": "_fee",
          "type": "uint256"
        }
      ],
      "name": "changeLinkFee",
      "outputs": [],
      "stateMutability": "nonpayable",
      "type": "function"
    },
    {
      "inputs": [
        {
          "internalType": "bytes32",
          "name": "_newhash",
          "type": "bytes32"
        }
      ],
      "name": "changeLinkHash",
      "outputs": [],
      "stateMutability": "nonpayable",
      "type": "function"
    },
    {
      "inputs": [],
      "name": "fee",
      "outputs": [
        {
          "internalType": "uint256",
          "name": "",
          "type": "uint256"
        }
      ],
      "stateMutability": "view",
      "type": "function"
    },
    {
      "inputs": [],
      "name": "flipPublicSale",
      "outputs": [],
      "stateMutability": "nonpayable",
      "type": "function"
    },
    {
      "inputs": [
        {
          "internalType": "uint256",
          "name": "tokenId",
          "type": "uint256"
        }
      ],
      "name": "getApproved",
      "outputs": [
        {
          "internalType": "address",
          "name": "",
          "type": "address"
        }
      ],
      "stateMutability": "view",
      "type": "function"
    },
    {
      "inputs": [
        {
          "internalType": "address",
          "name": "_owner",
          "type": "address"
        }
      ],
      "name": "getTokenIds",
      "outputs": [
        {
          "internalType": "uint256[]",
          "name": "_tokensOfOwner",
          "type": "uint256[]"
        }
      ],
      "stateMutability": "view",
      "type": "function"
    },
    {
      "inputs": [
        {
          "internalType": "uint256",
          "name": "tokenId",
          "type": "uint256"
        }
      ],
      "name": "getTokenTraits",
      "outputs": [
        {
          "components": [
            {
              "internalType": "bool",
              "name": "isPeasant",
              "type": "bool"
            },
            {
              "internalType": "uint8[19]",
              "name": "traitarray",
              "type": "uint8[19]"
            },
            {
              "internalType": "uint8",
              "name": "alphaIndex",
              "type": "uint8"
            }
          ],
          "internalType": "struct King.PeasantKing",
          "name": "",
          "type": "tuple"
        }
      ],
      "stateMutability": "view",
      "type": "function"
    },
    {
      "inputs": [
        {
          "internalType": "address[]",
          "name": "white",
          "type": "address[]"
        },
        {
          "internalType": "uint8",
          "name": "length",
          "type": "uint8"
        }
      ],
      "name": "getwhitelist",
      "outputs": [],
      "stateMutability": "nonpayable",
      "type": "function"
    },
    {
      "inputs": [
        {
          "internalType": "address",
          "name": "_wheat",
          "type": "address"
        },
        {
          "internalType": "address",
          "name": "_renderer",
          "type": "address"
        },
        {
          "internalType": "address",
          "name": "_vrfCoordinator",
          "type": "address"
        },
        {
          "internalType": "address",
          "name": "_link",
          "type": "address"
        },
        {
          "internalType": "address",
          "name": "_weth",
          "type": "address"
        }
      ],
      "name": "initialize",
      "outputs": [],
      "stateMutability": "nonpayable",
      "type": "function"
    },
    {
      "inputs": [
        {
          "internalType": "address",
          "name": "owner",
          "type": "address"
        },
        {
          "internalType": "address",
          "name": "operator",
          "type": "address"
        }
      ],
      "name": "isApprovedForAll",
      "outputs": [
        {
          "internalType": "bool",
          "name": "",
          "type": "bool"
        }
      ],
      "stateMutability": "view",
      "type": "function"
    },
    {
      "inputs": [],
      "name": "linkToken",
      "outputs": [
        {
          "internalType": "address",
          "name": "",
          "type": "address"
        }
      ],
      "stateMutability": "view",
      "type": "function"
    },
    {
      "inputs": [],
      "name": "maxWhitelistedAddresses",
      "outputs": [
        {
          "internalType": "uint16",
          "name": "",
          "type": "uint16"
        }
      ],
      "stateMutability": "view",
      "type": "function"
    },
    {
      "inputs": [],
      "name": "mine",
      "outputs": [
        {
          "internalType": "contract IMine",
          "name": "",
          "type": "address"
        }
      ],
      "stateMutability": "view",
      "type": "function"
    },
    {
      "inputs": [
        {
          "internalType": "uint256",
          "name": "amount",
          "type": "uint256"
        }
      ],
      "name": "mint",
      "outputs": [],
      "stateMutability": "payable",
      "type": "function"
    },
    {
      "inputs": [
        {
          "internalType": "uint256",
          "name": "tokenId",
          "type": "uint256"
        }
      ],
      "name": "mintCostForWheat",
      "outputs": [
        {
          "internalType": "uint256",
          "name": "",
          "type": "uint256"
        }
      ],
      "stateMutability": "view",
      "type": "function"
    },
    {
      "inputs": [],
      "name": "minted",
      "outputs": [
        {
          "internalType": "uint16",
          "name": "",
          "type": "uint16"
        }
      ],
      "stateMutability": "view",
      "type": "function"
    },
    {
      "inputs": [],
      "name": "name",
      "outputs": [
        {
          "internalType": "string",
          "name": "",
          "type": "string"
        }
      ],
      "stateMutability": "view",
      "type": "function"
    },
    {
      "inputs": [],
      "name": "numAddressesWhitelisted",
      "outputs": [
        {
          "internalType": "uint8",
          "name": "",
          "type": "uint8"
        }
      ],
      "stateMutability": "view",
      "type": "function"
    },
    {
      "inputs": [],
      "name": "owner",
      "outputs": [
        {
          "internalType": "address",
          "name": "",
          "type": "address"
        }
      ],
      "stateMutability": "view",
      "type": "function"
    },
    {
      "inputs": [
        {
          "internalType": "uint256",
          "name": "tokenId",
          "type": "uint256"
        }
      ],
      "name": "ownerOf",
      "outputs": [
        {
          "internalType": "address",
          "name": "",
          "type": "address"
        }
      ],
      "stateMutability": "view",
      "type": "function"
    },
    {
      "inputs": [],
      "name": "paused",
      "outputs": [
        {
          "internalType": "bool",
          "name": "",
          "type": "bool"
        }
      ],
      "stateMutability": "view",
      "type": "function"
    },
    {
      "inputs": [
        {
          "internalType": "uint256",
          "name": "",
          "type": "uint256"
        },
        {
          "internalType": "uint256",
          "name": "",
          "type": "uint256"
        }
      ],
      "name": "rarities",
      "outputs": [
        {
          "internalType": "uint8",
          "name": "",
          "type": "uint8"
        }
      ],
      "stateMutability": "view",
      "type": "function"
    },
    {
      "inputs": [
        {
          "internalType": "bytes32",
          "name": "requestId",
          "type": "bytes32"
        },
        {
          "internalType": "uint256",
          "name": "randomness",
          "type": "uint256"
        }
      ],
      "name": "rawFulfillRandomness",
      "outputs": [],
      "stateMutability": "nonpayable",
      "type": "function"
    },
    {
      "inputs": [],
      "name": "renderer",
      "outputs": [
        {
          "internalType": "contract IRenderer",
          "name": "",
          "type": "address"
        }
      ],
      "stateMutability": "view",
      "type": "function"
    },
    {
      "inputs": [],
      "name": "renounceOwnership",
      "outputs": [],
      "stateMutability": "nonpayable",
      "type": "function"
    },
    {
      "inputs": [
        {
          "internalType": "address",
          "name": "from",
          "type": "address"
        },
        {
          "internalType": "address",
          "name": "to",
          "type": "address"
        },
        {
          "internalType": "uint256",
          "name": "tokenId",
          "type": "uint256"
        }
      ],
      "name": "safeTransferFrom",
      "outputs": [],
      "stateMutability": "nonpayable",
      "type": "function"
    },
    {
      "inputs": [
        {
          "internalType": "address",
          "name": "from",
          "type": "address"
        },
        {
          "internalType": "address",
          "name": "to",
          "type": "address"
        },
        {
          "internalType": "uint256",
          "name": "tokenId",
          "type": "uint256"
        },
        {
          "internalType": "bytes",
          "name": "_data",
          "type": "bytes"
        }
      ],
      "name": "safeTransferFrom",
      "outputs": [],
      "stateMutability": "nonpayable",
      "type": "function"
    },
    {
      "inputs": [
        {
          "internalType": "address",
          "name": "operator",
          "type": "address"
        },
        {
          "internalType": "bool",
          "name": "approved",
          "type": "bool"
        }
      ],
      "name": "setApprovalForAll",
      "outputs": [],
      "stateMutability": "nonpayable",
      "type": "function"
    },
    {
      "inputs": [
        {
          "internalType": "string",
          "name": "newUri",
          "type": "string"
        }
      ],
      "name": "setBaseURI",
      "outputs": [],
      "stateMutability": "nonpayable",
      "type": "function"
    },
    {
      "inputs": [
        {
          "internalType": "address",
          "name": "_mine",
          "type": "address"
        }
      ],
      "name": "setMine",
      "outputs": [],
      "stateMutability": "nonpayable",
      "type": "function"
    },
    {
      "inputs": [
        {
          "internalType": "uint256",
          "name": "num",
          "type": "uint256"
        }
      ],
      "name": "setPaidTokens",
      "outputs": [],
      "stateMutability": "nonpayable",
      "type": "function"
    },
    {
      "inputs": [
        {
          "internalType": "bool",
          "name": "_paused",
          "type": "bool"
        }
      ],
      "name": "setPaused",
      "outputs": [],
      "stateMutability": "nonpayable",
      "type": "function"
    },
    {
      "inputs": [
        {
          "internalType": "address",
          "name": "_renderer",
          "type": "address"
        }
      ],
      "name": "setRenderer",
      "outputs": [],
      "stateMutability": "nonpayable",
      "type": "function"
    },
    {
      "inputs": [
        {
          "internalType": "address",
          "name": "newWeth",
          "type": "address"
        }
      ],
      "name": "setWeth",
      "outputs": [],
      "stateMutability": "nonpayable",
      "type": "function"
    },
    {
      "inputs": [
        {
          "internalType": "address",
          "name": "erc20Address",
          "type": "address"
        }
      ],
      "name": "setWheat",
      "outputs": [],
      "stateMutability": "nonpayable",
      "type": "function"
    },
    {
      "inputs": [
        {
          "internalType": "bytes4",
          "name": "interfaceId",
          "type": "bytes4"
        }
      ],
      "name": "supportsInterface",
      "outputs": [
        {
          "internalType": "bool",
          "name": "",
          "type": "bool"
        }
      ],
      "stateMutability": "view",
      "type": "function"
    },
    {
      "inputs": [],
      "name": "symbol",
      "outputs": [
        {
          "internalType": "string",
          "name": "",
          "type": "string"
        }
      ],
      "stateMutability": "view",
      "type": "function"
    },
    {
      "inputs": [
        {
          "internalType": "uint256",
          "name": "index",
          "type": "uint256"
        }
      ],
      "name": "tokenByIndex",
      "outputs": [
        {
          "internalType": "uint256",
          "name": "",
          "type": "uint256"
        }
      ],
      "stateMutability": "view",
      "type": "function"
    },
    {
      "inputs": [
        {
          "internalType": "address",
          "name": "owner",
          "type": "address"
        },
        {
          "internalType": "uint256",
          "name": "index",
          "type": "uint256"
        }
      ],
      "name": "tokenOfOwnerByIndex",
      "outputs": [
        {
          "internalType": "uint256",
          "name": "",
          "type": "uint256"
        }
      ],
      "stateMutability": "view",
      "type": "function"
    },
    {
      "inputs": [
        {
          "internalType": "uint256",
          "name": "tokenId",
          "type": "uint256"
        }
      ],
      "name": "tokenURI",
      "outputs": [
        {
          "internalType": "string",
          "name": "",
          "type": "string"
        }
      ],
      "stateMutability": "view",
      "type": "function"
    },
    {
      "inputs": [],
      "name": "totalSupply",
      "outputs": [
        {
          "internalType": "uint256",
          "name": "",
          "type": "uint256"
        }
      ],
      "stateMutability": "view",
      "type": "function"
    },
    {
      "inputs": [
        {
          "internalType": "address",
          "name": "from",
          "type": "address"
        },
        {
          "internalType": "address",
          "name": "to",
          "type": "address"
        },
        {
          "internalType": "uint256",
          "name": "tokenId",
          "type": "uint256"
        }
      ],
      "name": "transferFrom",
      "outputs": [],
      "stateMutability": "nonpayable",
      "type": "function"
    },
    {
      "inputs": [
        {
          "internalType": "address",
          "name": "_new",
          "type": "address"
        }
      ],
      "name": "transferOnwer",
      "outputs": [],
      "stateMutability": "nonpayable",
      "type": "function"
    },
    {
      "inputs": [
        {
          "internalType": "address",
          "name": "newOwner",
          "type": "address"
        }
      ],
      "name": "transferOwnership",
      "outputs": [],
      "stateMutability": "nonpayable",
      "type": "function"
    },
    {
      "inputs": [],
      "name": "vrfcooldown",
      "outputs": [
        {
          "internalType": "uint256",
          "name": "",
          "type": "uint256"
        }
      ],
      "stateMutability": "view",
      "type": "function"
    },
    {
      "inputs": [],
      "name": "weth",
      "outputs": [
        {
          "internalType": "contract IERC20Upgradeable",
          "name": "",
          "type": "address"
        }
      ],
      "stateMutability": "view",
      "type": "function"
    },
    {
      "inputs": [],
      "name": "wheat",
      "outputs": [
        {
          "internalType": "contract IWheat",
          "name": "",
          "type": "address"
        }
      ],
      "stateMutability": "view",
      "type": "function"
    },
    {
      "inputs": [
        {
          "internalType": "address",
          "name": "",
          "type": "address"
        }
      ],
      "name": "whitelistedAddresses",
      "outputs": [
        {
          "internalType": "bool",
          "name": "",
          "type": "bool"
        }
      ],
      "stateMutability": "view",
      "type": "function"
    },
    {
      "inputs": [],
      "name": "withdraw",
      "outputs": [],
      "stateMutability": "payable",
      "type": "function"
    },
    {
      "inputs": [],
      "name": "withdrawLINK",
      "outputs": [],
      "stateMutability": "nonpayable",
      "type": "function"
    },
    {
      "inputs": [],
      "name": "withdrawWeth",
      "outputs": [],
      "stateMutability": "nonpayable",
      "type": "function"
    }
  ],
  "bytecode": "0x608060405234801561001057600080fd5b50615b8580620000216000396000f3fe6080604052600436106103ac5760003560e01c80636352211e116101e7578063a0712d681161010d578063c87b56dd116100a0578063f2fde38b1161006f578063f2fde38b14610ac8578063f47c84c514610ae8578063f4af0ab514610afe578063fc68f75b14610b1e57600080fd5b8063c87b56dd14610a1b578063d004b03614610a3b578063ddca3f4314610a68578063e985e9c514610a7f57600080fd5b8063b8d1452f116100dc578063b8d1452f146109c4578063bf713d38146109e4578063c002d23d146106fa578063c084f54014610a0457600080fd5b8063a0712d681461095c578063a22cb4651461096f578063adc2112f1461098f578063b88d4fde146109a457600080fd5b8063880846051161018557806394e568471161015457806394e56847146108e257806395d89b411461090f57806399e4d8ef1461092457806399f4b2511461093b57600080fd5b8063880846051461086e5780638ada6b0f146108835780638da5cb5b146108a457806394985ddd146108c257600080fd5b8063715018a6116101c1578063715018a6146107f9578063717e6ffc1461080e5780637b9417c81461082e578063873efeff1461084e57600080fd5b80636352211e146107a45780636c0360eb146107c457806370a08231146107d957600080fd5b806336838391116102d75780635109dbb31161026a57806357970e931161023957806357970e93146107355780635a862dcc146107565780635c975abb1461076b5780635e8eeb7a1461078457600080fd5b80635109dbb3146106c557806355f804b3146106da578063569c9e8e146106fa57806356d3163d1461071557600080fd5b806342842e0e116102a657806342842e0e146106495780634952a392146106695780634f02c420146106895780634f6ccce7146106a557600080fd5b806336838391146105e55780633ccfd60b146106055780633fc8cef31461060d5780634011d7cd1461062e57600080fd5b80631459457a1161034f5780632f745c591161031e5780632f745c591461055557806331a721881461057557806333df4b2c146105985780633431a753146105c557600080fd5b80631459457a146104d757806316c38b3c146104f757806318160ddd1461051757806323b872dd1461053557600080fd5b806306fdde031161038b57806306fdde031461043a578063081812fc1461045c578063095ea7b3146104895780630e357738146104a957600080fd5b80621333a7146103b157806301ffc9a7146103d357806306c933d814610409575b600080fd5b3480156103bd57600080fd5b506103d16103cc3660046143c1565b610b3e565b005b3480156103df57600080fd5b506103f36103ee3660046146bf565b610b99565b60405161040091906154d5565b60405180910390f35b34801561041557600080fd5b506103f36104243660046143c1565b6101666020526000908152604090205460ff1681565b34801561044657600080fd5b5061044f610bc4565b6040516104009190615534565b34801561046857600080fd5b5061047c61047736600461467c565b610c56565b6040516104009190615406565b34801561049557600080fd5b506103d16104a43660046145ba565b610ca6565b3480156104b557600080fd5b50610191546104ca906001600160a01b031681565b6040516104009190615526565b3480156104e357600080fd5b506103d16104f2366004614440565b610d2c565b34801561050357600080fd5b506103d161051236600461463a565b61169a565b34801561052357600080fd5b5060cb545b60405161040091906157a2565b34801561054157600080fd5b506103d16105503660046144b8565b6116dd565b34801561056157600080fd5b506105286105703660046145ba565b61172a565b34801561058157600080fd5b5061058b61015e81565b6040516104009190615794565b3480156105a457600080fd5b506105b86105b336600461469d565b6117ad565b60405161040091906157d9565b3480156105d157600080fd5b506103d16105e036600461467c565b6117f4565b3480156105f157600080fd5b506105b861060036600461469d565b611824565b6103d1611835565b34801561061957600080fd5b50610193546104ca906001600160a01b031681565b34801561063a57600080fd5b50610167546105b89060ff1681565b34801561065557600080fd5b506103d16106643660046144b8565b611899565b34801561067557600080fd5b506103d16106843660046143c1565b6118b4565b34801561069557600080fd5b506101645461058b9061ffff1681565b3480156106b157600080fd5b506105286106c036600461467c565b6118e7565b3480156106d157600080fd5b50610528602881565b3480156106e657600080fd5b506103d16106f5366004614701565b611955565b34801561070657600080fd5b5061052866470de4df82000081565b34801561072157600080fd5b506103d16107303660046143c1565b611993565b34801561074157600080fd5b5061019a5461047c906001600160a01b031681565b34801561076257600080fd5b506103d16119e0565b34801561077757600080fd5b5061012d5460ff166103f3565b34801561079057600080fd5b506103d161079f3660046143c1565b611b18565b3480156107b057600080fd5b5061047c6107bf36600461467c565b611b65565b3480156107d057600080fd5b5061044f611b9a565b3480156107e557600080fd5b506105286107f43660046143c1565b611c29565b34801561080557600080fd5b506103d1611c6d565b34801561081a57600080fd5b506103d161082936600461467c565b611ca3565b34801561083a57600080fd5b506103d16108493660046143c1565b611cd3565b34801561085a57600080fd5b506103d161086936600461467c565b611d8f565b34801561087a57600080fd5b506103d1611dbf565b34801561088f57600080fd5b50610192546104ca906001600160a01b031681565b3480156108b057600080fd5b5060fb546001600160a01b031661047c565b3480156108ce57600080fd5b506103d16108dd36600461469d565b611e0b565b3480156108ee57600080fd5b506109026108fd36600461467c565b611e40565b6040516104009190615785565b34801561091b57600080fd5b5061044f611ed6565b34801561093057600080fd5b5061052861019b5481565b34801561094757600080fd5b50610190546104ca906001600160a01b031681565b6103d161096a36600461467c565b611ee5565b34801561097b57600080fd5b506103d161098a366004614587565b61255d565b34801561099b57600080fd5b506103d1612568565b3480156109b057600080fd5b506103d16109bf366004614508565b612648565b3480156109d057600080fd5b506103d16109df3660046143c1565b612680565b3480156109f057600080fd5b506103d16109ff3660046145ed565b6126cd565b348015610a1057600080fd5b506105286101635481565b348015610a2757600080fd5b5061044f610a3636600461467c565b61273f565b348015610a4757600080fd5b50610a5b610a563660046143c1565b61285d565b60405161040091906154c4565b348015610a7457600080fd5b506105286101975481565b348015610a8b57600080fd5b506103f3610a9a366004614403565b6001600160a01b039182166000908152609c6020908152604080832093909416825291909152205460ff1690565b348015610ad457600080fd5b506103d1610ae33660046143c1565b6128fe565b348015610af457600080fd5b506105286161a881565b348015610b0a57600080fd5b50610528610b1936600461467c565b612957565b348015610b2a57600080fd5b506103d1610b393660046143c1565b6129c6565b60fb546001600160a01b03163314610b715760405162461bcd60e51b8152600401610b68906156b5565b60405180910390fd5b61019080546001600160a01b0319166001600160a01b038316179055610b95612a13565b5050565b60006001600160e01b0319821663780e9d6360e01b1480610bbe5750610bbe82612acd565b92915050565b606060978054610bd390615990565b80601f0160208091040260200160405190810160405280929190818152602001828054610bff90615990565b8015610c4c5780601f10610c2157610100808354040283529160200191610c4c565b820191906000526020600020905b815481529060010190602001808311610c2f57829003601f168201915b5050505050905090565b6000818152609960205260408120546001600160a01b0316610c8a5760405162461bcd60e51b8152600401610b68906156a5565b506000908152609b60205260409020546001600160a01b031690565b6000610cb182611b65565b9050806001600160a01b0316836001600160a01b03161415610ce55760405162461bcd60e51b8152600401610b68906156e5565b336001600160a01b0382161480610d015750610d018133610a9a565b610d1d5760405162461bcd60e51b8152600401610b6890615645565b610d278383612b1d565b505050565b600054610100900460ff16610d475760005460ff1615610d4b565b303b155b610d675760405162461bcd60e51b8152600401610b6890615675565b600054610100900460ff16158015610d89576000805461ffff19166101011790555b610dd3604051806040016040528060098152602001684b696e672047616d6560b81b815250604051806040016040528060078152602001664b494e47414d4560c81b815250612b8b565b610ddb612bcc565b610de3612c55565b610deb612c8c565b610df3612cbb565b610dfd8484612cf2565b7f6e75b569a01ef56d18cab6a8e71e6600d6ce853834d4a5748b720d06f878b3a461019655655af3107a40006101975561019a80546001600160a01b0385166001600160a01b031990911617905561012c61019b5561019480546001600160a81b03191673c7fe2cbf0a91b3cd12fb7298dbad9a8491a3434e17905561138861016355610e88612d9d565b61019180546001600160a01b038881166001600160a01b03199283161790925561019280548884169083161790556101938054928516929091169190911790556040805160808101825260bd815260c5602082015260cc9181019190915260d96060820152610efc9061016a90600461404f565b50604080516020810190915260ff8152610f1b9061016b90600161404f565b506040805160608101825260c5815260cc602082015260d991810191909152610f499061016c90600361404f565b50604080516101208101825260338152603b6020820152604391810191909152607d60608201526083608082015260bd60a082015260c560c082015260cc60e082015260d9610100820152610fa39061016d90600961404f565b506040805160a081018252603b81526076602082015260a49181019190915260c5606082015260de6080820152610fdf9061016e90600561404f565b506040805160c081018252607d81526083602082015260bd9181019190915260c5606082015260cc608082015260d960a08201526110229061016f90600661404f565b50604080516060810182526091815260c5602082015260cd918101919091526110509061017090600361404f565b506040805160e081018252601a8152603b6020820152606f918101919091526091606082015260c5608082015260cd60a082015260fc60c082015261109a9061017190600761404f565b506040805160a081018252603b8152606f602082015260919181019190915260c5606082015260c960808201526110d69061017290600561404f565b506040805160808101825260038152600260208201526001918101919091526000606082015261110b9061017d90600461404f565b5060408051602081019091526000815261112a9061017e90600161404f565b506040805160608101825260028152600160208201526000918101919091526111589061017f90600361404f565b50604080516101208101825260088152600760208201526006918101919091526005606082015260046080820152600360a0820152600260c0820152600160e082015260006101008201526111b29061018090600961404f565b506040805160a081018252600481526003602082015260029181019190915260016060820152600060808201526111ee9061018190600561404f565b506040805160c08101825260058152600460208201526003918101919091526002606082015260016080820152600060a08201526112319061018290600661404f565b5060408051606081018252600281526001602082015260009181019190915261125f9061018390600361404f565b506040805160e08101825260068152600560208201526004918101919091526003606082015260026080820152600160a0820152600060c08201526112a99061018490600761404f565b506040805160a081018252600481526003602082015260029181019190915260016060820152600060808201526112e59061018590600561404f565b506040805180820190915260f4815260ff602082015261130a9061017390600261404f565b506040805160808101825260bd815260c5602082015260cc9181019190915260d9606082015261133f9061017490600461404f565b506040805180820190915260cc815260d960208201526113649061017590600261404f565b50604080518082019091526083815260d460208201526113899061017690600261404f565b506040805160608101825260c5815260cc602082015260d9918101919091526113b79061017790600361404f565b5060408051608081018252607d8152609e602082015260cc9181019190915260d960608201526113ec9061017890600461404f565b5060408051608081018252606681526099602082015260cc9181019190915260fe60608201526114219061017990600461404f565b5060408051608081018252603b8152606f602082015260919181019190915260c560608201526114569061017a90600461404f565b5060408051606081018252606f81526091602082015260c5918101919091526114849061017b90600361404f565b5060408051606081018252607081526091602082015260c5918101919091526114b29061017c90600361404f565b506040805180820190915260018152600060208201526114d79061018690600261404f565b506040805160808101825260038152600260208201526001918101919091526000606082015261150c9061018790600461404f565b506040805180820190915260018152600060208201526115319061018890600261404f565b506040805180820190915260018152600060208201526115569061018990600261404f565b506040805160608101825260028152600160208201526000918101919091526115849061018a90600361404f565b50604080516080810182526003815260026020820152600191810191909152600060608201526115b99061018b90600461404f565b50604080516080810182526003815260026020820152600191810191909152600060608201526115ee9061018c90600461404f565b50604080516080810182526003815260026020820152600191810191909152600060608201526116239061018d90600461404f565b506040805160608101825260028152600160208201526000918101919091526116519061018e90600361404f565b5060408051606081018252600281526001602082015260009181019190915261167f9061018f90600361404f565b508015611692576000805461ff00191690555b505050505050565b60fb546001600160a01b031633146116c45760405162461bcd60e51b8152600401610b68906156b5565b80156116d5576116d2612d9d565b50565b6116d2612e0e565b610190546001600160a01b0316336001600160a01b03161461171f576117033382612e63565b61171f5760405162461bcd60e51b8152600401610b68906156f5565b610d27838383612f15565b6000611740335b6001600160a01b03163b151590565b1561175d5760405162461bcd60e51b8152600401610b68906155e5565b61176683611c29565b82106117845760405162461bcd60e51b8152600401610b6890615555565b506001600160a01b0391909116600090815260c960209081526040808320938352929052205490565b61016a82601381106117be57600080fd5b0181815481106117cd57600080fd5b9060005260206000209060209182820401919006915091509054906101000a900460ff1681565b60fb546001600160a01b0316331461181e5760405162461bcd60e51b8152600401610b68906156b5565b61016355565b61017d82601381106117be57600080fd5b60fb546001600160a01b0316331461185f5760405162461bcd60e51b8152600401610b68906156b5565b610194546040516001600160a01b03909116904780156108fc02916000818181858888f193505050501580156116d2573d6000803e3d6000fd5b610d2783838360405180602001604052806000815250612648565b60fb546001600160a01b031633146118de5760405162461bcd60e51b8152600401610b68906156b5565b6116d2816128fe565b60006118f233611731565b1561190f5760405162461bcd60e51b8152600401610b68906155e5565b60cb5482106119305760405162461bcd60e51b8152600401610b6890615715565b60cb828154811061194357611943615ade565b90600052602060002001549050919050565b60fb546001600160a01b0316331461197f5760405162461bcd60e51b8152600401610b68906156b5565b8051610b95906101659060208401906140f5565b60fb546001600160a01b031633146119bd5760405162461bcd60e51b8152600401610b68906156b5565b61019280546001600160a01b0319166001600160a01b0392909216919091179055565b60fb546001600160a01b03163314611a0a5760405162461bcd60e51b8152600401610b68906156b5565b610193546040516370a0823160e01b81526000916001600160a01b0316906370a0823190611a3c903090600401615406565b60206040518083038186803b158015611a5457600080fd5b505afa158015611a68573d6000803e3d6000fd5b505050506040513d601f19601f82011682018060405250810190611a8c9190614777565b610193546101945460405163a9059cbb60e01b81529293506001600160a01b039182169263a9059cbb92611ac69216908590600401615473565b602060405180830381600087803b158015611ae057600080fd5b505af1158015611af4573d6000803e3d6000fd5b505050506040513d601f19601f82011682018060405250810190610b95919061465b565b60fb546001600160a01b03163314611b425760405162461bcd60e51b8152600401610b68906156b5565b61019180546001600160a01b0319166001600160a01b0392909216919091179055565b6000818152609960205260408120546001600160a01b031680610bbe5760405162461bcd60e51b8152600401610b6890615665565b6101658054611ba890615990565b80601f0160208091040260200160405190810160405280929190818152602001828054611bd490615990565b8015611c215780601f10611bf657610100808354040283529160200191611c21565b820191906000526020600020905b815481529060010190602001808311611c0457829003601f168201915b505050505081565b60006001600160a01b038216611c515760405162461bcd60e51b8152600401610b6890615655565b506001600160a01b03166000908152609a602052604090205490565b60fb546001600160a01b03163314611c975760405162461bcd60e51b8152600401610b68906156b5565b611ca16000613042565b565b60fb546001600160a01b03163314611ccd5760405162461bcd60e51b8152600401610b68906156b5565b61019655565b6001600160a01b0381166000908152610166602052604090205460ff1615611d0d5760405162461bcd60e51b8152600401610b6890615745565b6101675461015e60ff90911610611d365760405162461bcd60e51b8152600401610b68906155b5565b6001600160a01b038116600090815261016660205260408120805460ff19166001908117909155610167805491929091611d7490849060ff1661588a565b92506101000a81548160ff021916908360ff16021790555050565b60fb546001600160a01b03163314611db95760405162461bcd60e51b8152600401610b68906156b5565b61019755565b60fb546001600160a01b03163314611de95760405162461bcd60e51b8152600401610b68906156b5565b610194805460ff60a01b198116600160a01b9182900460ff1615909102179055565b610161546001600160a01b03163314611e365760405162461bcd60e51b8152600401610b68906156d5565b610b958282613094565b611e48614169565b6000828152610168602090815260408083208151606081018352815460ff1615158152825161026081019384905290949193850192909160018501916013918390855b825461010083900a900460ff16815260206001928301818104948501949093039092029101808411611e8b575050509284525050506002919091015460ff1660209091015292915050565b606060988054610bd390615990565b61012d5460ff1615611f095760405162461bcd60e51b8152600401610b6890615635565b60026001541415611f2c5760405162461bcd60e51b8152600401610b6890615755565b600260015533611f3b81611731565b15611f585760405162461bcd60e51b8152600401610b6890615775565b326001600160a01b03821614611f805760405162461bcd60e51b8152600401610b68906155a5565b610164546161a890611f9790849061ffff16615877565b1115611fb55760405162461bcd60e51b8152600401610b6890615585565b600082118015611fc65750600a8211155b611fe25760405162461bcd60e51b8152600401610b6890615705565b61019754610160546040516370a0823160e01b81526001600160a01b03909116906370a0823190612017903090600401615406565b60206040518083038186803b15801561202f57600080fd5b505afa158015612043573d6000803e3d6000fd5b505050506040513d601f19601f820116820180604052508101906120679190614777565b10156120855760405162461bcd60e51b8152600401610b6890615605565b610163546101645461ffff1610156122d25761019454600160a01b900460ff166120d957336000908152610166602052604090205460ff166120d95760405162461bcd60e51b8152600401610b6890615765565b336000908152610166602052604081205460ff1615612100575066470de4df82000061210a565b5066470de4df8200005b600061211684836158ab565b610193546040516370a0823160e01b81529192506000916001600160a01b03909116906370a082319061214d908790600401615406565b60206040518083038186803b15801561216557600080fd5b505afa158015612179573d6000803e3d6000fd5b505050506040513d601f19601f8201168201806040525081019061219d9190614777565b6101635461016454919250906121b890879061ffff16615877565b11156121d65760405162461bcd60e51b8152600401610b6890615625565b6001600160a01b038416600090815261019560205260409020546028906121fe908790615877565b111561221c5760405162461bcd60e51b8152600401610b6890615685565b8181101561223c5760405162461bcd60e51b8152600401610b6890615735565b6101935460405163a9059cbb60e01b81526001600160a01b039091169063a9059cbb906122779030906702c68af0bb14000090600401615458565b602060405180830381600087803b15801561229157600080fd5b505af11580156122a5573d6000803e3d6000fd5b505050506040513d601f19601f820116820180604052508101906122c9919061465b565b5050505061242d565b6000805b8381101561232357610164546123059082906122f79061ffff16600161584e565b61ffff16610b199190615877565b61230f9083615877565b91508061231b81615a06565b9150506122d6565b50610191546040516370a0823160e01b81526001600160a01b03909116906370a0823190612355908590600401615406565b602060405180830381600087803b15801561236f57600080fd5b505af1158015612383573d6000803e3d6000fd5b505050506040513d601f19601f820116820180604052508101906123a79190614777565b8111156123c65760405162461bcd60e51b8152600401610b68906155f5565b61019154604051632770a7eb60e21b81526001600160a01b0390911690639dc29fac906123f99085908590600401615473565b600060405180830381600087803b15801561241357600080fd5b505af1158015612427573d6000803e3d6000fd5b50505050505b60005b8281101561255457610164805461ffff1690600061244d836159e4565b91906101000a81548161ffff021916908361ffff16021790555050600061247a6101965461019754613109565b604080516060810182526001600160a01b038681168252610164805461ffff9081166020808601918252600086880181815289825261019c90925296909620945185546001600160a01b0319169416939093178455915160018085019190915593516002909301805460ff19169315159390931790925561016354915493945090926125079291166158ca565b61ffff161015612541576001600160a01b03831660009081526101956020526040812080546001929061253b908490615877565b90915550505b508061254c81615a06565b915050612430565b50506001805550565b610b9533838361321e565b60fb546001600160a01b031633146125925760405162461bcd60e51b8152600401610b68906156b5565b61019a546040516370a0823160e01b81526000916001600160a01b0316906370a08231906125c4903090600401615406565b60206040518083038186803b1580156125dc57600080fd5b505afa1580156125f0573d6000803e3d6000fd5b505050506040513d601f19601f820116820180604052508101906126149190614777565b61019a5460405163a9059cbb60e01b81529192506001600160a01b03169063a9059cbb90611ac69033908590600401615473565b6126523383612e63565b61266e5760405162461bcd60e51b8152600401610b68906156f5565b61267a848484846132c1565b50505050565b60fb546001600160a01b031633146126aa5760405162461bcd60e51b8152600401610b68906156b5565b61019380546001600160a01b0319166001600160a01b0392909216919091179055565b60fb546001600160a01b031633146126f75760405162461bcd60e51b8152600401610b68906156b5565b60005b8160ff168160ff161015610d275761272d838260ff168151811061272057612720615ade565b6020026020010151611cd3565b8061273781615a1a565b9150506126fa565b600081815261016860209081526040808320815160608082018452825460ff1615158252835161026081019485905290959491939184019160018401906013908288855b825461010083900a900460ff16815260206001928301818104948501949093039092029101808411612783575050509284525050506002919091015460ff16602091820152610192548251918301516040516306209d5960e01b81529394506001600160a01b03909116926306209d59926128029288926004016157b0565b60006040518083038186803b15801561281a57600080fd5b505afa15801561282e573d6000803e3d6000fd5b505050506040513d6000823e601f3d908101601f19168201604052612856919081019061473c565b9392505050565b606061286882611c29565b67ffffffffffffffff81111561288057612880615af4565b6040519080825280602002602001820160405280156128a9578160200160208202803683370190505b50905060005b6128b883611c29565b8110156128f8576128c9838261172a565b8282815181106128db576128db615ade565b6020908102919091010152806128f081615a06565b9150506128af565b50919050565b60fb546001600160a01b031633146129285760405162461bcd60e51b8152600401610b68906156b5565b6001600160a01b03811661294e5760405162461bcd60e51b8152600401610b6890615575565b6116d281613042565b600061016354821161296b57506000919050565b61271082116129845750680ad78ebc5ac6200000919050565b613a98821161299d57506815af1d78b58c400000919050565b614e2082116129b65750682086ac351052600000919050565b50682b5e3af16b18800000919050565b60fb546001600160a01b031633146129f05760405162461bcd60e51b8152600401610b68906156b5565b61019a80546001600160a01b0319166001600160a01b0392909216919091179055565b61019754610160546040516370a0823160e01b8152600092916001600160a01b0316906370a0823190612a4a903090600401615406565b60206040518083038186803b158015612a6257600080fd5b505afa158015612a76573d6000803e3d6000fd5b505050506040513d601f19601f82011682018060405250810190612a9a9190614777565b1015612ab85760405162461bcd60e51b8152600401610b6890615605565b612ac86101965461019754613109565b905090565b60006001600160e01b031982166380ac58cd60e01b1480612afe57506001600160e01b03198216635b5e139f60e01b145b80610bbe57506301ffc9a760e01b6001600160e01b0319831614610bbe565b6000818152609b6020526040902080546001600160a01b0319166001600160a01b0384169081179091558190612b5282611b65565b6001600160a01b03167f8c5be1e5ebec7d5bd14f71427d1e84f3dd0314c0f7b2291e5b200ac8c7c3b92560405160405180910390a45050565b600054610100900460ff16612bb25760405162461bcd60e51b8152600401610b6890615725565b612bba6132f4565b612bc26132f4565b610b95828261331b565b600054610100900460ff16612be75760005460ff1615612beb565b303b155b612c075760405162461bcd60e51b8152600401610b6890615675565b600054610100900460ff16158015612c29576000805461ffff19166101011790555b612c316132f4565b612c396132f4565b612c41613369565b80156116d2576000805461ff001916905550565b600054610100900460ff16612c7c5760405162461bcd60e51b8152600401610b6890615725565b612c846132f4565b611ca16133d9565b600054610100900460ff16612cb35760405162461bcd60e51b8152600401610b6890615725565b611ca1613409565b600054610100900460ff16612ce25760405162461bcd60e51b8152600401610b6890615725565b612cea6132f4565b611ca1613436565b600054610100900460ff16612d0d5760005460ff1615612d11565b303b155b612d2d5760405162461bcd60e51b8152600401610b6890615675565b600054610100900460ff16158015612d4f576000805461ffff19166101011790555b61016180546001600160a01b038086166001600160a01b031992831617909255610160805492851692909116919091179055600061015f558015610d27576000805461ff0019169055505050565b61012d5460ff1615612dc15760405162461bcd60e51b8152600401610b6890615635565b61012d805460ff191660011790557f62e78cea01bee320cd4e420270b5ea74000d11b0c9f74754ebdbfc544b05a258612df73390565b604051612e049190615406565b60405180910390a1565b61012d5460ff16612e315760405162461bcd60e51b8152600401610b6890615545565b61012d805460ff191690557f5db9ee0a495bf2e6ff9c91a7834c1ba4fdd244a5e8aa4e537bd38aeae4b073aa33612df7565b6000818152609960205260408120546001600160a01b0316612e975760405162461bcd60e51b8152600401610b6890615615565b6000612ea283611b65565b9050806001600160a01b0316846001600160a01b03161480612edd5750836001600160a01b0316612ed284610c56565b6001600160a01b0316145b80612f0d57506001600160a01b038082166000908152609c602090815260408083209388168352929052205460ff165b949350505050565b826001600160a01b0316612f2882611b65565b6001600160a01b031614612f4e5760405162461bcd60e51b8152600401610b68906156c5565b6001600160a01b038216612f745760405162461bcd60e51b8152600401610b68906155c5565b612f7f83838361346a565b612f8a600082612b1d565b6001600160a01b0383166000908152609a60205260408120805460019290612fb39084906158ed565b90915550506001600160a01b0382166000908152609a60205260408120805460019290612fe1908490615877565b909155505060008181526099602052604080822080546001600160a01b0319166001600160a01b0386811691821790925591518493918716917fddf252ad1be2c89b69c2b068fc378daa952ba7f163c4a11628f55a4df523b3ef91a4505050565b60fb80546001600160a01b038381166001600160a01b0319831681179093556040519116919082907f8be0079c531659141344cd1fd0a4f28419497f9722a3daafe3b4186f6b6457e090600090a35050565b610199819055600082815261019c6020526040902080546001600160a01b031615610d275760006130c88260010154613522565b90506130d8826001015482613569565b5081546000906130f29083906001600160a01b031661364a565b9050613102818460010154613720565b5050505050565b610160546101615461015f546040516000936001600160a01b0390811693634000aea0939116918691613141918991906020016154e3565b6040516020818303038152906040526040518463ffffffff1660e01b815260040161316e9392919061548e565b602060405180830381600087803b15801561318857600080fd5b505af115801561319c573d6000803e3d6000fd5b505050506040513d601f19601f820116820180604052508101906131c0919061465b565b5060006131e68461015f543061016260008981526020019081526020016000205461380e565b60008581526101626020526040902054909150613204906001615877565b60008581526101626020526040902055612f0d8482613848565b816001600160a01b0316836001600160a01b031614156132505760405162461bcd60e51b8152600401610b68906155d5565b6001600160a01b038381166000818152609c602090815260408083209487168084529490915290819020805460ff1916851515179055517f17307eab39ab6107e8899845ad3d59bd9653f200f220920489ca2b5937696c31906132b49085906154d5565b60405180910390a3505050565b6132cc848484612f15565b6132d88484848461387b565b61267a5760405162461bcd60e51b8152600401610b6890615565565b600054610100900460ff16611ca15760405162461bcd60e51b8152600401610b6890615725565b600054610100900460ff166133425760405162461bcd60e51b8152600401610b6890615725565b81516133559060979060208501906140f5565b508051610d279060989060208401906140f5565b600054610100900460ff166133845760005460ff1615613388565b303b155b6133a45760405162461bcd60e51b8152600401610b6890615675565b600054610100900460ff16158015612c41576000805461ffff191661010117905580156116d2576000805461ff001916905550565b600054610100900460ff166134005760405162461bcd60e51b8152600401610b6890615725565b611ca133613042565b600054610100900460ff166134305760405162461bcd60e51b8152600401610b6890615725565b60018055565b600054610100900460ff1661345d5760405162461bcd60e51b8152600401610b6890615725565b61012d805460ff19169055565b6001600160a01b0383166134c5576134c08160cb8054600083815260cc60205260408120829055600182018355919091527fa7ce836d032b2bf62b7e2097a8e0a6d8aeb35405ad15271e96d3b0188a1d06fb0155565b6134e8565b816001600160a01b0316836001600160a01b0316146134e8576134e88382613985565b6001600160a01b0382166134ff57610d2781613a22565b826001600160a01b0316826001600160a01b031614610d2757610d278282613ad1565b6000326135306001436158ed565b4042846101995460405160200161354b95949392919061518c565b60408051601f19818403018152919052805160209091012092915050565b613571614169565b61357a82613b15565b90506101696000613598836000015184602001518560400151613ea5565b81526020019081526020016000205460001415613638576000838152610168602090815260409091208251815460ff1916901515178155908201518291906135e69060018301906013614192565b50604091820151600291909101805460ff191660ff90921691909117905581516020830151918301518592610169926000926136229290613ea5565b8152602081019190915260400160002055610bbe565b6128568361364584613522565b613569565b610163546101645460009161ffff9091161115806136755750613672600a60f585901c615a61565b15155b15613681575080610bbe565b6101905460405163583200ab60e11b81526000916001600160a01b03169063b0640156906136b790609088901c906004016157a2565b60206040518083038186803b1580156136cf57600080fd5b505afa1580156136e3573d6000803e3d6000fd5b505050506040513d601f19601f8201168201806040525081019061370791906143e2565b90506001600160a01b0381166128565782915050610bbe565b6001600160a01b0382166137465760405162461bcd60e51b8152600401610b6890615695565b6000818152609960205260409020546001600160a01b03161561377b5760405162461bcd60e51b8152600401610b6890615595565b6137876000838361346a565b6001600160a01b0382166000908152609a602052604081208054600192906137b0908490615877565b909155505060008181526099602052604080822080546001600160a01b0319166001600160a01b03861690811790915590518392907fddf252ad1be2c89b69c2b068fc378daa952ba7f163c4a11628f55a4df523b3ef908290a45050565b60008484848460405160200161382794939291906154f1565b60408051601f19818403018152919052805160209091012095945050505050565b6000828260405160200161385d9291906153e6565b60405160208183030381529060405280519060200120905092915050565b60006001600160a01b0384163b1561397d57604051630a85bd0160e11b81526001600160a01b0385169063150b7a02906138bf903390899088908890600401615414565b602060405180830381600087803b1580156138d957600080fd5b505af1925050508015613909575060408051601f3d908101601f19168201909252613906918101906146e0565b60015b613963573d808015613937576040519150601f19603f3d011682016040523d82523d6000602084013e61393c565b606091505b50805161395b5760405162461bcd60e51b8152600401610b6890615565565b805181602001fd5b6001600160e01b031916630a85bd0160e11b149050612f0d565b506001612f0d565b6000600161399284611c29565b61399c91906158ed565b600083815260ca60205260409020549091508082146139ef576001600160a01b038416600090815260c960209081526040808320858452825280832054848452818420819055835260ca90915290208190555b50600091825260ca602090815260408084208490556001600160a01b03909416835260c981528383209183525290812055565b60cb54600090613a34906001906158ed565b600083815260cc602052604081205460cb8054939450909284908110613a5c57613a5c615ade565b906000526020600020015490508060cb8381548110613a7d57613a7d615ade565b600091825260208083209091019290925582815260cc909152604080822084905585825281205560cb805480613ab557613ab5615ac8565b6001900381819060005260206000200160009055905550505050565b6000613adc83611c29565b6001600160a01b03909316600090815260c960209081526040808320868452825280832085905593825260ca9052919091209190915550565b613b1d614169565b613b2c600a61ffff8416615a61565b60021415808252600090613b41576009613b44565b60005b825160109490941c9390915015613ce457613b6d61ffff8416613b6883600061588a565b613f70565b602083015160ff91909116905260109290921c91613b9461ffff8416613b6883600161588a565b60208381015160ff9290921691015260109290921c91613bbd61ffff8416613b6883600261588a565b602083015160ff9190911660409091015260109290921c91613be861ffff8416613b6883600361588a565b602083015160ff9190911660609091015260109290921c91613c1361ffff8416613b6883600461588a565b602083015160ff9190911660809091015260109290921c91613c3e61ffff8416613b6883600561588a565b602083015160ff9190911660a09091015260109290921c91613c6961ffff8416613b6883600661588a565b602083015160ff9190911660c09091015260109290921c91613c9461ffff8416613b6883600761588a565b602083015160ff9190911660e09091015260109290921c91613cbf61ffff8416613b6883600861588a565b602083015160ff91909116610100909101526000604083015260109290921c916128f8565b613cf761ffff8416613b6883600061588a565b602083015160ff919091166101209091015260109290921c91613d2361ffff8416613b6883600161588a565b602083015160ff919091166101409091015260109290921c91613d4f61ffff8416613b6883600261588a565b602083015160ff919091166101609091015260109290921c91613d7b61ffff8416613b6883600361588a565b602083015160ff919091166101809091015260109290921c91613da761ffff8416613b6883600461588a565b602083015160ff919091166101a09091015260109290921c91613dd361ffff8416613b6883600561588a565b602083015160ff919091166101c09091015260109290921c91613dff61ffff8416613b6883600661588a565b602083015160ff919091166101e09091015260109290921c91613e2b61ffff8416613b6883600761588a565b602083015160ff919091166102009091015260109290921c91613e5761ffff8416613b6883600861588a565b602083015160ff919091166102209091015260109290921c91613e8361ffff8416613b6883600961588a565b60208301805160ff928316610240918201529051015116604083015250919050565b60008315613f0e5782516020808501516040808701516060880151608089015160a08a015160c08b015160e08c01516101008d01519651613eef9a60019a909998918e91016152e5565b604051602081830303815290604052613f0790615904565b9050612856565b6101208301516101408401516101608501516101808601516101a08701516101c08801516101e08901516102008a01516102208b01516102408c0151604051613eef9a60009a9099909890979096909590949093909290918e906020016151d6565b60008061016a8360ff1660138110613f8a57613f8a615ade565b0154613f969085615a79565b905061016a8360ff1660138110613faf57613faf615ade565b018160ff1681548110613fc457613fc4615ade565b60009182526020918290209181049091015460ff601f9092166101000a90048116600886901c9091161015613ffa579050610bbe565b61017d8360ff166013811061401157614011615ade565b018160ff168154811061402657614026615ade565b90600052602060002090602091828204019190069054906101000a900460ff1691505092915050565b82805482825590600052602060002090601f016020900481019282156140e55791602002820160005b838211156140b657835183826101000a81548160ff021916908360ff1602179055509260200192600101602081600001049283019260010302614078565b80156140e35782816101000a81549060ff02191690556001016020816000010492830192600103026140b6565b505b506140f19291506141e5565b5090565b82805461410190615990565b90600052602060002090601f01602090048101928261412357600085556140e5565b82601f1061413c57805160ff19168380011785556140e5565b828001600101855582156140e5579182015b828111156140e557825182559160200191906001019061414e565b60405180606001604052806000151581526020016141856141fa565b8152600060209091015290565b6001830191839082156140e5579160200282016000838211156140b657835183826101000a81548160ff021916908360ff1602179055509260200192600101602081600001049283019260010302614078565b5b808211156140f157600081556001016141e6565b6040518061026001604052806013906020820280368337509192915050565b600061422c61422784615803565b6157e7565b9050808382526020820190508285602086028501111561424e5761424e600080fd5b60005b858110156142785761426387836142f2565b83526020928301929190910190600101614251565b5050509392505050565b600061429061422784615827565b9050828152602081018484840111156142ab576142ab600080fd5b6142b6848285615958565b509392505050565b60006142cc61422784615827565b9050828152602081018484840111156142e7576142e7600080fd5b6142b6848285615964565b8035610bbe81615b14565b8051610bbe81615b14565b600082601f83011261431c5761431c600080fd5b8135612f0d848260208601614219565b8035610bbe81615b28565b8051610bbe81615b28565b8035610bbe81615b30565b8035610bbe81615b36565b8051610bbe81615b36565b600082601f83011261437757614377600080fd5b8135612f0d848260208601614282565b600082601f83011261439b5761439b600080fd5b8151612f0d8482602086016142be565b8051610bbe81615b30565b8035610bbe81615b46565b6000602082840312156143d6576143d6600080fd5b6000612f0d84846142f2565b6000602082840312156143f7576143f7600080fd5b6000612f0d84846142fd565b6000806040838503121561441957614419600080fd5b600061442585856142f2565b9250506020614436858286016142f2565b9150509250929050565b600080600080600060a0868803121561445b5761445b600080fd5b600061446788886142f2565b9550506020614478888289016142f2565b9450506040614489888289016142f2565b935050606061449a888289016142f2565b92505060806144ab888289016142f2565b9150509295509295909350565b6000806000606084860312156144d0576144d0600080fd5b60006144dc86866142f2565b93505060206144ed868287016142f2565b92505060406144fe86828701614342565b9150509250925092565b6000806000806080858703121561452157614521600080fd5b600061452d87876142f2565b945050602061453e878288016142f2565b935050604061454f87828801614342565b925050606085013567ffffffffffffffff81111561456f5761456f600080fd5b61457b87828801614363565b91505092959194509250565b6000806040838503121561459d5761459d600080fd5b60006145a985856142f2565b92505060206144368582860161432c565b600080604083850312156145d0576145d0600080fd5b60006145dc85856142f2565b925050602061443685828601614342565b6000806040838503121561460357614603600080fd5b823567ffffffffffffffff81111561461d5761461d600080fd5b61462985828601614308565b9250506020614436858286016143b6565b60006020828403121561464f5761464f600080fd5b6000612f0d848461432c565b60006020828403121561467057614670600080fd5b6000612f0d8484614337565b60006020828403121561469157614691600080fd5b6000612f0d8484614342565b600080604083850312156146b3576146b3600080fd5b60006145dc8585614342565b6000602082840312156146d4576146d4600080fd5b6000612f0d848461434d565b6000602082840312156146f5576146f5600080fd5b6000612f0d8484614358565b60006020828403121561471657614716600080fd5b813567ffffffffffffffff81111561473057614730600080fd5b612f0d84828501614363565b60006020828403121561475157614751600080fd5b815167ffffffffffffffff81111561476b5761476b600080fd5b612f0d84828501614387565b60006020828403121561478c5761478c600080fd5b6000612f0d84846143ab565b6147a28282614883565b5060200190565b6147a28282615177565b6147bc816158f3565b82525050565b6147bc6147ce826158f3565b615a33565b60006147dd825190565b808452602093840193830160005b828110156148105781516147ff8782614798565b9650506020820191506001016147eb565b5093949350505050565b60138160005b8281101561310257815161483486826147a9565b955050602082019150600101614820565b60138160005b8281101561310257815161485f86826147a9565b95505060208201915060010161484b565b8015156147bc565b6147bc811515615a3e565b806147bc565b6000614893825190565b8084526020840193506148aa818560208601615964565b601f01601f19169290920192915050565b6147bc8161593a565b6147bc81615945565b600360fc1b815260010190565b60148152602081017314185d5cd8589b194e881b9bdd081c185d5cd95960621b815290505b60200190565b602b8152602081017f455243373231456e756d657261626c653a206f776e657220696e646578206f7581526a74206f6620626f756e647360a81b602082015290505b60400190565b60328152602081017f4552433732313a207472616e7366657220746f206e6f6e20455243373231526581527131b2b4bb32b91034b6b83632b6b2b73a32b960711b60208201529050614947565b60268152602081017f4f776e61626c653a206e6577206f776e657220697320746865207a65726f206181526564647265737360d01b60208201529050614947565b601181526020810170105b1b081d1bdad95b9cc81b5a5b9d1959607a1b815290506148ff565b601c8152602081017f4552433732313a20746f6b656e20616c7265616479206d696e74656400000000815290506148ff565b6008815260208101674f6e6c7920454f4160c01b815290506148ff565b602b8152602081017f4d6f7265206164647265737365732063616e742062652061646465642c206c6981526a1b5a5d081c995858da195960aa1b60208201529050614947565b60248152602081017f4552433732313a207472616e7366657220746f20746865207a65726f206164648152637265737360e01b60208201529050614947565b60198152602081017f4552433732313a20617070726f766520746f2063616c6c657200000000000000815290506148ff565b60218152602081017f436f6e74726163747320617265206e6f7420616c6c6f77656420626967206d618152603760f91b60208201529050614947565b601d8152602081017f596f75206e65656420746f2073656e6420656e6f756768207768656174000000815290506148ff565b602b8152602081017f4e6f7420656e6f756768204c494e4b202d2066696c6c20636f6e74726163742081526a1dda5d1a0819985d58d95d60aa1b60208201529050614947565b602c8152602081017f4552433732313a206f70657261746f7220717565727920666f72206e6f6e657881526b34b9ba32b73a103a37b5b2b760a11b60208201529050614947565b60248152602081017f416c6c2067656e3020746f6b656e73206f6e2d73616c6520616c7265616479208152631cdbdb1960e21b60208201529050614947565b60108152602081016f14185d5cd8589b194e881c185d5cd95960821b815290506148ff565b60388152602081017f4552433732313a20617070726f76652063616c6c6572206973206e6f74206f7781527f6e6572206e6f7220617070726f76656420666f7220616c6c000000000000000060208201529050614947565b602a8152602081017f4552433732313a2062616c616e636520717565727920666f7220746865207a65815269726f206164647265737360b01b60208201529050614947565b60298152602081017f4552433732313a206f776e657220717565727920666f72206e6f6e657869737481526832b73a103a37b5b2b760b91b60208201529050614947565b602e8152602081017f496e697469616c697a61626c653a20636f6e747261637420697320616c72656181526d191e481a5b9a5d1a585b1a5e995960921b60208201529050614947565b60178152602081017f457863656564206c696d6974207065722077616c6c6574000000000000000000815290506148ff565b60208082527f4552433732313a206d696e7420746f20746865207a65726f206164647265737391019081526148ff565b602c8152602081017f4552433732313a20617070726f76656420717565727920666f72206e6f6e657881526b34b9ba32b73a103a37b5b2b760a11b60208201529050614947565b60208082527f4f776e61626c653a2063616c6c6572206973206e6f7420746865206f776e657291019081526148ff565b60298152602081017f4552433732313a207472616e73666572206f6620746f6b656e2074686174206981526839903737ba1037bbb760b91b60208201529050614947565b601f8152602081017f4f6e6c7920565246436f6f7264696e61746f722063616e2066756c66696c6c00815290506148ff565b60218152602081017f4552433732313a20617070726f76616c20746f2063757272656e74206f776e658152603960f91b60208201529050614947565b60318152602081017f4552433732313a207472616e736665722063616c6c6572206973206e6f74206f8152701ddb995c881b9bdc88185c1c1c9bdd9959607a1b60208201529050614947565b601381526020810172125b9d985b1a59081b5a5b9d08185b5bdd5b9d606a1b815290506148ff565b602c8152602081017f455243373231456e756d657261626c653a20676c6f62616c20696e646578206f81526b7574206f6620626f756e647360a01b60208201529050614947565b602b8152602081017f496e697469616c697a61626c653a20636f6e7472616374206973206e6f74206981526a6e697469616c697a696e6760a81b60208201529050614947565b600f8152602081016e09cdee840cadcdeeaced040ee8aa89608b1b815290506148ff565b60238152602081017f53656e6465722068617320616c7265616479206265656e2077686974656c69738152621d195960ea1b60208201529050614947565b601f8152602081017f5265656e7472616e637947756172643a207265656e7472616e742063616c6c00815290506148ff565b603d8152602081017f53616c657320617265206f6e6c7920666f722074686f73652077686f2068617681527f6520696e7669746174696f6e732c2074727920696e20616e20686f757200000060208201529050614947565b60198152602081017f436f6e74726163747320617265206e6f7420616c6c6f77656400000000000000815290506148ff565b80516151468382614870565b506020810151615159602084018261481a565b506040810151610d27610280840182615177565b61ffff81166147bc565b60ff81166147bc565b6147bc60ff8216615a55565b61519681876147c2565b6014016151a38186614883565b6020016151b08185614883565b6020016151bd8184614883565b6020016151ca8183614883565b60200195945050505050565b6151e0818e614878565b6001016151ec816148cd565b90506151f7816148cd565b9050615202816148cd565b905061520d816148cd565b9050615218816148cd565b9050615223816148cd565b905061522e816148cd565b9050615239816148cd565b9050615244816148cd565b9050615250818d615180565b60010161525d818c615180565b60010161526a818b615180565b600101615277818a615180565b6001016152848189615180565b6001016152918188615180565b60010161529e8187615180565b6001016152ab8186615180565b6001016152b88185615180565b6001016152c58184615180565b6001016152d28183615180565b6001019c9b505050505050505050505050565b6152ef818d614878565b6001016152fc818c615180565b600101615309818b615180565b600101615316818a615180565b6001016153238189615180565b6001016153308188615180565b60010161533d8187615180565b60010161534a8186615180565b6001016153578185615180565b6001016153648184615180565b600101615370816148cd565b905061537b816148cd565b9050615386816148cd565b9050615391816148cd565b905061539c816148cd565b90506153a7816148cd565b90506153b2816148cd565b90506153bd816148cd565b90506153c8816148cd565b90506153d48183615180565b6001019b9a5050505050505050505050565b6153f08184614883565b6020016153fd8183614883565b60200192915050565b60208101610bbe82846147b3565b6080810161542282876147b3565b61542f60208301866147b3565b61543c6040830185614883565b818103606083015261544e8184614889565b9695505050505050565b6040810161546682856147b3565b61285660208301846148c4565b6040810161548182856147b3565b6128566020830184614883565b6060810161549c82866147b3565b6154a96020830185614883565b81810360408301526154bb8184614889565b95945050505050565b6020808252810161285681846147d3565b60208101610bbe8284614870565b604081016154818285614883565b608081016154ff8287614883565b61550c6020830186614883565b61551960408301856147b3565b6154bb6060830184614883565b60208101610bbe82846148bb565b602080825281016128568184614889565b60208082528101610bbe816148da565b60208082528101610bbe81614905565b60208082528101610bbe8161494d565b60208082528101610bbe8161499a565b60208082528101610bbe816149db565b60208082528101610bbe81614a01565b60208082528101610bbe81614a33565b60208082528101610bbe81614a50565b60208082528101610bbe81614a96565b60208082528101610bbe81614ad5565b60208082528101610bbe81614b07565b60208082528101610bbe81614b43565b60208082528101610bbe81614b75565b60208082528101610bbe81614bbb565b60208082528101610bbe81614c02565b60208082528101610bbe81614c41565b60208082528101610bbe81614c66565b60208082528101610bbe81614cbe565b60208082528101610bbe81614d03565b60208082528101610bbe81614d47565b60208082528101610bbe81614d90565b60208082528101610bbe81614dc2565b60208082528101610bbe81614df2565b60208082528101610bbe81614e39565b60208082528101610bbe81614e69565b60208082528101610bbe81614ead565b60208082528101610bbe81614edf565b60208082528101610bbe81614f1b565b60208082528101610bbe81614f67565b60208082528101610bbe81614f8f565b60208082528101610bbe81614fd6565b60208082528101610bbe8161501c565b60208082528101610bbe81615040565b60208082528101610bbe8161507e565b60208082528101610bbe816150b0565b60208082528101610bbe81615108565b6102a08101610bbe828461513a565b60208101610bbe828461516d565b60208101610bbe8284614883565b6102a081016157bf8286614883565b6157cc6020830185614870565b612f0d6040830184614845565b60208101610bbe8284615177565b60006157f260405190565b90506157fe82826159b7565b919050565b600067ffffffffffffffff82111561581d5761581d615af4565b5060209081020190565b600067ffffffffffffffff82111561584157615841615af4565b601f19601f8301166153fd565b61ffff8116905061ffff8216915060008261ffff0382111561587257615872615a86565b500190565b6000821982111561587257615872615a86565b60ff8116905060ff8216915060008260ff0382111561587257615872615a86565b60008160001904831182151516156158c5576158c5615a86565b500290565b61ffff9081169082165b91506000828210156158e8576158e8615a86565b500390565b816158d4565b60006001600160a01b038216610bbe565b600061590e825190565b6020830161591b81615b0a565b92505060208110156128f8576000196020919091036008021b16919050565b6000610bbe8261594d565b600081610bbe565b6000610bbe826158f3565b82818337506000910152565b60005b8381101561597f578181015183820152602001615967565b8381111561267a5750506000910152565b6002810460018216806159a457607f821691505b602082108114156128f8576128f8615ab2565b601f19601f830116810181811067ffffffffffffffff821117156159dd576159dd615af4565b6040525050565b61ffff81169050600061ffff8214156159ff576159ff615a86565b5060010190565b60006000198214156159ff576159ff615a86565b60ff81169050600060ff8214156159ff576159ff615a86565b6000610bbe82615a49565b6000610bbe82615a55565b6000610bbe8260601b90565b6000610bbe8260f81b90565b815b9150600082615a7457615a74615a9c565b500690565b60ff908116908216615a63565b634e487b7160e01b600052601160045260246000fd5b634e487b7160e01b600052601260045260246000fd5b634e487b7160e01b600052602260045260246000fd5b634e487b7160e01b600052603160045260246000fd5b634e487b7160e01b600052603260045260246000fd5b634e487b7160e01b600052604160045260246000fd5b6000610bbe825190565b615b1d816158f3565b81146116d257600080fd5b801515615b1d565b80615b1d565b6001600160e01b03198116615b1d565b60ff8116615b1d56fea2646970667358221220c537bc3c412eb0b078e93593ac8461727b72bd58966cddb3470d7c2cab7d42aa64736f6c63430008070033",
  "linkReferences": {},
  "deployedLinkReferences": {}
}