{
  "_format": "hh-sol-artifact-1",
  "contractName": "LoadsCalc",
  "sourceName": "contracts/calc.sol",
  "abi": [
    {
      "inputs": [],
      "stateMutability": "nonpayable",
      "type": "constructor"
    },
    {
      "inputs": [
        {
          "internalType": "string",
          "name": "_name",
          "type": "string"
        },
        {
          "internalType": "uint256",
          "name": "_load",
          "type": "uint256"
        }
      ],
      "name": "addAppliance",
      "outputs": [
        {
          "internalType": "bool",
          "name": "",
          "type": "bool"
        }
      ],
      "stateMutability": "nonpayable",
      "type": "function"
    },
    {
      "inputs": [
        {
          "components": [
            {
              "internalType": "string",
              "name": "name",
              "type": "string"
            },
            {
              "internalType": "uint256",
              "name": "qty",
              "type": "uint256"
            }
          ],
          "internalType": "struct LoadsCalc.AppQty[]",
          "name": "_appliances",
          "type": "tuple[]"
        }
      ],
      "name": "calcAppLoads",
      "outputs": [
        {
          "internalType": "uint256",
          "name": "",
          "type": "uint256"
        }
      ],
      "stateMutability": "view",
      "type": "function"
    },
    {
      "inputs": [],
      "name": "getAppNames",
      "outputs": [
        {
          "internalType": "string[]",
          "name": "",
          "type": "string[]"
        }
      ],
      "stateMutability": "view",
      "type": "function"
    }
  ],
  "bytecode": "0x608060405234801561001057600080fd5b50610da8806100206000396000f3fe608060405234801561001057600080fd5b50600436106100415760003560e01c8063083c21e614610046578063d645857314610064578063f46d986c14610094575b600080fd5b61004e6100c4565b60405161005b9190610968565b60405180910390f35b61007e60048036038101906100799190610705565b610213565b60405161008b91906109a5565b60405180910390f35b6100ae60048036038101906100a9919061074e565b61031b565b6040516100bb919061098a565b60405180910390f35b60606000808054905067ffffffffffffffff8111156100e6576100e5610cf8565b5b60405190808252806020026020018201604052801561011957816020015b60608152602001906001900390816101045790505b50905060005b60008054905081101561020b57600081815481106101405761013f610cc9565b5b9060005260206000209060020201600001805461015c90610bbf565b80601f016020809104026020016040519081016040528092919081815260200182805461018890610bbf565b80156101d55780601f106101aa576101008083540402835291602001916101d5565b820191906000526020600020905b8154815290600101906020018083116101b857829003601f168201915b50505050508282815181106101ed576101ec610cc9565b5b6020026020010181905250808061020390610c22565b91505061011f565b508091505090565b600081600081511161022457600080fd5b6000805b845181101561031057600085828151811061024657610245610cc9565b5b602002602001015160000151604051602001610262919061093a565b60405160208183030381529060405280519060200120141580156102a45750600085828151811061029657610295610cc9565b5b602002602001015160200151115b156102fd576102ef8582815181106102bf576102be610cc9565b5b6020026020010151600001518683815181106102de576102dd610cc9565b5b6020026020010151602001516103d0565b826102fa9190610ab7565b91505b808061030890610c22565b915050610228565b508092505050919050565b60008282600082604051602001610332919061093a565b60405160208183030381529060405280519060200120141580156103565750600081115b61035f57600080fd5b6000604051806040016040528087815260200186815250908060018154018082558091505060019003906000526020600020906002020160009091909190915060008201518160000190805190602001906103bb9291906104b5565b50602082015181600101555050505092915050565b600080600090505b6000805490508110156104a957836040516020016103f6919061093a565b60405160208183030381529060405280519060200120600082815481106104205761041f610cc9565b5b90600052602060002090600202016000016040516020016104419190610951565b60405160208183030381529060405280519060200120141561049657826000828154811061047257610471610cc9565b5b90600052602060002090600202016001015461048e9190610b0d565b9150506104af565b80806104a190610c22565b9150506103d8565b50600090505b92915050565b8280546104c190610bbf565b90600052602060002090601f0160209004810192826104e3576000855561052a565b82601f106104fc57805160ff191683800117855561052a565b8280016001018555821561052a579182015b8281111561052957825182559160200191906001019061050e565b5b509050610537919061053b565b5090565b5b8082111561055457600081600090555060010161053c565b5090565b600061056b610566846109e5565b6109c0565b9050808382526020820190508285602086028201111561058e5761058d610d36565b5b60005b858110156105dc57813567ffffffffffffffff8111156105b4576105b3610d27565b5b8086016105c18982610684565b85526020850194506020840193505050600181019050610591565b5050509392505050565b60006105f96105f484610a11565b6109c0565b90508281526020810184848401111561061557610614610d3b565b5b610620848285610b7d565b509392505050565b600082601f83011261063d5761063c610d27565b5b813561064d848260208601610558565b91505092915050565b600082601f83011261066b5761066a610d27565b5b813561067b8482602086016105e6565b91505092915050565b60006040828403121561069a57610699610d2c565b5b6106a460406109c0565b9050600082013567ffffffffffffffff8111156106c4576106c3610d31565b5b6106d084828501610656565b60008301525060206106e4848285016106f0565b60208301525092915050565b6000813590506106ff81610d5b565b92915050565b60006020828403121561071b5761071a610d45565b5b600082013567ffffffffffffffff81111561073957610738610d40565b5b61074584828501610628565b91505092915050565b6000806040838503121561076557610764610d45565b5b600083013567ffffffffffffffff81111561078357610782610d40565b5b61078f85828601610656565b92505060206107a0858286016106f0565b9150509250929050565b60006107b68383610842565b905092915050565b60006107c982610a67565b6107d38185610a8a565b9350836020820285016107e585610a42565b8060005b85811015610821578484038952815161080285826107aa565b945061080d83610a7d565b925060208a019950506001810190506107e9565b50829750879550505050505092915050565b61083c81610b67565b82525050565b600061084d82610a72565b6108578185610a9b565b9350610867818560208601610b8c565b61087081610d4a565b840191505092915050565b600061088682610a72565b6108908185610aac565b93506108a0818560208601610b8c565b80840191505092915050565b600081546108b981610bbf565b6108c38186610aac565b945060018216600081146108de57600181146108ef57610922565b60ff19831686528186019350610922565b6108f885610a52565b60005b8381101561091a578154818901526001820191506020810190506108fb565b838801955050505b50505092915050565b61093481610b73565b82525050565b6000610946828461087b565b915081905092915050565b600061095d82846108ac565b915081905092915050565b6000602082019050818103600083015261098281846107be565b905092915050565b600060208201905061099f6000830184610833565b92915050565b60006020820190506109ba600083018461092b565b92915050565b60006109ca6109db565b90506109d68282610bf1565b919050565b6000604051905090565b600067ffffffffffffffff821115610a00576109ff610cf8565b5b602082029050602081019050919050565b600067ffffffffffffffff821115610a2c57610a2b610cf8565b5b610a3582610d4a565b9050602081019050919050565b6000819050602082019050919050565b60008190508160005260206000209050919050565b600081519050919050565b600081519050919050565b6000602082019050919050565b600082825260208201905092915050565b600082825260208201905092915050565b600081905092915050565b6000610ac282610b73565b9150610acd83610b73565b9250827fffffffffffffffffffffffffffffffffffffffffffffffffffffffffffffffff03821115610b0257610b01610c6b565b5b828201905092915050565b6000610b1882610b73565b9150610b2383610b73565b9250817fffffffffffffffffffffffffffffffffffffffffffffffffffffffffffffffff0483118215151615610b5c57610b5b610c6b565b5b828202905092915050565b60008115159050919050565b6000819050919050565b82818337600083830152505050565b60005b83811015610baa578082015181840152602081019050610b8f565b83811115610bb9576000848401525b50505050565b60006002820490506001821680610bd757607f821691505b60208210811415610beb57610bea610c9a565b5b50919050565b610bfa82610d4a565b810181811067ffffffffffffffff82111715610c1957610c18610cf8565b5b80604052505050565b6000610c2d82610b73565b91507fffffffffffffffffffffffffffffffffffffffffffffffffffffffffffffffff821415610c6057610c5f610c6b565b5b600182019050919050565b7f4e487b7100000000000000000000000000000000000000000000000000000000600052601160045260246000fd5b7f4e487b7100000000000000000000000000000000000000000000000000000000600052602260045260246000fd5b7f4e487b7100000000000000000000000000000000000000000000000000000000600052603260045260246000fd5b7f4e487b7100000000000000000000000000000000000000000000000000000000600052604160045260246000fd5b600080fd5b600080fd5b600080fd5b600080fd5b600080fd5b600080fd5b600080fd5b6000601f19601f8301169050919050565b610d6481610b73565b8114610d6f57600080fd5b5056fea2646970667358221220dd99895cc88a0cf239895feb30fb23e2fc0c82bb97e8aa8a5987294adb8350a264736f6c63430008070033",
  "linkReferences": {},
  "deployedLinkReferences": {}
}