{
  "_format": "hh-sol-artifact-1",
  "contractName": "Mine",
  "sourceName": "contracts/Mine.sol",
  "abi": [
    {
      "anonymous": false,
      "inputs": [
        {
          "indexed": false,
          "internalType": "uint256",
          "name": "tokenId",
          "type": "uint256"
        },
        {
          "indexed": false,
          "internalType": "uint256",
          "name": "earned",
          "type": "uint256"
        },
        {
          "indexed": false,
          "internalType": "bool",
          "name": "unstaked",
          "type": "bool"
        }
      ],
      "name": "KingClaimed",
      "type": "event"
    },
    {
      "anonymous": false,
      "inputs": [
        {
          "indexed": true,
          "internalType": "address",
          "name": "previousOwner",
          "type": "address"
        },
        {
          "indexed": true,
          "internalType": "address",
          "name": "newOwner",
          "type": "address"
        }
      ],
      "name": "OwnershipTransferred",
      "type": "event"
    },
    {
      "anonymous": false,
      "inputs": [
        {
          "indexed": false,
          "internalType": "address",
          "name": "account",
          "type": "address"
        }
      ],
      "name": "Paused",
      "type": "event"
    },
    {
      "anonymous": false,
      "inputs": [
        {
          "indexed": false,
          "internalType": "uint256",
          "name": "tokenId",
          "type": "uint256"
        },
        {
          "indexed": false,
          "internalType": "uint256",
          "name": "earned",
          "type": "uint256"
        },
        {
          "indexed": false,
          "internalType": "bool",
          "name": "unstaked",
          "type": "bool"
        }
      ],
      "name": "PeasantClaimed",
      "type": "event"
    },
    {
      "anonymous": false,
      "inputs": [
        {
          "indexed": false,
          "internalType": "address",
          "name": "owner",
          "type": "address"
        },
        {
          "indexed": false,
          "internalType": "uint256",
          "name": "tokenId",
          "type": "uint256"
        },
        {
          "indexed": false,
          "internalType": "uint256",
          "name": "value",
          "type": "uint256"
        }
      ],
      "name": "TokenStaked",
      "type": "event"
    },
    {
      "anonymous": false,
      "inputs": [
        {
          "indexed": false,
          "internalType": "address",
          "name": "account",
          "type": "address"
        }
      ],
      "name": "Unpaused",
      "type": "event"
    },
    {
      "inputs": [],
      "name": "DAILY_WHEAT_RATE",
      "outputs": [
        {
          "internalType": "uint256",
          "name": "",
          "type": "uint256"
        }
      ],
      "stateMutability": "view",
      "type": "function"
    },
    {
      "inputs": [],
      "name": "DAILY_WHEAT_RATE_WITH_SUPERMINE",
      "outputs": [
        {
          "internalType": "uint256",
          "name": "",
          "type": "uint256"
        }
      ],
      "stateMutability": "view",
      "type": "function"
    },
    {
      "inputs": [
        {
          "internalType": "uint256",
          "name": "",
          "type": "uint256"
        },
        {
          "internalType": "uint256",
          "name": "",
          "type": "uint256"
        }
      ],
      "name": "Kings",
      "outputs": [
        {
          "internalType": "uint16",
          "name": "tokenId",
          "type": "uint16"
        },
        {
          "internalType": "uint80",
          "name": "value",
          "type": "uint80"
        },
        {
          "internalType": "address",
          "name": "owner",
          "type": "address"
        }
      ],
      "stateMutability": "view",
      "type": "function"
    },
    {
      "inputs": [],
      "name": "MAXIMUM_GLOBAL_WHEAT",
      "outputs": [
        {
          "internalType": "uint256",
          "name": "",
          "type": "uint256"
        }
      ],
      "stateMutability": "view",
      "type": "function"
    },
    {
      "inputs": [],
      "name": "MAX_ALPHA",
      "outputs": [
        {
          "internalType": "uint8",
          "name": "",
          "type": "uint8"
        }
      ],
      "stateMutability": "view",
      "type": "function"
    },
    {
      "inputs": [],
      "name": "MINIMUM_TO_EXIT",
      "outputs": [
        {
          "internalType": "uint256",
          "name": "",
          "type": "uint256"
        }
      ],
      "stateMutability": "view",
      "type": "function"
    },
    {
      "inputs": [],
      "name": "WHEAT_CLAIM_TAX_PERCENTAGE",
      "outputs": [
        {
          "internalType": "uint256",
          "name": "",
          "type": "uint256"
        }
      ],
      "stateMutability": "view",
      "type": "function"
    },
    {
      "inputs": [
        {
          "internalType": "uint256",
          "name": "tokenId",
          "type": "uint256"
        }
      ],
      "name": "_alphaForKing",
      "outputs": [
        {
          "internalType": "uint8",
          "name": "",
          "type": "uint8"
        }
      ],
      "stateMutability": "view",
      "type": "function"
    },
    {
      "inputs": [
        {
          "internalType": "address",
          "name": "account",
          "type": "address"
        },
        {
          "internalType": "uint16[]",
          "name": "tokenIds",
          "type": "uint16[]"
        }
      ],
      "name": "activateSuperMine",
      "outputs": [],
      "stateMutability": "nonpayable",
      "type": "function"
    },
    {
      "inputs": [
        {
          "internalType": "address",
          "name": "account",
          "type": "address"
        },
        {
          "internalType": "uint16[]",
          "name": "tokenIds",
          "type": "uint16[]"
        }
      ],
      "name": "addToMine",
      "outputs": [],
      "stateMutability": "nonpayable",
      "type": "function"
    },
    {
      "inputs": [
        {
          "internalType": "uint256",
          "name": "tokenId",
          "type": "uint256"
        }
      ],
      "name": "calcRewardKing",
      "outputs": [
        {
          "internalType": "uint256",
          "name": "amount",
          "type": "uint256"
        }
      ],
      "stateMutability": "view",
      "type": "function"
    },
    {
      "inputs": [
        {
          "internalType": "uint256",
          "name": "tokenId",
          "type": "uint256"
        }
      ],
      "name": "calcRewardPeasant",
      "outputs": [
        {
          "internalType": "uint256",
          "name": "amount",
          "type": "uint256"
        }
      ],
      "stateMutability": "view",
      "type": "function"
    },
    {
      "inputs": [
        {
          "internalType": "uint16[]",
          "name": "tokenIds",
          "type": "uint16[]"
        }
      ],
      "name": "calculateReward",
      "outputs": [
        {
          "internalType": "uint256",
          "name": "amount",
          "type": "uint256"
        }
      ],
      "stateMutability": "view",
      "type": "function"
    },
    {
      "inputs": [
        {
          "internalType": "uint256",
          "name": "_newRate",
          "type": "uint256"
        }
      ],
      "name": "changeDailyRate",
      "outputs": [],
      "stateMutability": "nonpayable",
      "type": "function"
    },
    {
      "inputs": [
        {
          "internalType": "uint256",
          "name": "_newRate",
          "type": "uint256"
        }
      ],
      "name": "changeDailyRateSuperMine",
      "outputs": [],
      "stateMutability": "nonpayable",
      "type": "function"
    },
    {
      "inputs": [
        {
          "internalType": "address",
          "name": "_newaddress",
          "type": "address"
        }
      ],
      "name": "changeLinkAddress",
      "outputs": [],
      "stateMutability": "nonpayable",
      "type": "function"
    },
    {
      "inputs": [
        {
          "internalType": "uint256",
          "name": "_fee",
          "type": "uint256"
        }
      ],
      "name": "changeLinkFee",
      "outputs": [],
      "stateMutability": "nonpayable",
      "type": "function"
    },
    {
      "inputs": [
        {
          "internalType": "uint256",
          "name": "_newMax",
          "type": "uint256"
        }
      ],
      "name": "changeMaxWheat",
      "outputs": [],
      "stateMutability": "nonpayable",
      "type": "function"
    },
    {
      "inputs": [
        {
          "internalType": "uint256",
          "name": "_newExit",
          "type": "uint256"
        }
      ],
      "name": "changeMinExit",
      "outputs": [],
      "stateMutability": "nonpayable",
      "type": "function"
    },
    {
      "inputs": [
        {
          "internalType": "uint256",
          "name": "_cooldown",
          "type": "uint256"
        }
      ],
      "name": "changeVrfCooldown",
      "outputs": [],
      "stateMutability": "nonpayable",
      "type": "function"
    },
    {
      "inputs": [
        {
          "internalType": "uint256",
          "name": "_newTax",
          "type": "uint256"
        }
      ],
      "name": "changeWheatTax",
      "outputs": [],
      "stateMutability": "nonpayable",
      "type": "function"
    },
    {
      "inputs": [
        {
          "internalType": "uint16[]",
          "name": "tokenIds",
          "type": "uint16[]"
        },
        {
          "internalType": "bool",
          "name": "unstake",
          "type": "bool"
        }
      ],
      "name": "claimWheatFromMine",
      "outputs": [],
      "stateMutability": "nonpayable",
      "type": "function"
    },
    {
      "inputs": [
        {
          "internalType": "uint16[]",
          "name": "tokenIds",
          "type": "uint16[]"
        }
      ],
      "name": "deactivateSuperMine",
      "outputs": [],
      "stateMutability": "nonpayable",
      "type": "function"
    },
    {
      "inputs": [
        {
          "internalType": "address",
          "name": "account",
          "type": "address"
        }
      ],
      "name": "depositsOf",
      "outputs": [
        {
          "internalType": "uint256[]",
          "name": "",
          "type": "uint256[]"
        }
      ],
      "stateMutability": "view",
      "type": "function"
    },
    {
      "inputs": [
        {
          "internalType": "address",
          "name": "account",
          "type": "address"
        }
      ],
      "name": "depositsOfSuperMines",
      "outputs": [
        {
          "internalType": "uint256[]",
          "name": "",
          "type": "uint256[]"
        }
      ],
      "stateMutability": "view",
      "type": "function"
    },
    {
      "inputs": [],
      "name": "fee",
      "outputs": [
        {
          "internalType": "uint256",
          "name": "",
          "type": "uint256"
        }
      ],
      "stateMutability": "view",
      "type": "function"
    },
    {
      "inputs": [
        {
          "internalType": "address",
          "name": "owner",
          "type": "address"
        },
        {
          "internalType": "uint256",
          "name": "tokenId",
          "type": "uint256"
        }
      ],
      "name": "getStakePeasantIndex",
      "outputs": [
        {
          "internalType": "uint256",
          "name": "",
          "type": "uint256"
        }
      ],
      "stateMutability": "view",
      "type": "function"
    },
    {
      "inputs": [
        {
          "internalType": "address",
          "name": "owner",
          "type": "address"
        },
        {
          "internalType": "uint256",
          "name": "index",
          "type": "uint256"
        }
      ],
      "name": "getSuperMineIDForPeasant",
      "outputs": [
        {
          "internalType": "uint256",
          "name": "",
          "type": "uint256"
        }
      ],
      "stateMutability": "view",
      "type": "function"
    },
    {
      "inputs": [],
      "name": "initChainLink",
      "outputs": [],
      "stateMutability": "nonpayable",
      "type": "function"
    },
    {
      "inputs": [
        {
          "internalType": "address",
          "name": "_king",
          "type": "address"
        },
        {
          "internalType": "address",
          "name": "_wheat",
          "type": "address"
        },
        {
          "internalType": "address",
          "name": "_vrfCoordinator",
          "type": "address"
        },
        {
          "internalType": "address",
          "name": "_link",
          "type": "address"
        }
      ],
      "name": "initialize",
      "outputs": [],
      "stateMutability": "nonpayable",
      "type": "function"
    },
    {
      "inputs": [
        {
          "internalType": "uint256",
          "name": "tokenId",
          "type": "uint256"
        }
      ],
      "name": "isPeasant",
      "outputs": [
        {
          "internalType": "bool",
          "name": "dwarf",
          "type": "bool"
        }
      ],
      "stateMutability": "view",
      "type": "function"
    },
    {
      "inputs": [],
      "name": "king",
      "outputs": [
        {
          "internalType": "contract IKing",
          "name": "",
          "type": "address"
        }
      ],
      "stateMutability": "view",
      "type": "function"
    },
    {
      "inputs": [],
      "name": "lastClaimTimestamp",
      "outputs": [
        {
          "internalType": "uint256",
          "name": "",
          "type": "uint256"
        }
      ],
      "stateMutability": "view",
      "type": "function"
    },
    {
      "inputs": [],
      "name": "linkToken",
      "outputs": [
        {
          "internalType": "address",
          "name": "",
          "type": "address"
        }
      ],
      "stateMutability": "view",
      "type": "function"
    },
    {
      "inputs": [
        {
          "internalType": "uint256",
          "name": "",
          "type": "uint256"
        }
      ],
      "name": "mine",
      "outputs": [
        {
          "internalType": "uint16",
          "name": "tokenId",
          "type": "uint16"
        },
        {
          "internalType": "uint80",
          "name": "value",
          "type": "uint80"
        },
        {
          "internalType": "address",
          "name": "owner",
          "type": "address"
        }
      ],
      "stateMutability": "view",
      "type": "function"
    },
    {
      "inputs": [
        {
          "internalType": "address",
          "name": "",
          "type": "address"
        },
        {
          "internalType": "address",
          "name": "from",
          "type": "address"
        },
        {
          "internalType": "uint256",
          "name": "",
          "type": "uint256"
        },
        {
          "internalType": "bytes",
          "name": "",
          "type": "bytes"
        }
      ],
      "name": "onERC721Received",
      "outputs": [
        {
          "internalType": "bytes4",
          "name": "",
          "type": "bytes4"
        }
      ],
      "stateMutability": "pure",
      "type": "function"
    },
    {
      "inputs": [],
      "name": "owner",
      "outputs": [
        {
          "internalType": "address",
          "name": "",
          "type": "address"
        }
      ],
      "stateMutability": "view",
      "type": "function"
    },
    {
      "inputs": [
        {
          "internalType": "uint256",
          "name": "",
          "type": "uint256"
        }
      ],
      "name": "packIndices",
      "outputs": [
        {
          "internalType": "uint256",
          "name": "",
          "type": "uint256"
        }
      ],
      "stateMutability": "view",
      "type": "function"
    },
    {
      "inputs": [],
      "name": "paused",
      "outputs": [
        {
          "internalType": "bool",
          "name": "",
          "type": "bool"
        }
      ],
      "stateMutability": "view",
      "type": "function"
    },
    {
      "inputs": [
        {
          "internalType": "uint256",
          "name": "seed",
          "type": "uint256"
        }
      ],
      "name": "randomKingOwner",
      "outputs": [
        {
          "internalType": "address",
          "name": "",
          "type": "address"
        }
      ],
      "stateMutability": "view",
      "type": "function"
    },
    {
      "inputs": [
        {
          "internalType": "bytes32",
          "name": "requestId",
          "type": "bytes32"
        },
        {
          "internalType": "uint256",
          "name": "randomness",
          "type": "uint256"
        }
      ],
      "name": "rawFulfillRandomness",
      "outputs": [],
      "stateMutability": "nonpayable",
      "type": "function"
    },
    {
      "inputs": [],
      "name": "renounceOwnership",
      "outputs": [],
      "stateMutability": "nonpayable",
      "type": "function"
    },
    {
      "inputs": [
        {
          "internalType": "uint256[]",
          "name": "tokenIds",
          "type": "uint256[]"
        }
      ],
      "name": "rescue",
      "outputs": [],
      "stateMutability": "nonpayable",
      "type": "function"
    },
    {
      "inputs": [],
      "name": "rescueEnabled",
      "outputs": [
        {
          "internalType": "bool",
          "name": "",
          "type": "bool"
        }
      ],
      "stateMutability": "view",
      "type": "function"
    },
    {
      "inputs": [
        {
          "internalType": "address",
          "name": "_king",
          "type": "address"
        },
        {
          "internalType": "address",
          "name": "_wheat",
          "type": "address"
        }
      ],
      "name": "setInit",
      "outputs": [],
      "stateMutability": "nonpayable",
      "type": "function"
    },
    {
      "inputs": [
        {
          "internalType": "bool",
          "name": "_paused",
          "type": "bool"
        }
      ],
      "name": "setPaused",
      "outputs": [],
      "stateMutability": "nonpayable",
      "type": "function"
    },
    {
      "inputs": [
        {
          "internalType": "bool",
          "name": "_enabled",
          "type": "bool"
        }
      ],
      "name": "setRescueEnabled",
      "outputs": [],
      "stateMutability": "nonpayable",
      "type": "function"
    },
    {
      "inputs": [
        {
          "internalType": "address",
          "name": "_supermine",
          "type": "address"
        }
      ],
      "name": "setSuperMine",
      "outputs": [],
      "stateMutability": "nonpayable",
      "type": "function"
    },
    {
      "inputs": [
        {
          "internalType": "address",
          "name": "contract_address",
          "type": "address"
        },
        {
          "internalType": "bool",
          "name": "status",
          "type": "bool"
        }
      ],
      "name": "setWhitelistContract",
      "outputs": [],
      "stateMutability": "nonpayable",
      "type": "function"
    },
    {
      "inputs": [],
      "name": "superMine",
      "outputs": [
        {
          "internalType": "contract ISuperMine",
          "name": "",
          "type": "address"
        }
      ],
      "stateMutability": "view",
      "type": "function"
    },
    {
      "inputs": [
        {
          "internalType": "uint256",
          "name": "",
          "type": "uint256"
        }
      ],
      "name": "superMineStaked",
      "outputs": [
        {
          "internalType": "uint16",
          "name": "tokenId",
          "type": "uint16"
        },
        {
          "internalType": "uint80",
          "name": "value",
          "type": "uint80"
        },
        {
          "internalType": "address",
          "name": "owner",
          "type": "address"
        }
      ],
      "stateMutability": "view",
      "type": "function"
    },
    {
      "inputs": [],
      "name": "totalAlphaStaked",
      "outputs": [
        {
          "internalType": "uint256",
          "name": "",
          "type": "uint256"
        }
      ],
      "stateMutability": "view",
      "type": "function"
    },
    {
      "inputs": [],
      "name": "totalPeasantStaked",
      "outputs": [
        {
          "internalType": "uint256",
          "name": "",
          "type": "uint256"
        }
      ],
      "stateMutability": "view",
      "type": "function"
    },
    {
      "inputs": [],
      "name": "totalWheatEarned",
      "outputs": [
        {
          "internalType": "uint256",
          "name": "",
          "type": "uint256"
        }
      ],
      "stateMutability": "view",
      "type": "function"
    },
    {
      "inputs": [
        {
          "internalType": "address",
          "name": "newOwner",
          "type": "address"
        }
      ],
      "name": "transferOwnership",
      "outputs": [],
      "stateMutability": "nonpayable",
      "type": "function"
    },
    {
      "inputs": [],
      "name": "unaccountedRewards",
      "outputs": [
        {
          "internalType": "uint256",
          "name": "",
          "type": "uint256"
        }
      ],
      "stateMutability": "view",
      "type": "function"
    },
    {
      "inputs": [],
      "name": "vrfReqd",
      "outputs": [
        {
          "internalType": "uint256",
          "name": "_value",
          "type": "uint256"
        }
      ],
      "stateMutability": "view",
      "type": "function"
    },
    {
      "inputs": [],
      "name": "vrfcooldown",
      "outputs": [
        {
          "internalType": "uint256",
          "name": "",
          "type": "uint256"
        }
      ],
      "stateMutability": "view",
      "type": "function"
    },
    {
      "inputs": [],
      "name": "wheat",
      "outputs": [
        {
          "internalType": "contract IWheat",
          "name": "",
          "type": "address"
        }
      ],
      "stateMutability": "view",
      "type": "function"
    },
    {
      "inputs": [],
      "name": "wheatPerAlpha",
      "outputs": [
        {
          "internalType": "uint256",
          "name": "",
          "type": "uint256"
        }
      ],
      "stateMutability": "view",
      "type": "function"
    },
    {
      "inputs": [],
      "name": "withdrawLINK",
      "outputs": [],
      "stateMutability": "nonpayable",
      "type": "function"
    }
  ],
  "bytecode": "0x608060405234801561001057600080fd5b50614ce2806100206000396000f3fe608060405234801561001057600080fd5b50600436106103af5760003560e01c80637ce522d0116101f4578063b97a66171161011a578063e976841e116100ad578063f27200bc1161007c578063f27200bc14610815578063f2fde38b14610828578063f8c8765e1461083b578063fc68f75b1461084e57600080fd5b8063e976841e146107c9578063ec0767bf146107dc578063eca863d7146107ef578063ee5f55ad1461080257600080fd5b8063cedb363b116100e9578063cedb363b14610787578063d2efc2b01461079a578063ddca3f43146107ad578063e3a9db1a146107b657600080fd5b8063b97a661714610712578063b9c6e75214610758578063c0c472c01461076b578063cc181ca81461077457600080fd5b806399e4d8ef11610192578063aa6b489a11610161578063aa6b489a146106c4578063adc2112f146106d7578063b0640156146106df578063b3db5556146106f257600080fd5b806399e4d8ef14610696578063a282a23d1461069f578063a712f9b5146106a8578063a9e5ca8f146106bb57600080fd5b806389c9201e116101ce57806389c9201e1461064c5780638da5cb5b1461065f57806394985ddd146106705780639965f3c21461068357600080fd5b80637ce522d01461061357806383a3af5314610626578063873efeff1461063957600080fd5b8063568303ca116102d95780636a3ef05711610277578063715018a611610246578063715018a6146105e757806376531008146105ef57806377da0410146106025780637a98a82a1461060b57600080fd5b80636a3ef057146105985780636d18824b146105ab5780636f234fb5146105be5780636f257875146105de57600080fd5b80635c975abb116102b35780635c975abb14610572578063607af3971461057d57806364c5ff0e1461058657806367f07ea91461058f57600080fd5b8063568303ca14610535578063576d5d781461053f57806357970e931461055257600080fd5b8063201ef2a41161035157806339db714f1161032057806339db714f146104ad5780634c1f5442146104ba5780634d474898146104cd57806352ded7171461052257600080fd5b8063201ef2a41461045757806325342df614610471578063339028401461049157806337a386b9146104a457600080fd5b806316c38b3c1161038d57806316c38b3c146104125780631749e6fa146104255780631cb16eda146104385780631de1ce7f1461044e57600080fd5b806304da4543146103b45780630e357738146103c9578063150b7a02146103f2575b600080fd5b6103c76103c236600461402a565b610861565b005b60ce546103dc906001600160a01b031681565b6040516103e99190614893565b60405180910390f35b610405610400366004613ee4565b610bc1565b6040516103e99190614885565b6103c76104203660046140cd565b610bfd565b6103c7610433366004613f68565b610c40565b61044160dc5481565b6040516103e99190614a17565b61044160e85481565b60db546104649060ff1681565b6040516103e99190614a68565b61048461047f366004614174565b610e86565b6040516103e99190614834565b61044161049f366004614174565b610f48565b61044160d85481565b60df546104849060ff1681565b6104416104c8366004614174565b611262565b6105136104db366004614174565b60d06020526000908152604090205461ffff8116906201000081046001600160501b031690600160601b90046001600160a01b031683565b6040516103e9939291906149ef565b60e7546103dc906001600160a01b031681565b60e6546104419081565b61051361054d36600461410f565b611348565b60e454610565906001600160a01b031681565b6040516103e99190614718565b60655460ff16610484565b61044160de5481565b61044160d95481565b61044160dd5481565b6103c76105a636600461402a565b61139b565b6104416105b936600461402a565b6118b2565b6104416105cc366004614174565b60d36020526000908152604090205481565b61044160d45481565b6103c76119ad565b6103c76105fd3660046140cd565b6119e3565b61044160da5481565b6103c7611a20565b6103c7610621366004614174565b611a60565b6103c7610634366004614174565b611a8f565b6103c7610647366004614174565b611abe565b6103c761065a366004613f68565b611aed565b6033546001600160a01b0316610565565b6103c761067e36600461410f565b611e19565b6103c7610691366004614174565b611e4d565b61044160e55481565b61044160d75481565b6103c76106b6366004613e01565b611e7c565b61044160d65481565b6103c76106d2366004614072565b611ec8565b6103c76121ee565b6105656106ed366004614174565b61231e565b610705610700366004613e01565b61244c565b6040516103e99190614823565b610513610720366004614174565b60e96020526000908152604090205461ffff8116906201000081046001600160501b031690600160601b90046001600160a01b031683565b610464610766366004614174565b612508565b61044160d55481565b60cd546103dc906001600160a01b031681565b6103c7610795366004613fc4565b6125ac565b6103c76107a8366004614174565b612601565b61044160e15481565b6107056107c4366004613e01565b612630565b6104416107d7366004613ff7565b6126e4565b6103c76107ea366004614174565b612774565b6104416107fd366004613ff7565b6127a3565b6103c7610810366004613e43565b61281e565b6103c7610823366004614174565b612876565b6103c7610836366004613e01565b6128a5565b6103c7610849366004613e80565b6128fe565b6103c761085c366004613e01565b612a56565b60655460ff161561088d5760405162461bcd60e51b815260040161088490614941565b60405180910390fd5b6002609b5414156108b05760405162461bcd60e51b8152600401610884906149c1565b6002609b553233146108d45760405162461bcd60e51b815260040161088490614911565b32331461090a5733600090815260cf602052604090205460ff1661090a5760405162461bcd60e51b815260040161088490614971565b60005b81811015610bb75760e75430906001600160a01b0316636352211e85858581811061093a5761093a614c4b565b905060200201602081019061094f9190614153565b6040518263ffffffff1660e01b815260040161096b91906149e1565b60206040518083038186803b15801561098357600080fd5b505afa158015610997573d6000803e3d6000fd5b505050506040513d601f19601f820116820180604052508101906109bb9190613e22565b6001600160a01b0316146109e15760405162461bcd60e51b815260040161088490614951565b600060e960008585858181106109f9576109f9614c4b565b9050602002016020810190610a0e9190614153565b61ffff908116825260208083019390935260409182016000208251606081018452905491821681526201000082046001600160501b031693810193909352600160601b90046001600160a01b03169082018190529091503314610a835760405162461bcd60e51b8152600401610884906148a1565b60e96000858585818110610a9957610a99614c4b565b9050602002016020810190610aae9190614153565b61ffff1681526020810191909152604001600090812055610b18848484818110610ada57610ada614c4b565b9050602002016020810190610aef9190614153565b61ffff1660ea6000335b6001600160a01b03168152602081019190915260400160002090612aa2565b5060e7546001600160a01b031663b88d4fde3033878787818110610b3e57610b3e614c4b565b9050602002016020810190610b539190614153565b6040518463ffffffff1660e01b8152600401610b719392919061474e565b600060405180830381600087803b158015610b8b57600080fd5b505af1158015610b9f573d6000803e3d6000fd5b50505050508080610baf90614bc8565b91505061090d565b50506001609b5550565b60006001600160a01b03851615610bea5760405162461bcd60e51b815260040161088490614931565b50630a85bd0160e11b5b95945050505050565b6033546001600160a01b03163314610c275760405162461bcd60e51b815260040161088490614981565b8015610c3857610c35612aae565b50565b610c35612b1d565b6001600160a01b0383163314610c685760405162461bcd60e51b8152600401610884906149a1565b60005b81811015610e805760cd5433906001600160a01b0316636352211e858585818110610c9857610c98614c4b565b9050602002016020810190610cad9190614153565b6040518263ffffffff1660e01b8152600401610cc991906149e1565b60206040518083038186803b158015610ce157600080fd5b505afa158015610cf5573d6000803e3d6000fd5b505050506040513d601f19601f82011682018060405250810190610d199190613e22565b6001600160a01b031614610d3f5760405162461bcd60e51b8152600401610884906148d1565b60cd546001600160a01b03166323b872dd3330868686818110610d6457610d64614c4b565b9050602002016020810190610d799190614153565b6040518463ffffffff1660e01b8152600401610d9793929190614726565b600060405180830381600087803b158015610db157600080fd5b505af1158015610dc5573d6000803e3d6000fd5b50505050610dfc838383818110610dde57610dde614c4b565b9050602002016020810190610df39190614153565b61ffff16610e86565b15610e3a57610e3584848484818110610e1757610e17614c4b565b9050602002016020810190610e2c9190614153565b61ffff16612b70565b610e6e565b610e6e84848484818110610e5057610e50614c4b565b9050602002016020810190610e659190614153565b61ffff16612ced565b80610e7881614bc8565b915050610c6b565b50505050565b6000323314610ebe5733600090815260cf602052604090205460ff16610ebe5760405162461bcd60e51b815260040161088490614971565b60cd546040516394e5684760e01b81526000916001600160a01b0316906394e5684790610eef908690600401614a17565b6102806040518083038186803b158015610f0857600080fd5b505afa158015610f1c573d6000803e3d6000fd5b505050506040513d601f19601f82011682018060405250810190610f409190614131565b519392505050565b6000323314610f805733600090815260cf602052604090205460ff16610f805760405162461bcd60e51b815260040161088490614971565b600082815260d0602090815260408083208151606081018352905461ffff811682526201000081046001600160501b031693820193909352600160601b9092046001600160a01b0316908201819052909190610fdc90856126e4565b90506000610fee8360400151836127a3565b905080156111ba57600081815260e960209081526040918290208251606081018452905461ffff811682526201000081046001600160501b031692820192909252600160601b9091046001600160a01b03169181019190915260da5460dc54108015611074575080602001516001600160501b031684602001516001600160501b031610155b156110b4576201518060e85485602001516001600160501b0316426110999190614af9565b6110a39190614ada565b6110ad9190614ac6565b94506111b4565b60da5460dc541080156110e0575080602001516001600160501b031684602001516001600160501b0316105b1561115b576201518060d754856020015183602001516111009190614b21565b6001600160501b03166111139190614ada565b61111d9190614ac6565b6201518060e85483602001516001600160501b03164261113d9190614af9565b6111479190614ada565b6111519190614ac6565b6110ad9190614aae565b60de5484602001516001600160501b0316111561117b57600094506111b4565b6201518060e85485602001516001600160501b031660de5461119d9190614af9565b6111a79190614ada565b6111b19190614ac6565b94505b5061125a565b60da5460dc541015611201576201518060d75484602001516001600160501b0316426111e69190614af9565b6111f09190614ada565b6111fa9190614ac6565b935061125a565b60de5483602001516001600160501b03161115611221576000935061125a565b6201518060d75484602001516001600160501b031660de546112439190614af9565b61124d9190614ada565b6112579190614ac6565b93505b505050919050565b600032331461129a5733600090815260cf602052604090205460ff1661129a5760405162461bcd60e51b815260040161088490614971565b60006112a583612508565b60ff16600081815260d16020908152604080832087845260d39092528220548154939450919290919081106112dc576112dc614c4b565b600091825260209182902060408051606081018252929091015461ffff811683526201000081046001600160501b0316938301849052600160601b90046001600160a01b03169082015260d6549092506113369190614af9565b6113409083614ada565b949350505050565b60d1602052816000526040600020818154811061136457600080fd5b60009182526020909120015461ffff811692506201000081046001600160501b03169150600160601b90046001600160a01b031683565b6002609b5414156113be5760405162461bcd60e51b8152600401610884906149c1565b6002609b556113d7335b6001600160a01b03163b151590565b156113f45760405162461bcd60e51b8152600401610884906149d1565b3233146114135760405162461bcd60e51b815260040161088490614911565b60df5460ff166114355760405162461bcd60e51b815260040161088490614901565b60408051606080820183526000808352602080840182905283850182905284519283018552818352820181905292810183905282805b858110156118a45786868281811061148557611485614c4b565b90506020020135945061149785610e86565b156115db57600085815260d060209081526040918290208251606081018452905461ffff811682526201000081046001600160501b031692820192909252600160601b9091046001600160a01b03169181018290529450331461150c5760405162461bcd60e51b8152600401610884906148c1565b600085815260d06020526040812081905560dd805460019290611530908490614af9565b909155505060cd546001600160a01b031663b88d4fde3033886040518463ffffffff1660e01b81526004016115679392919061478b565b600060405180830381600087803b15801561158157600080fd5b505af1158015611595573d6000803e3d6000fd5b505050507fad9f911248c0dfc1313d70a30d8c53a6e8b6d4e7a7c4869d03d39bf44a9db10985600060016040516115ce93929190614a25565b60405180910390a1611892565b6115e485612508565b60ff16600081815260d16020908152604080832089845260d39092529091205481549294509091811061161957611619614c4b565b600091825260209182902060408051606081018252929091015461ffff811683526201000081046001600160501b031693830193909352600160601b9092046001600160a01b0316918101829052945033146116875760405162461bcd60e51b8152600401610884906148c1565b8160d460008282546116999190614af9565b9091555050600082815260d16020526040902080546116ba90600190614af9565b815481106116ca576116ca614c4b565b6000918252602080832060408051606081018252939091015461ffff811684526201000081046001600160501b031684840152600160601b90046001600160a01b03168382015285845260d1825280842089855260d3909252909220548254919550859291811061173d5761173d614c4b565b60009182526020808320845192018054858301516040968701516001600160a01b0316600160601b026001600160601b036001600160501b0390921662010000026001600160601b031990931661ffff96871617929092171617905588835260d3815283832054875190921683528383209190915584825260d19052208054806117c9576117c9614c35565b60008281526020808220600019908401810183905590920190925586825260d39052604081205560cd546001600160a01b031663b88d4fde3033886040518463ffffffff1660e01b81526004016118229392919061478b565b600060405180830381600087803b15801561183c57600080fd5b505af1158015611850573d6000803e3d6000fd5b505050507ff3a8b89bf11819e5a315eec3a2e35eec9b8963e1df5da6d55570ec4048ee6a12856000600160405161188993929190614a25565b60405180910390a15b8061189c81614bc8565b91505061146b565b50506001609b555050505050565b60003233146118ea5733600090815260cf602052604090205460ff166118ea5760405162461bcd60e51b815260040161088490614971565b60005b828110156119a55761190a848483818110610dde57610dde614c4b565b156119535761194284848381811061192457611924614c4b565b90506020020160208101906119399190614153565b61ffff16610f48565b61194c9083614aae565b9150611993565b61198684848381811061196857611968614c4b565b905060200201602081019061197d9190614153565b61ffff16611262565b6119909083614aae565b91505b8061199d81614bc8565b9150506118ed565b505b92915050565b6033546001600160a01b031633146119d75760405162461bcd60e51b815260040161088490614981565b6119e16000612e1c565b565b6033546001600160a01b03163314611a0d5760405162461bcd60e51b815260040161088490614981565b60df805460ff1916911515919091179055565b6033546001600160a01b03163314611a4a5760405162461bcd60e51b815260040161088490614981565b611a5860e680546001019055565b610c35612e6e565b6033546001600160a01b03163314611a8a5760405162461bcd60e51b815260040161088490614981565b60d855565b6033546001600160a01b03163314611ab95760405162461bcd60e51b815260040161088490614981565b60e555565b6033546001600160a01b03163314611ae85760405162461bcd60e51b815260040161088490614981565b60e155565b60655460ff1615611b105760405162461bcd60e51b815260040161088490614941565b6002609b541415611b335760405162461bcd60e51b8152600401610884906149c1565b6002609b556001600160a01b0383163314611b605760405162461bcd60e51b8152600401610884906149a1565b60005b81811015611e0e5760e75433906001600160a01b0316636352211e858585818110611b9057611b90614c4b565b9050602002016020810190611ba59190614153565b6040518263ffffffff1660e01b8152600401611bc191906149e1565b60206040518083038186803b158015611bd957600080fd5b505afa158015611bed573d6000803e3d6000fd5b505050506040513d601f19601f82011682018060405250810190611c119190613e22565b6001600160a01b031614611c375760405162461bcd60e51b8152600401610884906148d1565b60e7546001600160a01b03166323b872dd3330868686818110611c5c57611c5c614c4b565b9050602002016020810190611c719190614153565b6040518463ffffffff1660e01b8152600401611c8f93929190614726565b600060405180830381600087803b158015611ca957600080fd5b505af1158015611cbd573d6000803e3d6000fd5b505050506040518060600160405280848484818110611cde57611cde614c4b565b9050602002016020810190611cf39190614153565b61ffff168152602001426001600160501b03168152602001856001600160a01b031681525060e96000858585818110611d2e57611d2e614c4b565b9050602002016020810190611d439190614153565b61ffff90811682526020808301939093526040918201600020845181549486015195909301516001600160a01b0316600160601b026001600160601b036001600160501b0390961662010000026001600160601b031990951693909216929092179290921792909216179055611dfb838383818110611dc457611dc4614c4b565b9050602002016020810190611dd99190614153565b6001600160a01b038616600090815260ea602052604090209061ffff16612f4e565b5080611e0681614bc8565b915050611b63565b50506001609b555050565b6099546001600160a01b03163314611e435760405162461bcd60e51b815260040161088490614991565b60e35550565b5050565b6033546001600160a01b03163314611e775760405162461bcd60e51b815260040161088490614981565b60d955565b6033546001600160a01b03163314611ea65760405162461bcd60e51b815260040161088490614981565b60e780546001600160a01b0319166001600160a01b0392909216919091179055565b60655460ff1615611eeb5760405162461bcd60e51b815260040161088490614941565b60da5460dc541015611f48576201518060d75460dd5460de5442611f0f9190614af9565b611f199190614ada565b611f239190614ada565b611f2d9190614ac6565b60dc6000828254611f3e9190614aae565b90915550504260de555b6002609b541415611f6b5760405162461bcd60e51b8152600401610884906149c1565b6002609b55611f79336113c8565b15611f965760405162461bcd60e51b8152600401610884906149d1565b323314611fb55760405162461bcd60e51b815260040161088490614911565b323314611feb5733600090815260cf602052604090205460ff16611feb5760405162461bcd60e51b815260040161088490614971565b6000805b838110156121755760cd5430906001600160a01b0316636352211e87878581811061201c5761201c614c4b565b90506020020160208101906120319190614153565b6040518263ffffffff1660e01b815260040161204d91906149e1565b60206040518083038186803b15801561206557600080fd5b505afa158015612079573d6000803e3d6000fd5b505050506040513d601f19601f8201168201806040525081019061209d9190613e22565b6001600160a01b0316146120c35760405162461bcd60e51b815260040161088490614951565b6120d8858583818110610dde57610dde614c4b565b15612122576121118585838181106120f2576120f2614c4b565b90506020020160208101906121079190614153565b61ffff1684612f5a565b61211b9083614aae565b9150612163565b61215685858381811061213757612137614c4b565b905060200201602081019061214c9190614153565b61ffff1684613232565b6121609083614aae565b91505b8061216d81614bc8565b915050611fef565b50806121815750610bb7565b60ce546001600160a01b03166340c10f1933836040518363ffffffff1660e01b81526004016121b19291906147b3565b600060405180830381600087803b1580156121cb57600080fd5b505af11580156121df573d6000803e3d6000fd5b505050505050506001609b5550565b6033546001600160a01b031633146122185760405162461bcd60e51b815260040161088490614981565b60e4546040516370a0823160e01b81526000916001600160a01b0316906370a0823190612249903090600401614718565b60206040518083038186803b15801561226157600080fd5b505afa158015612275573d6000803e3d6000fd5b505050506040513d601f19601f820116820180604052508101906122999190614195565b60e45460405163a9059cbb60e01b81529192506001600160a01b03169063a9059cbb906122cc90339085906004016147b3565b602060405180830381600087803b1580156122e657600080fd5b505af11580156122fa573d6000803e3d6000fd5b505050506040513d601f19601f82011682018060405250810190611e4991906140ee565b60003233146123565733600090815260cf602052604090205460ff166123565760405162461bcd60e51b815260040161088490614971565b60d45461236557506000919050565b600060d4548363ffffffff1661237b9190614bf5565b60db5460209490941c93909150600090819061239c9060039060ff16614b14565b60ff1690505b60db5460ff16811161244157600081815260d160205260409020546123c8908290614ada565b6123d29083614aae565b91508183106123e05761242f565b600081815260d16020526040902080546123fa9087614bf5565b8154811061240a5761240a614c4b565b600091825260209091200154600160601b90046001600160a01b031695945050505050565b8061243981614bc8565b9150506123a2565b506000949350505050565b6001600160a01b038116600090815260ea6020526040812060609161247082613693565b67ffffffffffffffff81111561248857612488614c61565b6040519080825280602002602001820160405280156124b1578160200160208202803683370190505b50905060005b6124c083613693565b811015612500576124d1838261369d565b8282815181106124e3576124e3614c4b565b6020908102919091010152806124f881614bc8565b9150506124b7565b509392505050565b60cd546040516394e5684760e01b815260009182916001600160a01b03909116906394e568479061253d908690600401614a17565b6102806040518083038186803b15801561255657600080fd5b505afa15801561256a573d6000803e3d6000fd5b505050506040513d601f19601f8201168201806040525081019061258e9190614131565b604081015160db549192506125a59160ff16614b14565b9392505050565b6033546001600160a01b031633146125d65760405162461bcd60e51b815260040161088490614981565b6001600160a01b0391909116600090815260cf60205260409020805460ff1916911515919091179055565b6033546001600160a01b0316331461262b5760405162461bcd60e51b815260040161088490614981565b60da55565b6001600160a01b038116600090815260d26020526040812060609161265482613693565b67ffffffffffffffff81111561266c5761266c614c61565b604051908082528060200260200182016040528015612695578160200160208202803683370190505b50905060005b6126a483613693565b811015612500576126b5838261369d565b8282815181106126c7576126c7614c4b565b6020908102919091010152806126dc81614bc8565b91505061269b565b6000806126f084612630565b90506000805b825181101561276b5761272183828151811061271457612714614c4b565b6020026020010151610e86565b15612759578161273081614bc8565b92505082818151811061274557612745614c4b565b60200260200101518514156127595761276b565b8061276381614bc8565b9150506126f6565b50949350505050565b6033546001600160a01b0316331461279e5760405162461bcd60e51b815260040161088490614981565b60d755565b600080806127b08561244c565b8051909150156125005760005b8151811015612815576127d1816001614aae565b6127dc906005614ada565b8511612803578181815181106127f4576127f4614c4b565b60200260200101519250612815565b8061280d81614bc8565b9150506127bd565b50509392505050565b6033546001600160a01b031633146128485760405162461bcd60e51b815260040161088490614981565b60cd80546001600160a01b039384166001600160a01b03199182161790915560ce8054929093169116179055565b6033546001600160a01b031633146128a05760405162461bcd60e51b815260040161088490614981565b60e855565b6033546001600160a01b031633146128cf5760405162461bcd60e51b815260040161088490614981565b6001600160a01b0381166128f55760405162461bcd60e51b8152600401610884906148f1565b610c3581612e1c565b600054610100900460ff166129195760005460ff161561291d565b303b155b6129395760405162461bcd60e51b815260040161088490614961565b600054610100900460ff1615801561295b576000805461ffff19166101011790555b6129636136a9565b61296b6136e0565b61297361370f565b61297d8383613746565b60cd80546001600160a01b038088166001600160a01b03199283161790925560ce80548784169083161790557ff86195cf7690c55907b2b611ebb7343a6f649bff128701cc542f0569e2c549da60e055655af3107a400060e15560e4805492851692909116919091179055606460e555600060d481905560d581905560d6556a09ed194db19b238c00000060da5560db805460ff199081166008179091556802b5e3af16b188000060d7556202a30060d855601460d95560df805490911690558015612a4f576000805461ff00191690555b5050505050565b6033546001600160a01b03163314612a805760405162461bcd60e51b815260040161088490614981565b60e480546001600160a01b0319166001600160a01b0392909216919091179055565b60006125a583836137ee565b60655460ff1615612ad15760405162461bcd60e51b815260040161088490614941565b6065805460ff191660011790557f62e78cea01bee320cd4e420270b5ea74000d11b0c9f74754ebdbfc544b05a258612b063390565b604051612b139190614718565b60405180910390a1565b60655460ff16612b3f5760405162461bcd60e51b8152600401610884906148b1565b6065805460ff191690557f5db9ee0a495bf2e6ff9c91a7834c1ba4fdd244a5e8aa4e537bd38aeae4b073aa33612b06565b60655460ff1615612b935760405162461bcd60e51b815260040161088490614941565b60da5460dc541015612bf0576201518060d75460dd5460de5442612bb79190614af9565b612bc19190614ada565b612bcb9190614ada565b612bd59190614ac6565b60dc6000828254612be69190614aae565b90915550504260de555b6040805160608101825261ffff80841682526001600160501b0342811660208085019182526001600160a01b03808916868801908152600089815260d09093529682209551865493519751909116600160601b026001600160601b039790941662010000026001600160601b0319909316941693909317179390931692909217905560dd805460019290612c85908490614aae565b90915550506040517f6173e4d2d9dd52aae0ed37afed3adcf924a490639b759ca93d32dc43366c17d290612cbe908490849042906147fb565b60405180910390a16001600160a01b038216600090815260d260205260409020612ce89082612f4e565b505050565b6000612cf882612508565b60ff1690508060d46000828254612d0f9190614aae565b9091555050600081815260d160208181526040808420805487865260d38452828620819055938352815160608101835261ffff808916825260d680546001600160501b039081168488019081526001600160a01b03808e1686890190815260018b018855968b5297909920935193909701805498519451909616600160601b026001600160601b039490971662010000026001600160601b031990981692909116919091179590951716929092179055905490517f6173e4d2d9dd52aae0ed37afed3adcf924a490639b759ca93d32dc43366c17d291612df291869186916147fb565b60405180910390a16001600160a01b038316600090815260d260205260409020610e809083612f4e565b603380546001600160a01b038381166001600160a01b0319831681179093556040519116919082907f8be0079c531659141344cd1fd0a4f28419497f9722a3daafe3b4186f6b6457e090600090a35050565b600060e554612e7c60e65490565b11612e9557612e8f60e680546001019055565b50600090565b60e1546098546040516370a0823160e01b81526001600160a01b03909116906370a0823190612ec8903090600401614718565b60206040518083038186803b158015612ee057600080fd5b505afa158015612ef4573d6000803e3d6000fd5b505050506040513d601f19601f82011682018060405250810190612f189190614195565b1015612f365760405162461bcd60e51b815260040161088490614921565b600060e655612f4960e05460e1546138e1565b905090565b60006125a583836139ef565b600082815260d0602090815260408083208151606081018352905461ffff811682526201000081046001600160501b031693820193909352600160601b9092046001600160a01b03169082018190523314612fc75760405162461bcd60e51b8152600401610884906148a1565b612fd0336113c8565b15612fed5760405162461bcd60e51b8152600401610884906149d1565b828015613012575060d8546020820151613010906001600160501b031642614af9565b105b1561302f5760405162461bcd60e51b8152600401610884906148e1565b61303884610f48565b9150821561310d57613048612e6e565b5061305284613a3e565b6001166001141561306b5761306682613a84565b600091505b600084815260d06020526040812081905560dd80546001929061308f908490614af9565b909155506130a390508460d2600033610af9565b5060cd546001600160a01b031663b88d4fde3033876040518463ffffffff1660e01b81526004016130d69392919061478b565b600060405180830381600087803b1580156130f057600080fd5b505af1158015613104573d6000803e3d6000fd5b505050506131f0565b61312f606460d954846131209190614ada565b61312a9190614ac6565b613a84565b60405180606001604052808561ffff168152602001426001600160501b0316815260200161315a3390565b6001600160a01b03908116909152600086815260d0602090815260409182902084518154928601519590930151909316600160601b026001600160601b036001600160501b0390951662010000026001600160601b031990921661ffff90931692909217179290921691909117905560d9546064906131d99082614af9565b6131e39084614ada565b6131ed9190614ac6565b91505b7fad9f911248c0dfc1313d70a30d8c53a6e8b6d4e7a7c4869d03d39bf44a9db10984838560405161322393929190614a4d565b60405180910390a15092915050565b60008061323e84612508565b60ff16600081815260d16020908152604080832088845260d390925282205481549394509192909190811061327557613275614c4b565b600091825260209182902060408051606081018252929091015461ffff811683526001600160501b0362010000820416938301939093526001600160a01b03600160601b90930483168282015260cd5490516331a9108f60e11b815291935030921690636352211e906132ec908990600401614a17565b60206040518083038186803b15801561330457600080fd5b505afa158015613318573d6000803e3d6000fd5b505050506040513d601f19601f8201168201806040525081019061333c9190613e22565b6001600160a01b0316146133625760405162461bcd60e51b815260040161088490614951565b60408101516001600160a01b0316331461338e5760405162461bcd60e51b8152600401610884906148a1565b61339785611262565b92508315613584578160d460008282546133b19190614af9565b9091555050600082815260d16020526040812080546133d290600190614af9565b815481106133e2576133e2614c4b565b6000918252602080832060408051606081018252939091015461ffff811684526201000081046001600160501b031684840152600160601b90046001600160a01b03168382015286845260d182528084208a855260d3909252909220548254919350839291811061345557613455614c4b565b60009182526020808320845192018054858301516040968701516001600160a01b0316600160601b026001600160601b036001600160501b0390921662010000026001600160601b031990931661ffff96871617929092171617905589835260d3815283832054855190921683528383209190915585825260d19052208054806134e1576134e1614c35565b60008281526020808220600019908401810183905590920190925587825260d390526040812081905561351990879060d29033610af9565b5060cd546001600160a01b031663b88d4fde3033896040518463ffffffff1660e01b815260040161354c9392919061478b565b600060405180830381600087803b15801561356657600080fd5b505af115801561357a573d6000803e3d6000fd5b5050505050613650565b60405180606001604052808661ffff16815260200160d6546001600160501b031681526020016135b13390565b6001600160a01b03169052600083815260d16020908152604080832089845260d390925290912054815481106135e9576135e9614c4b565b6000918252602091829020835191018054928401516040909401516001600160a01b0316600160601b026001600160601b036001600160501b0390951662010000026001600160601b031990941661ffff9093169290921792909217929092169190911790555b7ff3a8b89bf11819e5a315eec3a2e35eec9b8963e1df5da6d55570ec4048ee6a1285848660405161368393929190614a4d565b60405180910390a1505092915050565b60006119a7825490565b60006125a58383613add565b600054610100900460ff166136d05760405162461bcd60e51b8152600401610884906149b1565b6136d8613b07565b6119e1613b2e565b600054610100900460ff166137075760405162461bcd60e51b8152600401610884906149b1565b6119e1613b5e565b600054610100900460ff166137365760405162461bcd60e51b8152600401610884906149b1565b61373e613b07565b6119e1613b8c565b600054610100900460ff166137615760005460ff1615613765565b303b155b6137815760405162461bcd60e51b815260040161088490614961565b600054610100900460ff161580156137a3576000805461ffff19166101011790555b609980546001600160a01b038086166001600160a01b031992831617909255609880549285169290911691909117905560006097558015612ce8576000805461ff0019169055505050565b600081815260018301602052604081205480156138d7576000613812600183614af9565b855490915060009061382690600190614af9565b905081811461388b57600086600001828154811061384657613846614c4b565b906000526020600020015490508087600001848154811061386957613869614c4b565b6000918252602080832090910192909255918252600188019052604090208390555b855486908061389c5761389c614c35565b6001900381819060005260206000200160009055905585600101600086815260200190815260200160002060009055600193505050506119a7565b60009150506119a7565b6098546099546097546040516000936001600160a01b0390811693634000aea093911691869161391691899190602001614842565b6040516020818303038152906040526040518463ffffffff1660e01b8152600401613943939291906147ce565b602060405180830381600087803b15801561395d57600080fd5b505af1158015613971573d6000803e3d6000fd5b505050506040513d601f19601f8201168201806040525081019061399591906140ee565b5060006139b98460975430609a600089815260200190815260200160002054613bbf565b6000858152609a60205260409020549091506139d6906001614aae565b6000858152609a60205260409020556113408482613bf9565b6000818152600183016020526040812054613a36575081546001818101845560008481526020808220909301849055845484825282860190935260409020919091556119a7565b5060006119a7565b600032613a4c600143614af9565b40428460e354604051602001613a669594939291906146ae565b60408051601f19818403018152919052805160209091012092915050565b60d454613aa5578060d56000828254613a9d9190614aae565b909155505050565b60d45460d554613ab59083614aae565b613abf9190614ac6565b60d66000828254613ad09190614aae565b9091555050600060d55550565b6000826000018281548110613af457613af4614c4b565b9060005260206000200154905092915050565b600054610100900460ff166119e15760405162461bcd60e51b8152600401610884906149b1565b600054610100900460ff16613b555760405162461bcd60e51b8152600401610884906149b1565b6119e133612e1c565b600054610100900460ff16613b855760405162461bcd60e51b8152600401610884906149b1565b6001609b55565b600054610100900460ff16613bb35760405162461bcd60e51b8152600401610884906149b1565b6065805460ff19169055565b600084848484604051602001613bd89493929190614850565b60408051601f19818403018152919052805160209091012095945050505050565b60008282604051602001613c0e9291906146f8565b60405160208183030381529060405280519060200120905092915050565b6000613c3f613c3a84614a8d565b614a76565b90508082856020860285011115613c5857613c58600080fd5b60005b85811015613c8257613c6d8783613df6565b83526020928301929190910190600101613c5b565b5050509392505050565b80356119a781614c77565b80516119a781614c77565b60008083601f840112613cb757613cb7600080fd5b50813567ffffffffffffffff811115613cd257613cd2600080fd5b602083019150836020820283011115613ced57613ced600080fd5b9250929050565b600082601f830112613d0857613d08600080fd5b6012611340848285613c2c565b80356119a781614c8b565b80516119a781614c8b565b80356119a781614c93565b60008083601f840112613d4b57613d4b600080fd5b50813567ffffffffffffffff811115613d6657613d66600080fd5b602083019150836001820283011115613ced57613ced600080fd5b60006102808284031215613d9757613d97600080fd5b613da16060614a76565b90506000613daf8484613d20565b908201526020613dc184848301613cf4565b90820152610260613dd484848301613df6565b60408301525092915050565b80356119a781614c99565b80516119a781614c93565b80516119a781614ca3565b600060208284031215613e1657613e16600080fd5b60006113408484613c8c565b600060208284031215613e3757613e37600080fd5b60006113408484613c97565b60008060408385031215613e5957613e59600080fd5b6000613e658585613c8c565b9250506020613e7685828601613c8c565b9150509250929050565b60008060008060808587031215613e9957613e99600080fd5b6000613ea58787613c8c565b9450506020613eb687828801613c8c565b9350506040613ec787828801613c8c565b9250506060613ed887828801613c8c565b91505092959194509250565b600080600080600060808688031215613eff57613eff600080fd5b6000613f0b8888613c8c565b9550506020613f1c88828901613c8c565b9450506040613f2d88828901613d2b565b935050606086013567ffffffffffffffff811115613f4d57613f4d600080fd5b613f5988828901613d36565b92509250509295509295909350565b600080600060408486031215613f8057613f80600080fd5b6000613f8c8686613c8c565b935050602084013567ffffffffffffffff811115613fac57613fac600080fd5b613fb886828701613ca2565b92509250509250925092565b60008060408385031215613fda57613fda600080fd5b6000613fe68585613c8c565b9250506020613e7685828601613d15565b6000806040838503121561400d5761400d600080fd5b60006140198585613c8c565b9250506020613e7685828601613d2b565b6000806020838503121561404057614040600080fd5b823567ffffffffffffffff81111561405a5761405a600080fd5b61406685828601613ca2565b92509250509250929050565b60008060006040848603121561408a5761408a600080fd5b833567ffffffffffffffff8111156140a4576140a4600080fd5b6140b086828701613ca2565b935093505060206140c386828701613d15565b9150509250925092565b6000602082840312156140e2576140e2600080fd5b60006113408484613d15565b60006020828403121561410357614103600080fd5b60006113408484613d20565b6000806040838503121561412557614125600080fd5b60006140198585613d2b565b6000610280828403121561414757614147600080fd5b60006113408484613d81565b60006020828403121561416857614168600080fd5b60006113408484613de0565b60006020828403121561418957614189600080fd5b60006113408484613d2b565b6000602082840312156141aa576141aa600080fd5b60006113408484613deb565b6141c08282614236565b5060200190565b6141d081614b34565b82525050565b6141d06141e282614b34565b614be3565b60006141f1825190565b808452602093840193830160005b8281101561422457815161421387826141b6565b9650506020820191506001016141ff565b5093949350505050565b8015156141d0565b806141d0565b6001600160e01b031981166141d0565b6000614256825190565b80845260208401935061426d818560208601614b6f565b601f01601f19169290920192915050565b6141d081614b45565b6141d081614b50565b600b8152602081016a27b7363c903437b63232b960a91b815290505b60200190565b60148152602081017314185d5cd8589b194e881b9bdd081c185d5cd95960621b815290506142ac565b600a8152602081016927b7363c9037bbb732b960b11b815290506142ac565b600f8152602081016e20b4b73a103cb7bab9103a37b5b2b760891b815290506142ac565b60318152602081017f4477617266206d75737420686176652032206461797320776f727468206f662081527024576865617420746f20756e7374616b6560781b602082015290505b60400190565b60268152602081017f4f776e61626c653a206e6577206f776e657220697320746865207a65726f206181526564647265737360d01b60208201529050614366565b600f8152602081016e14995cd8dd5948111a5cd8589b1959608a1b815290506142ac565b6008815260208101674f6e6c7920454f4160c01b815290506142ac565b602b8152602081017f4e6f7420656e6f756768204c494e4b202d2066696c6c20636f6e74726163742081526a1dda5d1a0819985d58d95d60aa1b60208201529050614366565b60238152602081017f43616e6e6f742073656e6420746f6b656e7320746f204d696e65206469726563815262746c7960e81b60208201529050614366565b60108152602081016f14185d5cd8589b194e881c185d5cd95960821b815290506142ac565b6014815260208101732737ba1029ba30b5b2b2103432b932903cb2ba1760611b815290506142ac565b602e8152602081017f496e697469616c697a61626c653a20636f6e747261637420697320616c72656181526d191e481a5b9a5d1a585b1a5e995960921b60208201529050614366565b60288152602081017f596f75277265206e6f7420616c6c6f77656420746f2063616c6c207468697320815267333ab731ba34b7b760c11b60208201529050614366565b60208082527f4f776e61626c653a2063616c6c6572206973206e6f7420746865206f776e657291019081526142ac565b601f8152602081017f4f6e6c7920565246436f6f7264696e61746f722063616e2066756c66696c6c00815290506142ac565b919050565b6011815260208101704f6e6c7920796f7572206164647265737360781b815290506142ac565b602b8152602081017f496e697469616c697a61626c653a20636f6e7472616374206973206e6f74206981526a6e697469616c697a696e6760a81b60208201529050614366565b601f8152602081017f5265656e7472616e637947756172643a207265656e7472616e742063616c6c00815290506142ac565b60198152602081017f436f6e74726163747320617265206e6f7420616c6c6f77656400000000000000815290506142ac565b61ffff81166141d0565b6141d081614b63565b6001600160501b0381166141d0565b60ff81166141d0565b6146b881876141d6565b6014016146c58186614236565b6020016146d28185614236565b6020016146df8184614236565b6020016146ec8183614236565b60200195945050505050565b6147028184614236565b60200161470f8183614236565b60200192915050565b602081016119a782846141c7565b6060810161473482866141c7565b61474160208301856141c7565b611340604083018461468d565b6080810161475c82866141c7565b61476960208301856141c7565b614776604083018461468d565b81810360608301526000815260208101610bf4565b6080810161479982866141c7565b6147a660208301856141c7565b6147766040830184614236565b604081016147c182856141c7565b6125a56020830184614236565b606081016147dc82866141c7565b6147e96020830185614236565b8181036040830152610bf4818461424c565b6060810161480982866141c7565b6148166020830185614236565b6113406040830184614236565b602080825281016125a581846141e7565b602081016119a7828461422e565b604081016147c18285614236565b6080810161485e8287614236565b61486b6020830186614236565b61487860408301856141c7565b610bf46060830184614236565b602081016119a7828461423c565b602081016119a7828461427e565b602080825281016119a781614290565b602080825281016119a7816142b2565b602080825281016119a7816142db565b602080825281016119a7816142fa565b602080825281016119a78161431e565b602080825281016119a78161436c565b602080825281016119a7816143ad565b602080825281016119a7816143d1565b602080825281016119a7816143ee565b602080825281016119a781614434565b602080825281016119a781614472565b602080825281016119a781614497565b602080825281016119a7816144c0565b602080825281016119a781614509565b602080825281016119a78161454c565b602080825281016119a78161457c565b602080825281016119a7816145b3565b602080825281016119a7816145d9565b602080825281016119a78161461f565b602080825281016119a781614651565b602081016119a7828461468d565b606081016149fd8286614683565b614a0a6020830185614696565b61134060408301846141c7565b602081016119a78284614236565b60608101614a338286614236565b614a406020830185614287565b611340604083018461422e565b60608101614a5b8286614236565b614a406020830185614236565b602081016119a782846146a5565b6000614a8160405190565b90506145ae8282614b9b565b600067ffffffffffffffff821115614aa757614aa7614c61565b5060200290565b60008219821115614ac157614ac1614c09565b500190565b600082614ad557614ad5614c1f565b500490565b6000816000190483118215151615614af457614af4614c09565b500290565b815b9150600082821015614b0f57614b0f614c09565b500390565b60ff908116908216614afb565b6001600160501b03908116908216614afb565b60006001600160a01b0382166119a7565b60006119a782614b58565b6000816119a7565b60006119a782614b34565b600061ffff82166119a7565b60005b83811015614b8a578181015183820152602001614b72565b83811115610e805750506000910152565b601f19601f830116810181811067ffffffffffffffff82111715614bc157614bc1614c61565b6040525050565b6000600019821415614bdc57614bdc614c09565b5060010190565b60006119a78260006119a78260601b90565b600082614c0457614c04614c1f565b500690565b634e487b7160e01b600052601160045260246000fd5b634e487b7160e01b600052601260045260246000fd5b634e487b7160e01b600052603160045260246000fd5b634e487b7160e01b600052603260045260246000fd5b634e487b7160e01b600052604160045260246000fd5b614c8081614b34565b8114610c3557600080fd5b801515614c80565b80614c80565b61ffff8116614c80565b60ff8116614c8056fea26469706673582212208e18d4c50a4e504b5b16cd699513b46f84f0932b050f9585580944ce3a7a38dc64736f6c63430008070033",
  "linkReferences": {},
  "deployedLinkReferences": {}
}