{
  "_format": "hh-sol-artifact-1",
  "contractName": "NFTCollectible",
  "sourceName": "contracts/NFTCollectible.sol",
  "abi": [
    {
      "inputs": [
        {
          "internalType": "string",
          "name": "baseURI",
          "type": "string"
        }
      ],
      "stateMutability": "nonpayable",
      "type": "constructor"
    },
    {
      "anonymous": false,
      "inputs": [
        {
          "indexed": true,
          "internalType": "address",
          "name": "owner",
          "type": "address"
        },
        {
          "indexed": true,
          "internalType": "address",
          "name": "approved",
          "type": "address"
        },
        {
          "indexed": true,
          "internalType": "uint256",
          "name": "tokenId",
          "type": "uint256"
        }
      ],
      "name": "Approval",
      "type": "event"
    },
    {
      "anonymous": false,
      "inputs": [
        {
          "indexed": true,
          "internalType": "address",
          "name": "owner",
          "type": "address"
        },
        {
          "indexed": true,
          "internalType": "address",
          "name": "operator",
          "type": "address"
        },
        {
          "indexed": false,
          "internalType": "bool",
          "name": "approved",
          "type": "bool"
        }
      ],
      "name": "ApprovalForAll",
      "type": "event"
    },
    {
      "anonymous": false,
      "inputs": [
        {
          "indexed": true,
          "internalType": "address",
          "name": "previousOwner",
          "type": "address"
        },
        {
          "indexed": true,
          "internalType": "address",
          "name": "newOwner",
          "type": "address"
        }
      ],
      "name": "OwnershipTransferred",
      "type": "event"
    },
    {
      "anonymous": false,
      "inputs": [
        {
          "indexed": true,
          "internalType": "address",
          "name": "from",
          "type": "address"
        },
        {
          "indexed": true,
          "internalType": "address",
          "name": "to",
          "type": "address"
        },
        {
          "indexed": true,
          "internalType": "uint256",
          "name": "tokenId",
          "type": "uint256"
        }
      ],
      "name": "Transfer",
      "type": "event"
    },
    {
      "inputs": [],
      "name": "MAX_PER_MINT",
      "outputs": [
        {
          "internalType": "uint256",
          "name": "",
          "type": "uint256"
        }
      ],
      "stateMutability": "view",
      "type": "function"
    },
    {
      "inputs": [],
      "name": "MAX_SUPPLY",
      "outputs": [
        {
          "internalType": "uint256",
          "name": "",
          "type": "uint256"
        }
      ],
      "stateMutability": "view",
      "type": "function"
    },
    {
      "inputs": [],
      "name": "PRICE",
      "outputs": [
        {
          "internalType": "uint256",
          "name": "",
          "type": "uint256"
        }
      ],
      "stateMutability": "view",
      "type": "function"
    },
    {
      "inputs": [
        {
          "internalType": "address",
          "name": "to",
          "type": "address"
        },
        {
          "internalType": "uint256",
          "name": "tokenId",
          "type": "uint256"
        }
      ],
      "name": "approve",
      "outputs": [],
      "stateMutability": "nonpayable",
      "type": "function"
    },
    {
      "inputs": [
        {
          "internalType": "address",
          "name": "owner",
          "type": "address"
        }
      ],
      "name": "balanceOf",
      "outputs": [
        {
          "internalType": "uint256",
          "name": "",
          "type": "uint256"
        }
      ],
      "stateMutability": "view",
      "type": "function"
    },
    {
      "inputs": [],
      "name": "baseTokenURI",
      "outputs": [
        {
          "internalType": "string",
          "name": "",
          "type": "string"
        }
      ],
      "stateMutability": "view",
      "type": "function"
    },
    {
      "inputs": [
        {
          "internalType": "uint256",
          "name": "tokenId",
          "type": "uint256"
        }
      ],
      "name": "getApproved",
      "outputs": [
        {
          "internalType": "address",
          "name": "",
          "type": "address"
        }
      ],
      "stateMutability": "view",
      "type": "function"
    },
    {
      "inputs": [
        {
          "internalType": "address",
          "name": "owner",
          "type": "address"
        },
        {
          "internalType": "address",
          "name": "operator",
          "type": "address"
        }
      ],
      "name": "isApprovedForAll",
      "outputs": [
        {
          "internalType": "bool",
          "name": "",
          "type": "bool"
        }
      ],
      "stateMutability": "view",
      "type": "function"
    },
    {
      "inputs": [
        {
          "internalType": "uint256",
          "name": "_count",
          "type": "uint256"
        }
      ],
      "name": "mintNFTs",
      "outputs": [],
      "stateMutability": "payable",
      "type": "function"
    },
    {
      "inputs": [],
      "name": "name",
      "outputs": [
        {
          "internalType": "string",
          "name": "",
          "type": "string"
        }
      ],
      "stateMutability": "view",
      "type": "function"
    },
    {
      "inputs": [],
      "name": "owner",
      "outputs": [
        {
          "internalType": "address",
          "name": "",
          "type": "address"
        }
      ],
      "stateMutability": "view",
      "type": "function"
    },
    {
      "inputs": [
        {
          "internalType": "uint256",
          "name": "tokenId",
          "type": "uint256"
        }
      ],
      "name": "ownerOf",
      "outputs": [
        {
          "internalType": "address",
          "name": "",
          "type": "address"
        }
      ],
      "stateMutability": "view",
      "type": "function"
    },
    {
      "inputs": [],
      "name": "renounceOwnership",
      "outputs": [],
      "stateMutability": "nonpayable",
      "type": "function"
    },
    {
      "inputs": [],
      "name": "reserveNFTs",
      "outputs": [],
      "stateMutability": "nonpayable",
      "type": "function"
    },
    {
      "inputs": [
        {
          "internalType": "address",
          "name": "from",
          "type": "address"
        },
        {
          "internalType": "address",
          "name": "to",
          "type": "address"
        },
        {
          "internalType": "uint256",
          "name": "tokenId",
          "type": "uint256"
        }
      ],
      "name": "safeTransferFrom",
      "outputs": [],
      "stateMutability": "nonpayable",
      "type": "function"
    },
    {
      "inputs": [
        {
          "internalType": "address",
          "name": "from",
          "type": "address"
        },
        {
          "internalType": "address",
          "name": "to",
          "type": "address"
        },
        {
          "internalType": "uint256",
          "name": "tokenId",
          "type": "uint256"
        },
        {
          "internalType": "bytes",
          "name": "_data",
          "type": "bytes"
        }
      ],
      "name": "safeTransferFrom",
      "outputs": [],
      "stateMutability": "nonpayable",
      "type": "function"
    },
    {
      "inputs": [
        {
          "internalType": "address",
          "name": "operator",
          "type": "address"
        },
        {
          "internalType": "bool",
          "name": "approved",
          "type": "bool"
        }
      ],
      "name": "setApprovalForAll",
      "outputs": [],
      "stateMutability": "nonpayable",
      "type": "function"
    },
    {
      "inputs": [
        {
          "internalType": "string",
          "name": "_baseTokenURI",
          "type": "string"
        }
      ],
      "name": "setBaseURI",
      "outputs": [],
      "stateMutability": "nonpayable",
      "type": "function"
    },
    {
      "inputs": [
        {
          "internalType": "bytes4",
          "name": "interfaceId",
          "type": "bytes4"
        }
      ],
      "name": "supportsInterface",
      "outputs": [
        {
          "internalType": "bool",
          "name": "",
          "type": "bool"
        }
      ],
      "stateMutability": "view",
      "type": "function"
    },
    {
      "inputs": [],
      "name": "symbol",
      "outputs": [
        {
          "internalType": "string",
          "name": "",
          "type": "string"
        }
      ],
      "stateMutability": "view",
      "type": "function"
    },
    {
      "inputs": [
        {
          "internalType": "uint256",
          "name": "index",
          "type": "uint256"
        }
      ],
      "name": "tokenByIndex",
      "outputs": [
        {
          "internalType": "uint256",
          "name": "",
          "type": "uint256"
        }
      ],
      "stateMutability": "view",
      "type": "function"
    },
    {
      "inputs": [
        {
          "internalType": "address",
          "name": "owner",
          "type": "address"
        },
        {
          "internalType": "uint256",
          "name": "index",
          "type": "uint256"
        }
      ],
      "name": "tokenOfOwnerByIndex",
      "outputs": [
        {
          "internalType": "uint256",
          "name": "",
          "type": "uint256"
        }
      ],
      "stateMutability": "view",
      "type": "function"
    },
    {
      "inputs": [
        {
          "internalType": "uint256",
          "name": "tokenId",
          "type": "uint256"
        }
      ],
      "name": "tokenURI",
      "outputs": [
        {
          "internalType": "string",
          "name": "",
          "type": "string"
        }
      ],
      "stateMutability": "view",
      "type": "function"
    },
    {
      "inputs": [
        {
          "internalType": "address",
          "name": "_owner",
          "type": "address"
        }
      ],
      "name": "tokensOfOwner",
      "outputs": [
        {
          "internalType": "uint256[]",
          "name": "",
          "type": "uint256[]"
        }
      ],
      "stateMutability": "view",
      "type": "function"
    },
    {
      "inputs": [],
      "name": "totalSupply",
      "outputs": [
        {
          "internalType": "uint256",
          "name": "",
          "type": "uint256"
        }
      ],
      "stateMutability": "view",
      "type": "function"
    },
    {
      "inputs": [
        {
          "internalType": "address",
          "name": "from",
          "type": "address"
        },
        {
          "internalType": "address",
          "name": "to",
          "type": "address"
        },
        {
          "internalType": "uint256",
          "name": "tokenId",
          "type": "uint256"
        }
      ],
      "name": "transferFrom",
      "outputs": [],
      "stateMutability": "nonpayable",
      "type": "function"
    },
    {
      "inputs": [
        {
          "internalType": "address",
          "name": "newOwner",
          "type": "address"
        }
      ],
      "name": "transferOwnership",
      "outputs": [],
      "stateMutability": "nonpayable",
      "type": "function"
    },
    {
      "inputs": [],
      "name": "withdraw",
      "outputs": [],
      "stateMutability": "payable",
      "type": "function"
    }
  ],
  "bytecode": "0x60806040523480156200001157600080fd5b50604051620046c1380380620046c18339818101604052810190620000379190620003d4565b6040518060400160405280600f81526020017f4e465420436f6c6c65637469626c6500000000000000000000000000000000008152506040518060400160405280600481526020017f4e465443000000000000000000000000000000000000000000000000000000008152508160009080519060200190620000bb929190620002b2565b508060019080519060200190620000d4929190620002b2565b505050620000f7620000eb6200010f60201b60201c565b6200011760201b60201c565b6200010881620001dd60201b60201c565b50620005bf565b600033905090565b6000600a60009054906101000a900473ffffffffffffffffffffffffffffffffffffffff16905081600a60006101000a81548173ffffffffffffffffffffffffffffffffffffffff021916908373ffffffffffffffffffffffffffffffffffffffff1602179055508173ffffffffffffffffffffffffffffffffffffffff168173ffffffffffffffffffffffffffffffffffffffff167f8be0079c531659141344cd1fd0a4f28419497f9722a3daafe3b4186f6b6457e060405160405180910390a35050565b620001ed6200010f60201b60201c565b73ffffffffffffffffffffffffffffffffffffffff16620002136200028860201b60201c565b73ffffffffffffffffffffffffffffffffffffffff16146200026c576040517f08c379a000000000000000000000000000000000000000000000000000000000815260040162000263906200045b565b60405180910390fd5b80600c908051906020019062000284929190620002b2565b5050565b6000600a60009054906101000a900473ffffffffffffffffffffffffffffffffffffffff16905090565b828054620002c0906200052b565b90600052602060002090601f016020900481019282620002e4576000855562000330565b82601f10620002ff57805160ff191683800117855562000330565b8280016001018555821562000330579182015b828111156200032f57825182559160200191906001019062000312565b5b5090506200033f919062000343565b5090565b5b808211156200035e57600081600090555060010162000344565b5090565b6000620003796200037384620004b1565b6200047d565b9050828152602081018484840111156200039257600080fd5b6200039f848285620004f5565b509392505050565b600082601f830112620003b957600080fd5b8151620003cb84826020860162000362565b91505092915050565b600060208284031215620003e757600080fd5b600082015167ffffffffffffffff8111156200040257600080fd5b6200041084828501620003a7565b91505092915050565b600062000428602083620004e4565b91507f4f776e61626c653a2063616c6c6572206973206e6f7420746865206f776e65726000830152602082019050919050565b60006020820190508181036000830152620004768162000419565b9050919050565b6000604051905081810181811067ffffffffffffffff82111715620004a757620004a662000590565b5b8060405250919050565b600067ffffffffffffffff821115620004cf57620004ce62000590565b5b601f19601f8301169050602081019050919050565b600082825260208201905092915050565b60005b8381101562000515578082015181840152602081019050620004f8565b8381111562000525576000848401525b50505050565b600060028204905060018216806200054457607f821691505b602082108114156200055b576200055a62000561565b5b50919050565b7f4e487b7100000000000000000000000000000000000000000000000000000000600052602260045260246000fd5b7f4e487b7100000000000000000000000000000000000000000000000000000000600052604160045260246000fd5b6140f280620005cf6000396000f3fe6080604052600436106101b75760003560e01c806355f804b3116100ec57806395d89b411161008a578063c87b56dd11610064578063c87b56dd146105de578063d547cfb71461061b578063e985e9c514610646578063f2fde38b14610683576101b7565b806395d89b4114610561578063a22cb4651461058c578063b88d4fde146105b5576101b7565b8063715018a6116100c6578063715018a6146104b75780638462151c146104ce5780638d859f3e1461050b5780638da5cb5b14610536576101b7565b806355f804b3146104145780636352211e1461043d57806370a082311461047a576101b7565b806323b872dd116101595780633b4b1381116101335780633b4b1381146103885780633ccfd60b146103a457806342842e0e146103ae5780634f6ccce7146103d7576101b7565b806323b872dd146102f75780632f745c591461032057806332cb6b0c1461035d576101b7565b8063095ea7b311610195578063095ea7b31461026157806309d42b301461028a578063144100c7146102b557806318160ddd146102cc576101b7565b806301ffc9a7146101bc57806306fdde03146101f9578063081812fc14610224575b600080fd5b3480156101c857600080fd5b506101e360048036038101906101de9190612d5f565b6106ac565b6040516101f091906138ac565b60405180910390f35b34801561020557600080fd5b5061020e610726565b60405161021b91906138c7565b60405180910390f35b34801561023057600080fd5b5061024b60048036038101906102469190612df2565b6107b8565b6040516102589190613823565b60405180910390f35b34801561026d57600080fd5b5061028860048036038101906102839190612d23565b61083d565b005b34801561029657600080fd5b5061029f610955565b6040516102ac9190613be9565b60405180910390f35b3480156102c157600080fd5b506102ca61095a565b005b3480156102d857600080fd5b506102e1610a65565b6040516102ee9190613be9565b60405180910390f35b34801561030357600080fd5b5061031e60048036038101906103199190612c1d565b610a72565b005b34801561032c57600080fd5b5061034760048036038101906103429190612d23565b610ad2565b6040516103549190613be9565b60405180910390f35b34801561036957600080fd5b50610372610b77565b60405161037f9190613be9565b60405180910390f35b6103a2600480360381019061039d9190612df2565b610b7c565b005b6103ac610cb7565b005b3480156103ba57600080fd5b506103d560048036038101906103d09190612c1d565b610e2b565b005b3480156103e357600080fd5b506103fe60048036038101906103f99190612df2565b610e4b565b60405161040b9190613be9565b60405180910390f35b34801561042057600080fd5b5061043b60048036038101906104369190612db1565b610ee2565b005b34801561044957600080fd5b50610464600480360381019061045f9190612df2565b610f78565b6040516104719190613823565b60405180910390f35b34801561048657600080fd5b506104a1600480360381019061049c9190612bb8565b61102a565b6040516104ae9190613be9565b60405180910390f35b3480156104c357600080fd5b506104cc6110e2565b005b3480156104da57600080fd5b506104f560048036038101906104f09190612bb8565b61116a565b604051610502919061388a565b60405180910390f35b34801561051757600080fd5b50610520611264565b60405161052d9190613be9565b60405180910390f35b34801561054257600080fd5b5061054b61126f565b6040516105589190613823565b60405180910390f35b34801561056d57600080fd5b50610576611299565b60405161058391906138c7565b60405180910390f35b34801561059857600080fd5b506105b360048036038101906105ae9190612ce7565b61132b565b005b3480156105c157600080fd5b506105dc60048036038101906105d79190612c6c565b611341565b005b3480156105ea57600080fd5b5061060560048036038101906106009190612df2565b6113a3565b60405161061291906138c7565b60405180910390f35b34801561062757600080fd5b5061063061144a565b60405161063d91906138c7565b60405180910390f35b34801561065257600080fd5b5061066d60048036038101906106689190612be1565b6114d8565b60405161067a91906138ac565b60405180910390f35b34801561068f57600080fd5b506106aa60048036038101906106a59190612bb8565b61156c565b005b60007f780e9d63000000000000000000000000000000000000000000000000000000007bffffffffffffffffffffffffffffffffffffffffffffffffffffffff1916827bffffffffffffffffffffffffffffffffffffffffffffffffffffffff1916148061071f575061071e82611664565b5b9050919050565b60606000805461073590613ee7565b80601f016020809104026020016040519081016040528092919081815260200182805461076190613ee7565b80156107ae5780601f10610783576101008083540402835291602001916107ae565b820191906000526020600020905b81548152906001019060200180831161079157829003601f168201915b5050505050905090565b60006107c382611746565b610802576040517f08c379a00000000000000000000000000000000000000000000000000000000081526004016107f990613ae9565b60405180910390fd5b6004600083815260200190815260200160002060009054906101000a900473ffffffffffffffffffffffffffffffffffffffff169050919050565b600061084882610f78565b90508073ffffffffffffffffffffffffffffffffffffffff168373ffffffffffffffffffffffffffffffffffffffff1614156108b9576040517f08c379a00000000000000000000000000000000000000000000000000000000081526004016108b090613b69565b60405180910390fd5b8073ffffffffffffffffffffffffffffffffffffffff166108d86117b2565b73ffffffffffffffffffffffffffffffffffffffff1614806109075750610906816109016117b2565b6114d8565b5b610946576040517f08c379a000000000000000000000000000000000000000000000000000000000815260040161093d90613a09565b60405180910390fd5b61095083836117ba565b505050565b600581565b6109626117b2565b73ffffffffffffffffffffffffffffffffffffffff1661098061126f565b73ffffffffffffffffffffffffffffffffffffffff16146109d6576040517f08c379a00000000000000000000000000000000000000000000000000000000081526004016109cd90613b09565b60405180910390fd5b60006109e2600b611873565b905060646109fa600a8361188190919063ffffffff16565b10610a3a576040517f08c379a0000000000000000000000000000000000000000000000000000000008152600401610a3190613a69565b60405180910390fd5b60005b600a811015610a6157610a4e611897565b8080610a5990613f19565b915050610a3d565b5050565b6000600880549050905090565b610a83610a7d6117b2565b826118bc565b610ac2576040517f08c379a0000000000000000000000000000000000000000000000000000000008152600401610ab990613ba9565b60405180910390fd5b610acd83838361199a565b505050565b6000610add8361102a565b8210610b1e576040517f08c379a0000000000000000000000000000000000000000000000000000000008152600401610b1590613909565b60405180910390fd5b600660008473ffffffffffffffffffffffffffffffffffffffff1673ffffffffffffffffffffffffffffffffffffffff168152602001908152602001600020600083815260200190815260200160002054905092915050565b606481565b6000610b88600b611873565b90506064610b9f838361188190919063ffffffff16565b1115610be0576040517f08c379a0000000000000000000000000000000000000000000000000000000008152600401610bd7906138e9565b60405180910390fd5b600082118015610bf1575060058211155b610c30576040517f08c379a0000000000000000000000000000000000000000000000000000000008152600401610c2790613aa9565b60405180910390fd5b610c4a82662386f26fc10000611bf690919063ffffffff16565b341015610c8c576040517f08c379a0000000000000000000000000000000000000000000000000000000008152600401610c83906139c9565b60405180910390fd5b60005b82811015610cb257610c9f611897565b8080610caa90613f19565b915050610c8f565b505050565b610cbf6117b2565b73ffffffffffffffffffffffffffffffffffffffff16610cdd61126f565b73ffffffffffffffffffffffffffffffffffffffff1614610d33576040517f08c379a0000000000000000000000000000000000000000000000000000000008152600401610d2a90613b09565b60405180910390fd5b600047905060008111610d7b576040517f08c379a0000000000000000000000000000000000000000000000000000000008152600401610d7290613ac9565b60405180910390fd5b60003373ffffffffffffffffffffffffffffffffffffffff1682604051610da19061380e565b60006040518083038185875af1925050503d8060008114610dde576040519150601f19603f3d011682016040523d82523d6000602084013e610de3565b606091505b5050905080610e27576040517f08c379a0000000000000000000000000000000000000000000000000000000008152600401610e1e90613b89565b60405180910390fd5b5050565b610e4683838360405180602001604052806000815250611341565b505050565b6000610e55610a65565b8210610e96576040517f08c379a0000000000000000000000000000000000000000000000000000000008152600401610e8d90613bc9565b60405180910390fd5b60088281548110610ed0577f4e487b7100000000000000000000000000000000000000000000000000000000600052603260045260246000fd5b90600052602060002001549050919050565b610eea6117b2565b73ffffffffffffffffffffffffffffffffffffffff16610f0861126f565b73ffffffffffffffffffffffffffffffffffffffff1614610f5e576040517f08c379a0000000000000000000000000000000000000000000000000000000008152600401610f5590613b09565b60405180910390fd5b80600c9080519060200190610f749291906129dc565b5050565b6000806002600084815260200190815260200160002060009054906101000a900473ffffffffffffffffffffffffffffffffffffffff169050600073ffffffffffffffffffffffffffffffffffffffff168173ffffffffffffffffffffffffffffffffffffffff161415611021576040517f08c379a000000000000000000000000000000000000000000000000000000000815260040161101890613a49565b60405180910390fd5b80915050919050565b60008073ffffffffffffffffffffffffffffffffffffffff168273ffffffffffffffffffffffffffffffffffffffff16141561109b576040517f08c379a000000000000000000000000000000000000000000000000000000000815260040161109290613a29565b60405180910390fd5b600360008373ffffffffffffffffffffffffffffffffffffffff1673ffffffffffffffffffffffffffffffffffffffff168152602001908152602001600020549050919050565b6110ea6117b2565b73ffffffffffffffffffffffffffffffffffffffff1661110861126f565b73ffffffffffffffffffffffffffffffffffffffff161461115e576040517f08c379a000000000000000000000000000000000000000000000000000000000815260040161115590613b09565b60405180910390fd5b6111686000611c0c565b565b606060006111778361102a565b905060008167ffffffffffffffff8111156111bb577f4e487b7100000000000000000000000000000000000000000000000000000000600052604160045260246000fd5b6040519080825280602002602001820160405280156111e95781602001602082028036833780820191505090505b50905060005b82811015611259576112018582610ad2565b82828151811061123a577f4e487b7100000000000000000000000000000000000000000000000000000000600052603260045260246000fd5b602002602001018181525050808061125190613f19565b9150506111ef565b508092505050919050565b662386f26fc1000081565b6000600a60009054906101000a900473ffffffffffffffffffffffffffffffffffffffff16905090565b6060600180546112a890613ee7565b80601f01602080910402602001604051908101604052809291908181526020018280546112d490613ee7565b80156113215780601f106112f657610100808354040283529160200191611321565b820191906000526020600020905b81548152906001019060200180831161130457829003601f168201915b5050505050905090565b61133d6113366117b2565b8383611cd2565b5050565b61135261134c6117b2565b836118bc565b611391576040517f08c379a000000000000000000000000000000000000000000000000000000000815260040161138890613ba9565b60405180910390fd5b61139d84848484611e3f565b50505050565b60606113ae82611746565b6113ed576040517f08c379a00000000000000000000000000000000000000000000000000000000081526004016113e490613b49565b60405180910390fd5b60006113f7611e9b565b905060008151116114175760405180602001604052806000815250611442565b8061142184611f2d565b6040516020016114329291906137ea565b6040516020818303038152906040525b915050919050565b600c805461145790613ee7565b80601f016020809104026020016040519081016040528092919081815260200182805461148390613ee7565b80156114d05780601f106114a5576101008083540402835291602001916114d0565b820191906000526020600020905b8154815290600101906020018083116114b357829003601f168201915b505050505081565b6000600560008473ffffffffffffffffffffffffffffffffffffffff1673ffffffffffffffffffffffffffffffffffffffff16815260200190815260200160002060008373ffffffffffffffffffffffffffffffffffffffff1673ffffffffffffffffffffffffffffffffffffffff16815260200190815260200160002060009054906101000a900460ff16905092915050565b6115746117b2565b73ffffffffffffffffffffffffffffffffffffffff1661159261126f565b73ffffffffffffffffffffffffffffffffffffffff16146115e8576040517f08c379a00000000000000000000000000000000000000000000000000000000081526004016115df90613b09565b60405180910390fd5b600073ffffffffffffffffffffffffffffffffffffffff168173ffffffffffffffffffffffffffffffffffffffff161415611658576040517f08c379a000000000000000000000000000000000000000000000000000000000815260040161164f90613949565b60405180910390fd5b61166181611c0c565b50565b60007f80ac58cd000000000000000000000000000000000000000000000000000000007bffffffffffffffffffffffffffffffffffffffffffffffffffffffff1916827bffffffffffffffffffffffffffffffffffffffffffffffffffffffff1916148061172f57507f5b5e139f000000000000000000000000000000000000000000000000000000007bffffffffffffffffffffffffffffffffffffffffffffffffffffffff1916827bffffffffffffffffffffffffffffffffffffffffffffffffffffffff1916145b8061173f575061173e826120da565b5b9050919050565b60008073ffffffffffffffffffffffffffffffffffffffff166002600084815260200190815260200160002060009054906101000a900473ffffffffffffffffffffffffffffffffffffffff1673ffffffffffffffffffffffffffffffffffffffff1614159050919050565b600033905090565b816004600083815260200190815260200160002060006101000a81548173ffffffffffffffffffffffffffffffffffffffff021916908373ffffffffffffffffffffffffffffffffffffffff160217905550808273ffffffffffffffffffffffffffffffffffffffff1661182d83610f78565b73ffffffffffffffffffffffffffffffffffffffff167f8c5be1e5ebec7d5bd14f71427d1e84f3dd0314c0f7b2291e5b200ac8c7c3b92560405160405180910390a45050565b600081600001549050919050565b6000818361188f9190613d1c565b905092915050565b60006118a3600b611873565b90506118af3382612144565b6118b9600b612162565b50565b60006118c782611746565b611906576040517f08c379a00000000000000000000000000000000000000000000000000000000081526004016118fd906139e9565b60405180910390fd5b600061191183610f78565b90508073ffffffffffffffffffffffffffffffffffffffff168473ffffffffffffffffffffffffffffffffffffffff16148061198057508373ffffffffffffffffffffffffffffffffffffffff16611968846107b8565b73ffffffffffffffffffffffffffffffffffffffff16145b80611991575061199081856114d8565b5b91505092915050565b8273ffffffffffffffffffffffffffffffffffffffff166119ba82610f78565b73ffffffffffffffffffffffffffffffffffffffff1614611a10576040517f08c379a0000000000000000000000000000000000000000000000000000000008152600401611a0790613b29565b60405180910390fd5b600073ffffffffffffffffffffffffffffffffffffffff168273ffffffffffffffffffffffffffffffffffffffff161415611a80576040517f08c379a0000000000000000000000000000000000000000000000000000000008152600401611a7790613989565b60405180910390fd5b611a8b838383612178565b611a966000826117ba565b6001600360008573ffffffffffffffffffffffffffffffffffffffff1673ffffffffffffffffffffffffffffffffffffffff1681526020019081526020016000206000828254611ae69190613dfd565b925050819055506001600360008473ffffffffffffffffffffffffffffffffffffffff1673ffffffffffffffffffffffffffffffffffffffff1681526020019081526020016000206000828254611b3d9190613d1c565b92505081905550816002600083815260200190815260200160002060006101000a81548173ffffffffffffffffffffffffffffffffffffffff021916908373ffffffffffffffffffffffffffffffffffffffff160217905550808273ffffffffffffffffffffffffffffffffffffffff168473ffffffffffffffffffffffffffffffffffffffff167fddf252ad1be2c89b69c2b068fc378daa952ba7f163c4a11628f55a4df523b3ef60405160405180910390a4505050565b60008183611c049190613da3565b905092915050565b6000600a60009054906101000a900473ffffffffffffffffffffffffffffffffffffffff16905081600a60006101000a81548173ffffffffffffffffffffffffffffffffffffffff021916908373ffffffffffffffffffffffffffffffffffffffff1602179055508173ffffffffffffffffffffffffffffffffffffffff168173ffffffffffffffffffffffffffffffffffffffff167f8be0079c531659141344cd1fd0a4f28419497f9722a3daafe3b4186f6b6457e060405160405180910390a35050565b8173ffffffffffffffffffffffffffffffffffffffff168373ffffffffffffffffffffffffffffffffffffffff161415611d41576040517f08c379a0000000000000000000000000000000000000000000000000000000008152600401611d38906139a9565b60405180910390fd5b80600560008573ffffffffffffffffffffffffffffffffffffffff1673ffffffffffffffffffffffffffffffffffffffff16815260200190815260200160002060008473ffffffffffffffffffffffffffffffffffffffff1673ffffffffffffffffffffffffffffffffffffffff16815260200190815260200160002060006101000a81548160ff0219169083151502179055508173ffffffffffffffffffffffffffffffffffffffff168373ffffffffffffffffffffffffffffffffffffffff167f17307eab39ab6107e8899845ad3d59bd9653f200f220920489ca2b5937696c3183604051611e3291906138ac565b60405180910390a3505050565b611e4a84848461199a565b611e568484848461228c565b611e95576040517f08c379a0000000000000000000000000000000000000000000000000000000008152600401611e8c90613929565b60405180910390fd5b50505050565b6060600c8054611eaa90613ee7565b80601f0160208091040260200160405190810160405280929190818152602001828054611ed690613ee7565b8015611f235780601f10611ef857610100808354040283529160200191611f23565b820191906000526020600020905b815481529060010190602001808311611f0657829003601f168201915b5050505050905090565b60606000821415611f75576040518060400160405280600181526020017f300000000000000000000000000000000000000000000000000000000000000081525090506120d5565b600082905060005b60008214611fa7578080611f9090613f19565b915050600a82611fa09190613d72565b9150611f7d565b60008167ffffffffffffffff811115611fe9577f4e487b7100000000000000000000000000000000000000000000000000000000600052604160045260246000fd5b6040519080825280601f01601f19166020018201604052801561201b5781602001600182028036833780820191505090505b5090505b600085146120ce576001826120349190613dfd565b9150600a856120439190613f62565b603061204f9190613d1c565b60f81b81838151811061208b577f4e487b7100000000000000000000000000000000000000000000000000000000600052603260045260246000fd5b60200101907effffffffffffffffffffffffffffffffffffffffffffffffffffffffffffff1916908160001a905350600a856120c79190613d72565b945061201f565b8093505050505b919050565b60007f01ffc9a7000000000000000000000000000000000000000000000000000000007bffffffffffffffffffffffffffffffffffffffffffffffffffffffff1916827bffffffffffffffffffffffffffffffffffffffffffffffffffffffff1916149050919050565b61215e828260405180602001604052806000815250612423565b5050565b6001816000016000828254019250508190555050565b61218383838361247e565b600073ffffffffffffffffffffffffffffffffffffffff168373ffffffffffffffffffffffffffffffffffffffff1614156121c6576121c181612483565b612205565b8173ffffffffffffffffffffffffffffffffffffffff168373ffffffffffffffffffffffffffffffffffffffff16146122045761220383826124cc565b5b5b600073ffffffffffffffffffffffffffffffffffffffff168273ffffffffffffffffffffffffffffffffffffffff1614156122485761224381612639565b612287565b8273ffffffffffffffffffffffffffffffffffffffff168273ffffffffffffffffffffffffffffffffffffffff161461228657612285828261277c565b5b5b505050565b60006122ad8473ffffffffffffffffffffffffffffffffffffffff166127fb565b15612416578373ffffffffffffffffffffffffffffffffffffffff1663150b7a026122d66117b2565b8786866040518563ffffffff1660e01b81526004016122f8949392919061383e565b602060405180830381600087803b15801561231257600080fd5b505af192505050801561234357506040513d601f19601f820116820180604052508101906123409190612d88565b60015b6123c6573d8060008114612373576040519150601f19603f3d011682016040523d82523d6000602084013e612378565b606091505b506000815114156123be576040517f08c379a00000000000000000000000000000000000000000000000000000000081526004016123b590613929565b60405180910390fd5b805181602001fd5b63150b7a0260e01b7bffffffffffffffffffffffffffffffffffffffffffffffffffffffff1916817bffffffffffffffffffffffffffffffffffffffffffffffffffffffff19161491505061241b565b600190505b949350505050565b61242d838361280e565b61243a600084848461228c565b612479576040517f08c379a000000000000000000000000000000000000000000000000000000000815260040161247090613929565b60405180910390fd5b505050565b505050565b6008805490506009600083815260200190815260200160002081905550600881908060018154018082558091505060019003906000526020600020016000909190919091505550565b600060016124d98461102a565b6124e39190613dfd565b90506000600760008481526020019081526020016000205490508181146125c8576000600660008673ffffffffffffffffffffffffffffffffffffffff1673ffffffffffffffffffffffffffffffffffffffff168152602001908152602001600020600084815260200190815260200160002054905080600660008773ffffffffffffffffffffffffffffffffffffffff1673ffffffffffffffffffffffffffffffffffffffff168152602001908152602001600020600084815260200190815260200160002081905550816007600083815260200190815260200160002081905550505b6007600084815260200190815260200160002060009055600660008573ffffffffffffffffffffffffffffffffffffffff1673ffffffffffffffffffffffffffffffffffffffff16815260200190815260200160002060008381526020019081526020016000206000905550505050565b6000600160088054905061264d9190613dfd565b90506000600960008481526020019081526020016000205490506000600883815481106126a3577f4e487b7100000000000000000000000000000000000000000000000000000000600052603260045260246000fd5b9060005260206000200154905080600883815481106126eb577f4e487b7100000000000000000000000000000000000000000000000000000000600052603260045260246000fd5b906000526020600020018190555081600960008381526020019081526020016000208190555060096000858152602001908152602001600020600090556008805480612760577f4e487b7100000000000000000000000000000000000000000000000000000000600052603160045260246000fd5b6001900381819060005260206000200160009055905550505050565b60006127878361102a565b905081600660008573ffffffffffffffffffffffffffffffffffffffff1673ffffffffffffffffffffffffffffffffffffffff168152602001908152602001600020600083815260200190815260200160002081905550806007600084815260200190815260200160002081905550505050565b600080823b905060008111915050919050565b600073ffffffffffffffffffffffffffffffffffffffff168273ffffffffffffffffffffffffffffffffffffffff16141561287e576040517f08c379a000000000000000000000000000000000000000000000000000000000815260040161287590613a89565b60405180910390fd5b61288781611746565b156128c7576040517f08c379a00000000000000000000000000000000000000000000000000000000081526004016128be90613969565b60405180910390fd5b6128d360008383612178565b6001600360008473ffffffffffffffffffffffffffffffffffffffff1673ffffffffffffffffffffffffffffffffffffffff16815260200190815260200160002060008282546129239190613d1c565b92505081905550816002600083815260200190815260200160002060006101000a81548173ffffffffffffffffffffffffffffffffffffffff021916908373ffffffffffffffffffffffffffffffffffffffff160217905550808273ffffffffffffffffffffffffffffffffffffffff16600073ffffffffffffffffffffffffffffffffffffffff167fddf252ad1be2c89b69c2b068fc378daa952ba7f163c4a11628f55a4df523b3ef60405160405180910390a45050565b8280546129e890613ee7565b90600052602060002090601f016020900481019282612a0a5760008555612a51565b82601f10612a2357805160ff1916838001178555612a51565b82800160010185558215612a51579182015b82811115612a50578251825591602001919060010190612a35565b5b509050612a5e9190612a62565b5090565b5b80821115612a7b576000816000905550600101612a63565b5090565b6000612a92612a8d84613c35565b613c04565b905082815260208101848484011115612aaa57600080fd5b612ab5848285613ea5565b509392505050565b6000612ad0612acb84613c65565b613c04565b905082815260208101848484011115612ae857600080fd5b612af3848285613ea5565b509392505050565b600081359050612b0a81614060565b92915050565b600081359050612b1f81614077565b92915050565b600081359050612b348161408e565b92915050565b600081519050612b498161408e565b92915050565b600082601f830112612b6057600080fd5b8135612b70848260208601612a7f565b91505092915050565b600082601f830112612b8a57600080fd5b8135612b9a848260208601612abd565b91505092915050565b600081359050612bb2816140a5565b92915050565b600060208284031215612bca57600080fd5b6000612bd884828501612afb565b91505092915050565b60008060408385031215612bf457600080fd5b6000612c0285828601612afb565b9250506020612c1385828601612afb565b9150509250929050565b600080600060608486031215612c3257600080fd5b6000612c4086828701612afb565b9350506020612c5186828701612afb565b9250506040612c6286828701612ba3565b9150509250925092565b60008060008060808587031215612c8257600080fd5b6000612c9087828801612afb565b9450506020612ca187828801612afb565b9350506040612cb287828801612ba3565b925050606085013567ffffffffffffffff811115612ccf57600080fd5b612cdb87828801612b4f565b91505092959194509250565b60008060408385031215612cfa57600080fd5b6000612d0885828601612afb565b9250506020612d1985828601612b10565b9150509250929050565b60008060408385031215612d3657600080fd5b6000612d4485828601612afb565b9250506020612d5585828601612ba3565b9150509250929050565b600060208284031215612d7157600080fd5b6000612d7f84828501612b25565b91505092915050565b600060208284031215612d9a57600080fd5b6000612da884828501612b3a565b91505092915050565b600060208284031215612dc357600080fd5b600082013567ffffffffffffffff811115612ddd57600080fd5b612de984828501612b79565b91505092915050565b600060208284031215612e0457600080fd5b6000612e1284828501612ba3565b91505092915050565b6000612e2783836137cc565b60208301905092915050565b612e3c81613e31565b82525050565b6000612e4d82613ca5565b612e578185613cd3565b9350612e6283613c95565b8060005b83811015612e93578151612e7a8882612e1b565b9750612e8583613cc6565b925050600181019050612e66565b5085935050505092915050565b612ea981613e43565b82525050565b6000612eba82613cb0565b612ec48185613ce4565b9350612ed4818560208601613eb4565b612edd8161404f565b840191505092915050565b6000612ef382613cbb565b612efd8185613d00565b9350612f0d818560208601613eb4565b612f168161404f565b840191505092915050565b6000612f2c82613cbb565b612f368185613d11565b9350612f46818560208601613eb4565b80840191505092915050565b6000612f5f601083613d00565b91507f4e6f7420656e6f756768204e46547321000000000000000000000000000000006000830152602082019050919050565b6000612f9f602b83613d00565b91507f455243373231456e756d657261626c653a206f776e657220696e646578206f7560008301527f74206f6620626f756e64730000000000000000000000000000000000000000006020830152604082019050919050565b6000613005603283613d00565b91507f4552433732313a207472616e7366657220746f206e6f6e20455243373231526560008301527f63656976657220696d706c656d656e74657200000000000000000000000000006020830152604082019050919050565b600061306b602683613d00565b91507f4f776e61626c653a206e6577206f776e657220697320746865207a65726f206160008301527f64647265737300000000000000000000000000000000000000000000000000006020830152604082019050919050565b60006130d1601c83613d00565b91507f4552433732313a20746f6b656e20616c7265616479206d696e746564000000006000830152602082019050919050565b6000613111602483613d00565b91507f4552433732313a207472616e7366657220746f20746865207a65726f2061646460008301527f72657373000000000000000000000000000000000000000000000000000000006020830152604082019050919050565b6000613177601983613d00565b91507f4552433732313a20617070726f766520746f2063616c6c6572000000000000006000830152602082019050919050565b60006131b7602283613d00565b91507f4e6f7420656e6f75676820657468657220746f207075726368617365204e465460008301527f732e0000000000000000000000000000000000000000000000000000000000006020830152604082019050919050565b600061321d602c83613d00565b91507f4552433732313a206f70657261746f7220717565727920666f72206e6f6e657860008301527f697374656e7420746f6b656e00000000000000000000000000000000000000006020830152604082019050919050565b6000613283603883613d00565b91507f4552433732313a20617070726f76652063616c6c6572206973206e6f74206f7760008301527f6e6572206e6f7220617070726f76656420666f7220616c6c00000000000000006020830152604082019050919050565b60006132e9602a83613d00565b91507f4552433732313a2062616c616e636520717565727920666f7220746865207a6560008301527f726f2061646472657373000000000000000000000000000000000000000000006020830152604082019050919050565b600061334f602983613d00565b91507f4552433732313a206f776e657220717565727920666f72206e6f6e657869737460008301527f656e7420746f6b656e00000000000000000000000000000000000000000000006020830152604082019050919050565b60006133b5600f83613d00565b91507f4e6f7420656e6f756768204e46547300000000000000000000000000000000006000830152602082019050919050565b60006133f5602083613d00565b91507f4552433732313a206d696e7420746f20746865207a65726f20616464726573736000830152602082019050919050565b6000613435602383613d00565b91507f63616e2774206d696e7420737065636966696564206e756d626572206f66204e60008301527f46547300000000000000000000000000000000000000000000000000000000006020830152604082019050919050565b600061349b601983613d00565b91507f4e6f206574686572206c65667420746f207769746864726177000000000000006000830152602082019050919050565b60006134db602c83613d00565b91507f4552433732313a20617070726f76656420717565727920666f72206e6f6e657860008301527f697374656e7420746f6b656e00000000000000000000000000000000000000006020830152604082019050919050565b6000613541602083613d00565b91507f4f776e61626c653a2063616c6c6572206973206e6f7420746865206f776e65726000830152602082019050919050565b6000613581602983613d00565b91507f4552433732313a207472616e73666572206f6620746f6b656e2074686174206960008301527f73206e6f74206f776e00000000000000000000000000000000000000000000006020830152604082019050919050565b60006135e7602f83613d00565b91507f4552433732314d657461646174613a2055524920717565727920666f72206e6f60008301527f6e6578697374656e7420746f6b656e00000000000000000000000000000000006020830152604082019050919050565b600061364d602183613d00565b91507f4552433732313a20617070726f76616c20746f2063757272656e74206f776e6560008301527f72000000000000000000000000000000000000000000000000000000000000006020830152604082019050919050565b60006136b3600083613cf5565b9150600082019050919050565b60006136cd601083613d00565b91507f5472616e73666572206661696c65642e000000000000000000000000000000006000830152602082019050919050565b600061370d603183613d00565b91507f4552433732313a207472616e736665722063616c6c6572206973206e6f74206f60008301527f776e6572206e6f7220617070726f7665640000000000000000000000000000006020830152604082019050919050565b6000613773602c83613d00565b91507f455243373231456e756d657261626c653a20676c6f62616c20696e646578206f60008301527f7574206f6620626f756e647300000000000000000000000000000000000000006020830152604082019050919050565b6137d581613e9b565b82525050565b6137e481613e9b565b82525050565b60006137f68285612f21565b91506138028284612f21565b91508190509392505050565b6000613819826136a6565b9150819050919050565b60006020820190506138386000830184612e33565b92915050565b60006080820190506138536000830187612e33565b6138606020830186612e33565b61386d60408301856137db565b818103606083015261387f8184612eaf565b905095945050505050565b600060208201905081810360008301526138a48184612e42565b905092915050565b60006020820190506138c16000830184612ea0565b92915050565b600060208201905081810360008301526138e18184612ee8565b905092915050565b6000602082019050818103600083015261390281612f52565b9050919050565b6000602082019050818103600083015261392281612f92565b9050919050565b6000602082019050818103600083015261394281612ff8565b9050919050565b600060208201905081810360008301526139628161305e565b9050919050565b60006020820190508181036000830152613982816130c4565b9050919050565b600060208201905081810360008301526139a281613104565b9050919050565b600060208201905081810360008301526139c28161316a565b9050919050565b600060208201905081810360008301526139e2816131aa565b9050919050565b60006020820190508181036000830152613a0281613210565b9050919050565b60006020820190508181036000830152613a2281613276565b9050919050565b60006020820190508181036000830152613a42816132dc565b9050919050565b60006020820190508181036000830152613a6281613342565b9050919050565b60006020820190508181036000830152613a82816133a8565b9050919050565b60006020820190508181036000830152613aa2816133e8565b9050919050565b60006020820190508181036000830152613ac281613428565b9050919050565b60006020820190508181036000830152613ae28161348e565b9050919050565b60006020820190508181036000830152613b02816134ce565b9050919050565b60006020820190508181036000830152613b2281613534565b9050919050565b60006020820190508181036000830152613b4281613574565b9050919050565b60006020820190508181036000830152613b62816135da565b9050919050565b60006020820190508181036000830152613b8281613640565b9050919050565b60006020820190508181036000830152613ba2816136c0565b9050919050565b60006020820190508181036000830152613bc281613700565b9050919050565b60006020820190508181036000830152613be281613766565b9050919050565b6000602082019050613bfe60008301846137db565b92915050565b6000604051905081810181811067ffffffffffffffff82111715613c2b57613c2a614020565b5b8060405250919050565b600067ffffffffffffffff821115613c5057613c4f614020565b5b601f19601f8301169050602081019050919050565b600067ffffffffffffffff821115613c8057613c7f614020565b5b601f19601f8301169050602081019050919050565b6000819050602082019050919050565b600081519050919050565b600081519050919050565b600081519050919050565b6000602082019050919050565b600082825260208201905092915050565b600082825260208201905092915050565b600081905092915050565b600082825260208201905092915050565b600081905092915050565b6000613d2782613e9b565b9150613d3283613e9b565b9250827fffffffffffffffffffffffffffffffffffffffffffffffffffffffffffffffff03821115613d6757613d66613f93565b5b828201905092915050565b6000613d7d82613e9b565b9150613d8883613e9b565b925082613d9857613d97613fc2565b5b828204905092915050565b6000613dae82613e9b565b9150613db983613e9b565b9250817fffffffffffffffffffffffffffffffffffffffffffffffffffffffffffffffff0483118215151615613df257613df1613f93565b5b828202905092915050565b6000613e0882613e9b565b9150613e1383613e9b565b925082821015613e2657613e25613f93565b5b828203905092915050565b6000613e3c82613e7b565b9050919050565b60008115159050919050565b60007fffffffff0000000000000000000000000000000000000000000000000000000082169050919050565b600073ffffffffffffffffffffffffffffffffffffffff82169050919050565b6000819050919050565b82818337600083830152505050565b60005b83811015613ed2578082015181840152602081019050613eb7565b83811115613ee1576000848401525b50505050565b60006002820490506001821680613eff57607f821691505b60208210811415613f1357613f12613ff1565b5b50919050565b6000613f2482613e9b565b91507fffffffffffffffffffffffffffffffffffffffffffffffffffffffffffffffff821415613f5757613f56613f93565b5b600182019050919050565b6000613f6d82613e9b565b9150613f7883613e9b565b925082613f8857613f87613fc2565b5b828206905092915050565b7f4e487b7100000000000000000000000000000000000000000000000000000000600052601160045260246000fd5b7f4e487b7100000000000000000000000000000000000000000000000000000000600052601260045260246000fd5b7f4e487b7100000000000000000000000000000000000000000000000000000000600052602260045260246000fd5b7f4e487b7100000000000000000000000000000000000000000000000000000000600052604160045260246000fd5b6000601f19601f8301169050919050565b61406981613e31565b811461407457600080fd5b50565b61408081613e43565b811461408b57600080fd5b50565b61409781613e4f565b81146140a257600080fd5b50565b6140ae81613e9b565b81146140b957600080fd5b5056fea264697066735822122098c98639a3551d32a594bbbfb7cba47cc54ade39131880010275eea369cdb30464736f6c63430008000033",
  "linkReferences": {},
  "deployedLinkReferences": {}
}