{
  "_format": "hh-sol-artifact-1",
  "contractName": "Renderer",
  "sourceName": "contracts/Render.sol",
  "abi": [
    {
      "inputs": [],
      "stateMutability": "nonpayable",
      "type": "constructor"
    },
    {
      "anonymous": false,
      "inputs": [
        {
          "indexed": true,
          "internalType": "address",
          "name": "previousOwner",
          "type": "address"
        },
        {
          "indexed": true,
          "internalType": "address",
          "name": "newOwner",
          "type": "address"
        }
      ],
      "name": "OwnershipTransferred",
      "type": "event"
    },
    {
      "inputs": [
        {
          "internalType": "bool",
          "name": "isPeasant",
          "type": "bool"
        },
        {
          "internalType": "uint8[19]",
          "name": "traits",
          "type": "uint8[19]"
        }
      ],
      "name": "compileAttributes",
      "outputs": [
        {
          "internalType": "string",
          "name": "",
          "type": "string"
        }
      ],
      "stateMutability": "view",
      "type": "function"
    },
    {
      "inputs": [
        {
          "internalType": "bool",
          "name": "isPeasant",
          "type": "bool"
        },
        {
          "internalType": "uint8[19]",
          "name": "traits",
          "type": "uint8[19]"
        }
      ],
      "name": "drawSVG",
      "outputs": [
        {
          "internalType": "string",
          "name": "",
          "type": "string"
        }
      ],
      "stateMutability": "view",
      "type": "function"
    },
    {
      "inputs": [],
      "name": "owner",
      "outputs": [
        {
          "internalType": "address",
          "name": "",
          "type": "address"
        }
      ],
      "stateMutability": "view",
      "type": "function"
    },
    {
      "inputs": [],
      "name": "renounceOwnership",
      "outputs": [],
      "stateMutability": "nonpayable",
      "type": "function"
    },
    {
      "inputs": [
        {
          "internalType": "uint256",
          "name": "tokenId",
          "type": "uint256"
        },
        {
          "internalType": "bool",
          "name": "isPeasant",
          "type": "bool"
        },
        {
          "internalType": "uint8[19]",
          "name": "traitarray",
          "type": "uint8[19]"
        }
      ],
      "name": "tokenMetadata",
      "outputs": [
        {
          "internalType": "string",
          "name": "",
          "type": "string"
        }
      ],
      "stateMutability": "view",
      "type": "function"
    },
    {
      "inputs": [
        {
          "internalType": "uint8",
          "name": "",
          "type": "uint8"
        },
        {
          "internalType": "uint8",
          "name": "",
          "type": "uint8"
        }
      ],
      "name": "traitData",
      "outputs": [
        {
          "internalType": "string",
          "name": "name",
          "type": "string"
        },
        {
          "internalType": "string",
          "name": "image",
          "type": "string"
        }
      ],
      "stateMutability": "view",
      "type": "function"
    },
    {
      "inputs": [
        {
          "internalType": "address",
          "name": "newOwner",
          "type": "address"
        }
      ],
      "name": "transferOwnership",
      "outputs": [],
      "stateMutability": "nonpayable",
      "type": "function"
    },
    {
      "inputs": [
        {
          "internalType": "uint8",
          "name": "category",
          "type": "uint8"
        },
        {
          "components": [
            {
              "internalType": "string",
              "name": "name",
              "type": "string"
            },
            {
              "internalType": "string",
              "name": "image",
              "type": "string"
            }
          ],
          "internalType": "struct Renderer.Trait[]",
          "name": "traits",
          "type": "tuple[]"
        },
        {
          "internalType": "uint8",
          "name": "index",
          "type": "uint8"
        },
        {
          "internalType": "uint8",
          "name": "length",
          "type": "uint8"
        }
      ],
      "name": "uploadTraits",
      "outputs": [],
      "stateMutability": "nonpayable",
      "type": "function"
    }
  ],
  "bytecode": "0x6102e060405260006080908152600160a0819052600260c052600360e05260046101005260056101205260066101405260076101605260086101805260096101a052600a6101c052600b6101e052600c61020052600d61022052600e61024052600f6102605260106102805260116102a05260126102c05262000084916013620000f4565b503480156200009257600080fd5b506200009e33620000a4565b620001a5565b600080546001600160a01b038381166001600160a01b0319831681178455604051919092169283917f8be0079c531659141344cd1fd0a4f28419497f9722a3daafe3b4186f6b6457e09190a35050565b6001830191839082156200017c5791602002820160005b838211156200014b57835183826101000a81548160ff021916908360ff16021790555092602001926001016020816000010492830192600103026200010b565b80156200017a5782816101000a81549060ff02191690556001016020816000010492830192600103026200014b565b505b506200018a9291506200018e565b5090565b5b808211156200018a57600081556001016200018f565b61289f80620001b56000396000f3fe608060405234801561001057600080fd5b50600436106100885760003560e01c8063998bfcbc1161005b578063998bfcbc146100ec5780639bf2ee35146100ff578063dc97c98a14610120578063f2fde38b1461013357600080fd5b806306209d591461008d57806350db7372146100b6578063715018a6146100cb5780638da5cb5b146100d3575b600080fd5b6100a061009b366004611c5c565b610146565b6040516100ad91906124ba565b60405180910390f35b6100c96100c4366004611cad565b610269565b005b6100c96103f6565b6000546001600160a01b03166040516100ad91906124ac565b6100a06100fa366004611c1e565b61042c565b61011261010d366004611d31565b6108e7565b6040516100ad9291906124cb565b6100a061012e366004611c1e565b610a1e565b6100c9610141366004611bfd565b611310565b6060600061017d8484601380602002604051908101604052809291908260136020028082843760009201919091525061042c915050565b90506000846101aa57604051806040016040528060068152602001654b696e67202360d01b8152506101cd565b6040518060400160405280600981526020016850656173616e74202360b81b8152505b6101d68761136c565b6101df84611472565b61021288886013806020026040519081016040528092919082601360200280828437600092019190915250610a1e915050565b6040516020016102259493929190612240565b604051602081830303815290604052905061023f81611472565b60405160200161024f9190612497565b604051602081830303815290604052925050509392505050565b6000546001600160a01b0316331461029c5760405162461bcd60e51b81526004016102939061253a565b60405180910390fd5b815b8160ff168160ff16116103ee57604051806040016040528086868460ff168181106102cb576102cb6127d2565b90506020028101906102dd91906125c9565b6102e79080612574565b8080601f016020809104026020016040519081016040528093929190818152602001838380828437600092019190915250505090825250602001868660ff8516818110610336576103366127d2565b905060200281019061034891906125c9565b610356906020810190612574565b8080601f016020809104026020016040519081016040528093929190818152602001838380828437600092018290525093909452505060ff808a16825260026020908152604080842092871684529181529120835180519193506103be928492910190611a28565b5060208281015180516103d79260018501920190611a28565b5090505080806103e690612763565b91505061029e565b505050505050565b6000546001600160a01b031633146104205760405162461bcd60e51b81526004016102939061253a565b61042a60006115da565b565b606060008361043c57600961043f565b60005b9050606084156107bb576105de6002600061045a8582612642565b60ff1660ff16815260200190815260200160002060008685600061047e9190612642565b60ff1660138110610491576104916127d2565b602002015160ff1660ff1681526020019081526020016000206040518060400160405290816000820180546104c5906126ee565b80601f01602080910402602001604051908101604052809291908181526020018280546104f1906126ee565b801561053e5780601f106105135761010080835404028352916020019161053e565b820191906000526020600020905b81548152906001019060200180831161052157829003601f168201915b50505050508152602001600182018054610557906126ee565b80601f0160208091040260200160405190810160405280929190818152602001828054610583906126ee565b80156105d05780601f106105a5576101008083540402835291602001916105d0565b820191906000526020600020905b8154815290600101906020018083116105b357829003601f168201915b50505050508152505061162a565b610614600260006105f0866001612642565b60ff1660ff16815260200190815260200160002060008786600161047e9190612642565b610649600260006106258783612642565b60ff1660ff16815260200190815260200160002060008887600261047e9190612642565b61067f6002600061065b886003612642565b60ff1660ff16815260200190815260200160002060008988600361047e9190612642565b6106b560026000610691896004612642565b60ff1660ff16815260200190815260200160002060008a89600461047e9190612642565b6106eb600260006106c78a6005612642565b60ff1660ff16815260200190815260200160002060008b8a600561047e9190612642565b610721600260006106fd8b6006612642565b60ff1660ff16815260200190815260200160002060008c8b600661047e9190612642565b610757600260006107338c6007612642565b60ff1660ff16815260200190815260200160002060008d8c600761047e9190612642565b61078d600260006107698d6008612642565b60ff1660ff16815260200190815260200160002060008e8d600861047e9190612642565b6040516020016107a599989796959493929190611e78565b60405160208183030381529060405290506108bc565b6107cc6002600061045a8582612642565b6107de600260006105f0866001612642565b6107ef600260006106258783612642565b6108016002600061065b886003612642565b61081360026000610691896004612642565b610825600260006106c78a6005612642565b610837600260006106fd8b6006612642565b610849600260006107338c6007612642565b61085b600260006107698d6008612642565b6108916002600061086d8e6009612642565b60ff1660ff16815260200190815260200160002060008f8e600961047e9190612642565b6040516020016108aa9a99989796959493929190611ef0565b60405160208183030381529060405290505b806040516020016108cd91906123b8565b604051602081830303815290604052925050505b92915050565b600260209081526000928352604080842090915290825290208054819061090d906126ee565b80601f0160208091040260200160405190810160405280929190818152602001828054610939906126ee565b80156109865780601f1061095b57610100808354040283529160200191610986565b820191906000526020600020905b81548152906001019060200180831161096957829003601f168201915b50505050509080600101805461099b906126ee565b80601f01602080910402602001604051908101604052809291908181526020018280546109c7906126ee565b8015610a145780601f106109e957610100808354040283529160200191610a14565b820191906000526020600020905b8154815290600101906020018083116109f757829003601f168201915b5050505050905082565b6060600083610a2e576009610a31565b60005b90506060808515610de05760015460008080526002602052610b209160ff16907fac33ff75c19e70fe83507db0d683fd3465c996598dc972688b7ace676c89077b9088815b602002015160ff1660ff1681526020019081526020016000206000018054610a9d906126ee565b80601f0160208091040260200160405190810160405280929190818152602001828054610ac9906126ee565b8015610b165780601f10610aeb57610100808354040283529160200191610b16565b820191906000526020600020905b815481529060010190602001808311610af957829003601f168201915b5050505050611657565b6001805460008281526002602052610b669261010090920460ff16917fe90b7bceb6e7df5418fb78d8ee546e97c83a08bbccc01a0644d599ccd2a7c2e091908a90610a76565b600154600260008181526020829052610bad9262010000900460ff16917f679795a0195a1b76cdebb7c51d74e058aee92919b8c3389af86ef24535e8a28c91908b90610a76565b600154600360008181526002602052610bf5926301000000900460ff16917f88601476d11616a71c5be67555bd1dff4b1cbf21533d2669b768b61518cfe1c391908c90610a76565b600154600460008181526002602052610c3e92640100000000900460ff16917fee60d0579bcffd98e668647d59fec1ff86a7fb340ce572e844f234ae73a6918f91908d90610a76565b600154600560008181526002602052610c889265010000000000900460ff16917fb98b78633099fa36ed8b8680c4f8092689e1e04080eb9cbb077ca38a14d7e38491908e90610a76565b604051602001610c9d96959493929190611fb8565b60408051601f19818403018152919052600154600660008181526002602052929450610cfb92660100000000000090920460ff16917f59dd4b18488d12f51eda69757a0ed42a2010c14b564330cc74a06895e60c077b918990610a76565b600154600760008181526002602052610d4792670100000000000000900460ff16917facd8ef244210bb6898e73c48bf820ed8ecc857a3bab8d79c10e4fa92b1e9ca6591908a90610a76565b600154600860008181526002602052610d949268010000000000000000900460ff16917f3a5ea591190eeb3f8fcdced843c78df04ec0dfd42f5510375207515664fa0a7591908b90610a76565b604051602001610da693929190611f75565b60405160208183030381529060405291508181604051602001610dca929190611e5b565b6040516020818303038152906040529150611298565b610e5e6001610df0856000612642565b60ff1660138110610e0357610e036127d2565b602081049091015460ff601f9092166101000a90041660026000610e278782612642565b60ff1660ff168152602001908152602001600020600088876000610e4b9190612642565b60ff1660138110610a7657610a766127d2565b610ec96001610e6d8682612642565b60ff1660138110610e8057610e806127d2565b602081049091015460ff601f9092166101000a90041660026000610ea5886001612642565b60ff1660ff168152602001908152602001600020600089886001610e4b9190612642565b610f346001610ed9876002612642565b60ff1660138110610eec57610eec6127d2565b602081049091015460ff601f9092166101000a90041660026000610f108983612642565b60ff1660ff16815260200190815260200160002060008a896002610e4b9190612642565b610fa06001610f44886003612642565b60ff1660138110610f5757610f576127d2565b602081049091015460ff601f9092166101000a90041660026000610f7c8a6003612642565b60ff1660ff16815260200190815260200160002060008b8a6003610e4b9190612642565b61100c6001610fb0896004612642565b60ff1660138110610fc357610fc36127d2565b602081049091015460ff601f9092166101000a90041660026000610fe88b6004612642565b60ff1660ff16815260200190815260200160002060008c8b6004610e4b9190612642565b611078600161101c8a6005612642565b60ff166013811061102f5761102f6127d2565b602081049091015460ff601f9092166101000a900416600260006110548c6005612642565b60ff1660ff16815260200190815260200160002060008d8c6005610e4b9190612642565b6110e460016110888b6006612642565b60ff166013811061109b5761109b6127d2565b602081049091015460ff601f9092166101000a900416600260006110c08d6006612642565b60ff1660ff16815260200190815260200160002060008e8d6006610e4b9190612642565b6040516020016110fa979695949392919061204b565b60408051601f198184030181529190529150611178600161111c856007612642565b60ff166013811061112f5761112f6127d2565b602081049091015460ff601f9092166101000a90041660026000611154876007612642565b60ff1660ff168152602001908152602001600020600088876007610e4b9190612642565b6111e46001611188866008612642565b60ff166013811061119b5761119b6127d2565b602081049091015460ff601f9092166101000a900416600260006111c0886008612642565b60ff1660ff168152602001908152602001600020600089886008610e4b9190612642565b61125060016111f4876009612642565b60ff1660138110611207576112076127d2565b602081049091015460ff601f9092166101000a9004166002600061122c896009612642565b60ff1660ff16815260200190815260200160002060008a896009610e4b9190612642565b60405160200161126293929190611f75565b60405160208183030381529060405290508181604051602001611286929190611e5b565b60405160208183030381529060405291505b81866112c257604051806040016040528060068152602001651125b4b7339160d11b8152506112e5565b60405180604001604052806009815260200168112832b0b9b0b73a1160b91b8152505b6040516020016112f6929190612209565b604051602081830303815290604052935050505092915050565b6000546001600160a01b0316331461133a5760405162461bcd60e51b81526004016102939061253a565b6001600160a01b0381166113605760405162461bcd60e51b8152600401610293906124f0565b611369816115da565b50565b6060816113905750506040805180820190915260018152600360fc1b602082015290565b8160005b81156113ba57806113a481612748565b91506113b39050600a83612663565b9150611394565b60008167ffffffffffffffff8111156113d5576113d56127e8565b6040519080825280601f01601f1916602001820160405280156113ff576020820181803683370190505b5090505b841561146a57611414600183612696565b9150611421600a8661277c565b61142c90603061262a565b60f81b818381518110611441576114416127d2565b60200101906001600160f81b031916908160001a905350611463600a86612663565b9450611403565b949350505050565b606081516000141561149257505060408051602081019091526000815290565b600060405180606001604052806040815260200161282a60409139905060006003845160026114c1919061262a565b6114cb9190612663565b6114d6906004612677565b905060006114e582602061262a565b67ffffffffffffffff8111156114fd576114fd6127e8565b6040519080825280601f01601f191660200182016040528015611527576020820181803683370190505b509050818152600183018586518101602084015b818310156115955760039283018051603f601282901c811687015160f890811b8552600c83901c8216880151811b6001860152600683901c8216880151811b60028601529116860151901b9382019390935260040161153b565b6003895106600181146115af57600281146115c0576115cc565b613d3d60f01b6001198301526115cc565b603d60f81b6000198301525b509398975050505050505050565b600080546001600160a01b038381166001600160a01b0319831681178455604051919092169283917f8be0079c531659141344cd1fd0a4f28419497f9722a3daafe3b4186f6b6457e09190a35050565b606081602001516040516020016116419190612143565b6040516020818303038152906040529050919050565b6060611661611aac565b6040805180820182526009815268109858dadc9bdd5b9960ba1b6020808301919091529083528151808301835260058152644672616d6560d81b81830152838201528151808301835260048082526329b5b4b760e11b8284015284840191909152825180840184526007815266436c6f7468657360c81b81840152606085015282518084018452818152634974656d60e01b8184015260808501528251808401845260088152672330b1b2a430b4b960c11b8184015260a085015282518084019093528252634579657360e01b908201528160066020020181905250604051806040016040528060038152602001621a185d60ea1b8152508160076013811061176c5761176c6127d2565b6020020181905250604051806040016040528060038152602001621c195d60ea1b815250816008601381106117a3576117a36127d2565b60200201819052506040518060400160405280600a815260200169109858dad9dc9bdd5b9960b21b815250816009601381106117e1576117e16127d2565b6020020181905250604051806040016040528060058152602001644672616d6560d81b81525081600a6013811061181a5761181a6127d2565b60200201819052506040518060400160405280600481526020016329b5b4b760e11b81525081600b60138110611852576118526127d2565b60200201819052506040518060400160405280600581526020016421b937bbb760d91b81525081600c6013811061188b5761188b6127d2565b6020020181905250604051806040016040528060048152602001632430b4b960e11b81525081600d601381106118c3576118c36127d2565b602002018190525060405180604001604052806008815260200167436c6f7468696e6760c01b81525081600e601381106118ff576118ff6127d2565b6020020181905250604051806040016040528060048152602001634974656d60e01b81525081600f60138110611937576119376127d2565b6020020181905250604051806040016040528060048152602001634579657360e01b8152508160106013811061196f5761196f6127d2565b60200201819052506040518060400160405280600581526020016409adeeae8d60db1b815250816011601381106119a8576119a86127d2565b60200201819052506040518060400160405280600381526020016214195d60ea1b815250816012601381106119df576119df6127d2565b60200201528060ff8516601381106119f9576119f96127d2565b602002015183604051602001611a109291906120f6565b60405160208183030381529060405291505092915050565b828054611a34906126ee565b90600052602060002090601f016020900481019282611a565760008555611a9c565b82601f10611a6f57805160ff1916838001178555611a9c565b82800160010185558215611a9c579182015b82811115611a9c578251825591602001919060010190611a81565b50611aa8929150611ad4565b5090565b6040518061026001604052806013905b6060815260200190600190039081611abc5790505090565b5b80821115611aa85760008155600101611ad5565b6000611afc611af784612609565b6125ed565b90508082856020860285011115611b1557611b15600080fd5b60005b85811015611b3f57611b2a8783611bf2565b83526020928301929190910190600101611b18565b5050509392505050565b80356108e1816127fe565b60008083601f840112611b6957611b69600080fd5b50813567ffffffffffffffff811115611b8457611b84600080fd5b602083019150836020820283011115611b9f57611b9f600080fd5b9250929050565b8061026081018310156108e1576108e1600080fd5b600082601f830112611bcf57611bcf600080fd5b601361146a848285611ae9565b80356108e181612812565b80356108e18161281a565b80356108e181612820565b600060208284031215611c1257611c12600080fd5b600061146a8484611b49565b6000806102808385031215611c3557611c35600080fd5b6000611c418585611bdc565b9250506020611c5285828601611bbb565b9150509250929050565b60008060006102a08486031215611c7557611c75600080fd5b6000611c818686611be7565b9350506020611c9286828701611bdc565b9250506040611ca386828701611ba6565b9150509250925092565b600080600080600060808688031215611cc857611cc8600080fd5b6000611cd48888611bf2565b955050602086013567ffffffffffffffff811115611cf457611cf4600080fd5b611d0088828901611b54565b94509450506040611d1388828901611bf2565b9250506060611d2488828901611bf2565b9150509295509295909350565b60008060408385031215611d4757611d47600080fd5b6000611d538585611bf2565b9250506020611c5285828601611bf2565b611d6d816126ad565b82525050565b6000611d7d825190565b808452602084019350611d948185602086016126be565b601f01601f19169290920192915050565b6000611daf825190565b611dbd8185602086016126be565b9290920192915050565b600b60fa1b81525b60010190565b617d5d60f01b81525b60020190565b7f7b2274726169745f74797065223a2254797065222c2276616c7565223a00000081525b601d0190565b61227d60f01b8152611dde565b607d60f81b8152611dcf565b605b60f81b8152611dcf565b7f646174613a6170706c69636174696f6e2f6a736f6e3b6261736536342c0000008152611e08565b611e658184611da5565b9050611e718183611da5565b9392505050565b611e82818b611da5565b9050611e8e818a611da5565b9050611e9a8189611da5565b9050611ea68188611da5565b9050611eb28187611da5565b9050611ebe8186611da5565b9050611eca8185611da5565b9050611ed68184611da5565b9050611ee28183611da5565b9a9950505050505050505050565b611efa818c611da5565b9050611f06818b611da5565b9050611f12818a611da5565b9050611f1e8189611da5565b9050611f2a8188611da5565b9050611f368187611da5565b9050611f428186611da5565b9050611f4e8185611da5565b9050611f5a8184611da5565b9050611f668183611da5565b9b9a5050505050505050505050565b611f7f8185611da5565b9050611f8a81611dc7565b9050611f968184611da5565b9050611fa181611dc7565b9050611fad8183611da5565b905061146a81611dc7565b611fc28188611da5565b9050611fcd81611dc7565b9050611fd98187611da5565b9050611fe481611dc7565b9050611ff08186611da5565b9050611ffb81611dc7565b90506120078185611da5565b905061201281611dc7565b905061201e8184611da5565b905061202981611dc7565b90506120358183611da5565b905061204081611dc7565b979650505050505050565b6120558189611da5565b905061206081611dc7565b905061206c8188611da5565b905061207781611dc7565b90506120838187611da5565b905061208e81611dc7565b905061209a8186611da5565b90506120a581611dc7565b90506120b18185611da5565b90506120bc81611dc7565b90506120c88184611da5565b90506120d381611dc7565b90506120df8183611da5565b90506120ea81611dc7565b98975050505050505050565b6e3d913a3930b4ba2fba3cb832911d1160891b8152600f016121188184611da5565b6a1116113b30b63ab2911d1160a91b8152600b0190506121388183611da5565b9050611e7181611e0e565b7f3c696d61676520783d22302220793d2230222077696474683d2237322220686581527f696768743d2237322220696d6167652d72656e646572696e673d22706978656c60208201527f6174656422207072657365727665417370656374526174696f3d22784d69645960408201527f4d69642220786c696e6b3a687265663d22646174613a696d6167652f706e673b60608201526618985cd94d8d0b60ca1b60808201526087016121f58183611da5565b6211179f60e91b81529050600381016108e1565b61221281611e27565b905061221e8184611da5565b905061222981611de4565b90506122358183611da5565b9050611e7181611dd5565b693d913730b6b2911d101160b11b8152600a0161225d8186611da5565b90506122698185611da5565b7f222c20226465736372697074696f6e223a202250656173616e7420617265207781527f6f726b696e6720666f72207468652070726f73706572697479206f662074686560208201527f69722070656f706c652e2042757420746865206861726d66756c204b696e677360408201527f20646f6e74206d696e642067657474696e672074686569722073686172652e2060608201527f4e6f20495046532e204e6f204150492e20416c6c2073746f72656420616e642060808201527f67656e6572617465642031303025206f6e2d636861696e222c2022696d61676560a08201527f223a2022646174613a696d6167652f7376672b786d6c3b6261736536342c000060c082015260de01905061237f8184611da5565b6f1116101130ba3a3934b13aba32b9911d60811b815260100190506123a48183611da5565b90506123af81611e1b565b95945050505050565b7f3c7376672069643d226b696e6767616d65222077696474683d2231303025222081527f6865696768743d2231303025222076657273696f6e3d22312e3122207669657760208201527f426f783d223020302037322037322220786d6c6e733d22687474703a2f2f777760408201527f772e77332e6f72672f323030302f7376672220786d6c6e733a786c696e6b3d2260608201527f687474703a2f2f7777772e77332e6f72672f313939392f786c696e6b223e00006080820152609e016124808183611da5565b651e17b9bb339f60d11b81529050600681016108e1565b6124a081611e33565b90506108e18183611da5565b602081016108e18284611d64565b60208082528101611e718184611d73565b604080825281016124dc8185611d73565b9050818103602083015261146a8184611d73565b602080825281016108e181602681527f4f776e61626c653a206e6577206f776e657220697320746865207a65726f206160208201526564647265737360d01b604082015260600190565b60208082528181019081527f4f776e61626c653a2063616c6c6572206973206e6f7420746865206f776e65726040830152606082016108e1565b6000808335601e193685900301811261258f5761258f600080fd5b8301915050803567ffffffffffffffff8111156125ae576125ae600080fd5b602082019150600181023603821315611b9f57611b9f600080fd5b60008235603e19368490030181126125e3576125e3600080fd5b9190910192915050565b60006125f860405190565b9050612604828261271b565b919050565b600067ffffffffffffffff821115612623576126236127e8565b5060200290565b6000821982111561263d5761263d612790565b500190565b60ff8116905060ff8216915060008260ff0382111561263d5761263d612790565b600082612672576126726127a6565b500490565b600081600019048311821515161561269157612691612790565b500290565b6000828210156126a8576126a8612790565b500390565b60006001600160a01b0382166108e1565b60005b838110156126d95781810151838201526020016126c1565b838111156126e8576000848401525b50505050565b60028104600182168061270257607f821691505b60208210811415612715576127156127bc565b50919050565b601f19601f830116810181811067ffffffffffffffff82111715612741576127416127e8565b6040525050565b600060001982141561275c5761275c612790565b5060010190565b60ff81169050600060ff82141561275c5761275c612790565b60008261278b5761278b6127a6565b500690565b634e487b7160e01b600052601160045260246000fd5b634e487b7160e01b600052601260045260246000fd5b634e487b7160e01b600052602260045260246000fd5b634e487b7160e01b600052603260045260246000fd5b634e487b7160e01b600052604160045260246000fd5b612807816126ad565b811461136957600080fd5b801515612807565b80612807565b60ff811661280756fe4142434445464748494a4b4c4d4e4f505152535455565758595a6162636465666768696a6b6c6d6e6f707172737475767778797a303132333435363738392b2fa26469706673582212202f815edbd4afd5a2afd7d7fdc6623918fbfccac72cb688385c8f0306fdffb7ff64736f6c63430008070033",
  "linkReferences": {},
  "deployedLinkReferences": {}
}